:100000000C94E2020C940A030C940A030C940A0365
:100010000C940A030C940A030C940A030C940A032C
:100020000C940A030C940A030C940A030C940A031C
:100030000C940A030C940A030C940A030C940A030C
:100040000C94DD090C940A030C94D2030C94AC03B9
:100050000C940A030C940A030C940A030C940A03EC
:100060000C940A030C940A030000000024002700EB
:100070002A00010204081020408001020408102018
:1000800001020408102000000000250028002B00B9
:10009000040404040404040402020202020203032E
:1000A0000303030300000000003E5B4F5B3E3E6B1A
:1000B0004F6B3E1C3E7C3E1C183C7E3C181C577D02
:1000C000571C1C5E7F5E1C00183C1800FFE7C3E74E
:1000D000FF0018241800FFE7DBE7FF30483A060E60
:1000E0002629792926407F050507407F05253F5AA7
:1000F0003CE73C5A7F3E1C1C08081C1C3E7F142217
:100100007F22145F5F005F5F06097F017F006689C1
:10011000956A606060606094A2FFA29408047E0407
:100120000810207E201008082A1C08081C2A08082D
:100130001E101010100C1E0C1E0C30383E383006ED
:100140000E3E0E06000000000000005F00000007E9
:10015000000700147F147F14242A7F2A1223130817
:10016000646236495620500008070300001C2241F3
:10017000000041221C002A1C7F1C2A08083E080897
:100180000080703000080808080800006060002047
:10019000100804023E5149453E00427F400072492A
:1001A0004949462141494D331814127F10274545CE
:1001B00045393C4A494931412111090736494949E4
:1001C00036464949291E0000140000004034000052
:1001D00000081422411414141414004122140802BB
:1001E000015909063E415D594E7C1211127C7F492E
:1001F0004949363E414141227F4141413E7F494983
:1002000049417F090909013E414151737F080808AE
:100210007F00417F41002040413F017F081422417F
:100220007F404040407F021C027F7F0408107F3ED9
:100230004141413E7F090909063E4151215E7F0946
:10024000192946264949493203017F01033F4040AD
:10025000403F1F2040201F3F4038403F6314081498
:100260006303047804036159494D43007F414141D0
:100270000204081020004141417F040201020440B1
:1002800040404040000307080020545478407F2835
:100290004444383844444428384444287F3854542B
:1002A000541800087E090218A4A49C787F0804044E
:1002B0007800447D40002040403D007F10284400ED
:1002C00000417F40007C047804787C08040478387E
:1002D00044444438FC1824241818242418FC7C08AE
:1002E000040408485454542404043F44243C40402B
:1002F000207C1C2040201C3C4030403C44281028DE
:10030000444C9090907C4464544C44000836410026
:100310000000770000004136080002010204023CA0
:100320002623263C1EA1A161123A4040207A38546F
:1003300054555921555579412254547842215554E8
:10034000784020545579400C1E527212395555553B
:1003500059395454545939555454580000457C4126
:100360000002457D420001457C407D1211127DF066
:10037000282528F07C545545002054547C547C0A90
:10038000097F4932494949323A4444443A324A4859
:1003900048303A4141217A3A42402078009DA0A05D
:1003A0007D3D4242423D3D4040403D3C24FF2424AF
:1003B000487E4943662B2FFC2F2BFF0929F620C0CE
:1003C000887E090320545479410000447D4130481F
:1003D000484A32384040227A007A0A0A727D0D1962
:1003E000317D2629292F28262929292630484D40C4
:1003F00020380808080808080808382F10C8ACBAC0
:100400002F102834FA00007B000008142A1422223E
:10041000142A14085500550055AA55AA55AAFF5587
:10042000FF55FF000000FF00101010FF001414140F
:10043000FF001010FF00FF1010F010F0141414FC57
:10044000001414F700FF0000FF00FF1414F404FC74
:10045000141417101F10101F101F1414141F001055
:100460001010F0000000001F101010101F101010CE
:1004700010F010000000FF101010101010101010DD
:10048000FF10000000FF140000FF00FF00001F101D
:10049000170000FC04F414141710171414F404F4D7
:1004A0000000FF00F714141414141414F700F714C8
:1004B0001414171410101F101F141414F414101017
:1004C000F010F000001F101F0000001F14000000BB
:1004D000FC140000F010F01010FF10FF141414FFB3
:1004E000141010101F00000000F010FFFFFFFFFFAE
:1004F000F0F0F0F0F0FFFFFF0000000000FFFF0F42
:100500000F0F0F0F3844443844FC4A4A4A347E02E5
:10051000020606027E027E02635549416338444466
:100520003C04407E201E2006027E020299A5E7A51B
:10053000991C2A492A1C4C7201724C304A4D4D308C
:100540003048784830BC625A463D3E494949007EB1
:100550000101017E2A2A2A2A2A44445F4444405148
:100560004A444040444A51400000FF0103E080FFFC
:10057000000008086B6B083612362436060F090F88
:1005800006000018180000001010003040FF0101A4
:10059000001F01011E00191D1712003C3C3C3C00CD
:1005A00000000000000000002300260029000000D9
:1005B0000008000201000003040700000000000022
:1005C00000003F1211241FBECFEFD8E0DEBFCDBF29
:1005D00027E0AAE5B3E001C01D92A836B207E1F713
:1005E00013E0A0E0B1E0EAE4F7E202C005900D926A
:1005F000AA35B107D9F712E0C2EED2E004C02197C4
:10060000FE010E94C312C13ED107C9F70E94B20C7D
:100610000C94A3130C940000CF92DF92EF92FF9200
:100620000F931F93CF93DF936C017A018B01C0E08E
:10063000D0E0CE15DF0589F0D8016D918D01D6018E
:10064000ED91FC910190F081E02DC6010995892B77
:1006500011F47E0102C02196ECCFC701DF91CF914A
:100660001F910F91FF90EF90DF90CF9008950E941F
:10067000C91286EA96E00E94260421E0892B09F43B
:1006800020E0822F0895EF92FF920F931F93CF9354
:10069000DF93EC0181E0888F9B8D8C8D981305C0D2
:1006A000E889F989808185FD24C0F62E0B8D10E044
:1006B0000F5F1F4F0F731127E02E8C8DE8120CC0B7
:1006C0000FB607FCFACFE889F989808185FFF5CF5D
:1006D000CE010E94ED08F1CF8B8DFE01E80FF11DD8
:1006E000E35AFF4FF0820B8FEA89FB898081806299
:1006F00007C0EE89FF896083E889F9898081806479
:10070000808381E090E0DF91CF911F910F91FF9066
:10071000EF900895CF93DF93EC01888D8823C9F083
:10072000EA89FB89808185FD05C0A889B9898C91FA
:1007300086FD0FC00FB607FCF5CF808185FFF2CF95
:10074000A889B9898C9185FFEDCFCE010E94ED0873
:10075000E7CFDF91CF9108951F920F920FB60F92BE
:1007600011242F933F934F935F936F937F938F93B6
:100770009F93AF93BF93EF93FF9386EA96E00E9417
:10078000ED08FF91EF91BF91AF919F918F917F9174
:100790006F915F914F913F912F910F900FBE0F90EE
:1007A0001F9018951F920F920FB60F9211242F933E
:1007B0008F939F93EF93FF93E091B606F091B70666
:1007C0008081E091BC06F091BD0682FD12C090814F
:1007D0008091BF068F5F8F732091C006821751F002
:1007E000E091BF06F0E0EA55F94F958F8093BF0680
:1007F00001C08081FF91EF919F918F912F910F9078
:100800000FBE0F901F901895FC01918D828D981747
:1008100061F0828DDF01A80FB11D5D968C91928DE4
:100820009F5F9F73928F90E008958FEF9FEF0895E1
:10083000FC01918D828D981731F0828DE80FF11DAA
:10084000858D90E008958FEF9FEF0895FC01918DC5
:10085000228D892F90E0805C9F4F821B91098F73BE
:100860009927089580E090E0892B29F00E943903B0
:1008700081110C9400000895833081F028F48130B8
:1008800099F08230A1F008958730A9F08830B9F04E
:100890008430D1F4809180008F7D03C080918000EE
:1008A0008F7780938000089584B58F7702C084B5D8
:1008B0008F7D84BD08958091B0008F7703C08091B3
:1008C000B0008F7D8093B00008953FB7F894809179
:1008D000A2069091A306A091A406B091A50626B504
:1008E000A89B05C02F3F19F00196A11DB11D3FBF68
:1008F000BA2FA92F982F8827820F911DA11DB11DF6
:10090000BC01CD0142E0660F771F881F991F4A95F1
:10091000D1F70895FC0177FD68C08085918568173F
:1009200079070CF062C057FD60C082859385481737
:1009300059070CF05AC08589823059F08330B1F0E4
:100940008130D1F48FE290E0861B970BBA01AC01A5
:1009500013C083E590E0FC01E61BF70BBF018FE2BB
:1009600090E0FC01E41BF50BAF0106C083E590E0CD
:10097000841B950BAB01BC0164357105B0F54033A8
:10098000510598F5CA01E3E095958795EA95E1F759
:1009900047705527232BA1F024E5289FF001299FBC
:1009A000F00D11246E0F7F1FFB01E85FFE4F81E009
:1009B00090E001C0880F4A95EAF79081892B14C016
:1009C00024E5289FF001299FF00D11246E0F7F1F51
:1009D000FB01E85FFE4F81E090E001C0880F4A957F
:1009E000EAF78095908189238083089508952F9256
:1009F0003F924F925F926F927F928F929F92AF92AF
:100A0000BF92CF92DF92EF92FF920F931F93CF93FB
:100A1000DF93CDB7DEB76B970FB6F894DEBF0FBE8E
:100A2000CDBF4C015A8349831F830E83FD82EC8224
:100A3000CB82DC0158964D915C9159974115510537
:100A400009F0A5C018968D919C91199768177907A0
:100A50000CF05AC11A968D919C911B97E981FA81ED
:100A6000E817F9070CF050C1D12CCB013B81F6E01F
:100A70003F9F800D911D1124181619060CF044C1DA
:100A8000C60133E0880F991F3A95E1F749815A81F1
:100A9000840F951F181619060CF036C157968C91C5
:100AA000811103C0203B08F02F5F55E0259F900186
:100AB00011247E876D875B01212CC901861B970B52
:100AC00099878887A981BA811896BB87AA87B5E0DC
:100AD0002B1641F0E885F985EA0DFB1DEC55FF4F1B
:100AE000349001C0312C69807A80230130FE12C01D
:100AF000D401ED91FC91BB81B13031F40480F581DA
:100B0000E02D2E813F8118C00684F785E02DEE8010
:100B1000FF801CC0EC81FD812E813F81E217F3072D
:100B2000E1F0D401ED91FC91BB81B13051F404802E
:100B3000F581E02D2C813D81A301B501C40109950A
:100B40000CC00684F785E02DEC80FD8086019601BF
:100B5000A2016D857E85C40109953694EFEF6E1A6A
:100B60007E0A4C0C5D1C2A853B856216730609F0D3
:100B7000BDCF23943FEFA31AB30A4D855E854C0D7C
:100B80005D1D5E874D8756E02512A1CFBDC0FA01DD
:100B900034963491329785919491231BA7E02A9F34
:100BA000800D911D1124FA01259134913A8B298BE6
:100BB000FC0125903490FC013296349138873196AF
:100BC00044914C873196E491FC013596A49131967D
:100BD00084915B81523050F06A2E0A2E000C770807
:100BE000E82F082E000CFF0BFB87EA87FB81CF2E36
:100BF000D12C6C9C90016D9C300D7C9C300D11248F
:100C0000A901460F571F588B4F871C82A12CEA2F32
:100C1000AA0FFF0B3B016E0E7F1E5885650F711DDD
:100C2000DB01AE0FBF1FBF8BAE8BE981FA81E80FEE
:100C3000F11D87FDFA95F98FE88F9C85A91608F0BC
:100C400063C08A2D90E04A855B85480F591F4C9DF3
:100C500090014D9D300D5C9D300D1124A981BA810C
:100C6000A20FB31FBE87AD877B8E6A8E4F845888D4
:100C7000BC81B619BB8BE88DF98DE80FF91FFD8B90
:100C8000EC8B8B89FA8D8F0F2A8D3B8D4E895F8976
:100C90002417350799F1877041F4C1010196E9895C
:100CA000FA89E20DF31DB4901C01B7FE1EC0D401F9
:100CB000ED91FC91BB81B13061F40480F581E02DB0
:100CC0002E813F814C895D896A8D7B8DC401099598
:100CD0000CC00684F785E02DEE80FF80860196012A
:100CE0004D855E85B201C4010995BB0CEA8DFB8D73
:100CF0003196FB8FEA8F4C0C5D1CC3CF5C818885DD
:100D0000580F5C83A39499CF6B960FB6F894DEBF0F
:100D10000FBECDBFDF91CF911F910F91FF90EF904C
:100D2000DF90CF90BF90AF909F908F907F906F900B
:100D30005F904F903F902F900895AF92BF92CF92C7
:100D4000EF92FF920F931F93CF93DF93EC01262F27
:100D5000888D998D009709F042C06A3069F42C891A
:100D60008E859F8538E0239F800D911D11249F87DC
:100D70008E871D861C86ACC06D3009F4A9C08E8993
:100D80008823C1F03C898C859D8546E0349F800D89
:100D9000911D112448855985841795075CF01D869F
:100DA0001C868E859F85E8E03E9F800D911D112455
:100DB0009F878E87EA88FB88088919894E855F8519
:100DC0006C857D85CC88CE010E94F7042C898C85AA
:100DD0009D85F6E02F9F800D911D112441C06A3042
:100DE00079F41D861C862C89FC013696E4918E854B
:100DF0009F852E9F800D911D11249F878E8768C02F
:100E00006D3009F465C0AC014C5F5F4FFA0134915D
:100E1000631708F45DC03196E491E61708F458C0F2
:100E2000FA014491362F341BFC013296A590B49000
:100E3000F7E03F9FA00CB11C1124F50132963491CC
:100E40003196E491332311F0E1110DC0F501349690
:100E5000E4912C898C859D85E29F800D911D112444
:100E60009D878C8735C0F501359644915E89552361
:100E700011F16C89E32FF0E0E40FF11D47FDFA95C5
:100E80006E9FD0016F9FB00D11244C855D854A0F78
:100E90005B1FE885F9854E175F076CF01D861C8681
:100EA000FC013696E4918E859F856E9F800D911D85
:100EB00011249F878E87EA88FB88088919894E85C7
:100EC0005F856C857D85CC88CE010E94F704BECFFE
:100ED00081E090E0DF91CF911F910F91FF90EF9013
:100EE000CF90BF90AF900895EF92FF920F931F9312
:100EF000DC01ED91FC9111971A960D911C911B97B5
:100F000018962D913C9119970684F785E02D7B0169
:100F100040E050E060E070E009951F910F91FF9074
:100F2000EF9008956F927F928F929F92AF92BF92AF
:100F3000CF92DF92EF92FF920F931F93CF93DF93A5
:100F40006C015A014801EB013B01620E731EC6158C
:100F5000D70574F4D601ED91FC910084F185E02D64
:100F600087019401A501BE01C60109952196EFCF25
:100F7000DF91CF911F910F91FF90EF90DF90CF9075
:100F8000BF90AF909F908F907F906F900895EF9259
:100F9000FF920F931F93DC01ED91FC91260F371FF9
:100FA000215031090680F781E02D78018A010995E9
:100FB0001F910F91FF90EF900895EF92FF920F9382
:100FC0001F937801DC01ED91FC91240F351F8901FD
:100FD000015011090680F781E02D9B0109951F91B1
:100FE0000F91FF90EF9008956F927F928F929F9252
:100FF000AF92BF92CF92DF92EF92FF920F931F9327
:10100000CF93DF93EC014B015A0169013801E8816C
:10101000F9810284F385E02D87010995E881F98142
:10102000A501460D571D415051090284F385E02D5D
:101030009601B401CE010995E881F9810084F1851A
:10104000E02D9301A501B401CE010995E881F98154
:10105000C80CD91CB601615071090084F185E02DDE
:101060009301A501CE010995DF91CF911F910F91B9
:10107000FF90EF90DF90CF90BF90AF909F908F90B8
:101080007F906F9008952F923F924F925F926F9250
:101090007F928F929F92AF92BF92CF92DF92EF9208
:1010A000FF920F931F93CF93DF9300D01F92CDB782
:1010B000DEB74C017B836A836A01590117019801ED
:1010C000241B350B37FF03C0319521953109C5012C
:1010D0004A815B81841B950B97FF03C09195819595
:1010E000910951E059838217930714F019820BC0BC
:1010F0009A2D8B2D5801092F182F9A818B81DB8215
:10110000CA82C92ED82E8A819B81A816B9065CF4A2
:101110009C2D8D2D6801092F182F9A818B81BB8200
:10112000AA82A92EB82E2501AA81BB814A1A5B0A80
:1011300038016C187D0877FE03C0719461947108C2
:10114000720157FE03C0BFEFEB1AFB0AF594E79458
:10115000C016D1061CF00FEF1FEF1FC001E010E01A
:101160001CC0D401ED91FC91B9810480F581E02D82
:101170009101BB23C1F04A815B81B601C40109958D
:10118000E618F708F7FE04C0C00ED11EE40CF51CEB
:10119000EA81FB813196FB83EA834A815B81A41655
:1011A000B506FCF604C0A6016A817B81E7CF0F90EB
:1011B0000F900F90DF91CF911F910F91FF90EF90C3
:1011C000DF90CF90BF90AF909F908F907F906F9067
:1011D0005F904F903F902F900895FC01848DDF0128
:1011E000A80FB11DA35ABF4F2C91848D90E001969A
:1011F0008F739927848FA689B7892C93A089B18989
:101200008C9180648C93938D848D981306C0028892
:10121000F389E02D80818F7D80830895CF93DF93C4
:10122000282F30E0F901E255FA4F8491F901EE5888
:10123000FF4FD491F901E057FF4FC491CC2391F0B7
:1012400081110E943C04EC2FF0E0EE0FFF1FEC55E3
:10125000FA4FA591B491EC91ED2381E090E021F457
:1012600080E002C080E090E0DF91CF9108951F936D
:10127000CF93DF93282F30E0F901E255FA4F8491A4
:10128000F901EE58FF4FD491F901E057FF4FC49197
:10129000CC23C9F0162F81110E943C04EC2FF0E002
:1012A000EE0FFF1FEA57FF4FA591B4918FB7F89447
:1012B000111105C09C91ED2FE095E92302C0EC913E
:1012C000ED2BEC938FBFDF91CF911F910895CF93BA
:1012D000DF9390E0FC01EE58FF4F2491FC01E057B2
:1012E000FF4F8491882361F190E0880F991FFC01E2
:1012F000E859FF4FC591D491FC01EA57FF4FA591E2
:10130000B491611109C09FB7F89488812095822318
:101310008883EC912E230BC0623061F49FB7F89460
:101320003881822F809583238883EC912E2B2C93F8
:101330009FBF06C08FB7F894E8812E2B28838FBFFC
:10134000DF91CF9108958F929F92AF92BF92CF92EB
:10135000DF92EF92FF926B017C010E9465044B01CA
:101360005C01C114D104E104F104F1F00E946504B0
:10137000DC01CB0188199909AA09BB09883E934071
:10138000A105B10570F321E0C21AD108E108F10806
:1013900088EE880E83E0981EA11CB11CC114D104F4
:1013A000E104F10419F7DDCFFF90EF90DF90CF90CB
:1013B000BF90AF909F908F9008951F920F920FB69D
:1013C0000F9211242F933F938F939F93AF93BF93CB
:1013D00080915A0390915B03A0915C03B0915D03EF
:1013E0003091A10623E0230F2D3720F40196A11D93
:1013F000B11D05C026E8230F0296A11DB11D209343
:10140000A10680935A0390935B03A0935C03B0936F
:101410005D038091A2069091A306A091A406B091CD
:10142000A5060196A11DB11D8093A2069093A30667
:10143000A093A406B093A506BF91AF919F918F9101
:101440003F912F910F900FBE0F901F9018958F9284
:101450009F92AF92BF92CF92DF92EF92FF92CF9383
:10146000DF9300D000D0CDB7DEB79C014A015B010D
:1014700084EF91E0B9010E949B126B01770FEE0897
:10148000FF08A7019601220F331F441F551FC501F6
:10149000B4010E944013812C912C540182169306B2
:1014A000A406B506F4F461E082E029833A834B8315
:1014B0005C830E943709C701B6010E94A30960E05E
:1014C00082E00E943709C701B6010E94A3098FEF8D
:1014D000881A980AA80AB80A5C814B813A81298146
:1014E000DDCF62E070E080E090E00F900F900F9011
:1014F0000F90DF91CF91FF90EF90DF90CF90BF9052
:10150000AF909F908F900C94A309EF92FF920F934E
:101510001F9340915E0350915F036091600370914F
:101520006103EE24E394F12C03E010E023E030E0CB
:1015300083E497E00E94920710926503109264037F
:10154000809164039091650320916203309163035D
:1015500082179307D4F4880F991FFC01EA59FC4FB6
:1015600060817181FC01EA50FB4F41E050E08081D5
:1015700091810E945F0B80916403909165030196B5
:101580009093650380936403DBCF1F910F91FF90CD
:10159000EF900C94200B90915D079F3F21F4909168
:1015A0005E079F3F59F128E030E040E8E091640792
:1015B000F0916507508190916707909595239083EE
:1015C000E0916207F091630790916607542F5823CA
:1015D00019F05081952B03C05081909595239083ED
:1015E000E0916407F0916507508190916707952B12
:1015F0009083469521503109C9F608958EBD0000AB
:101600000DB407FEFDCF8EB50895CF93C82F60E0CF
:1016100080915F070E9437098091610718161CF4BA
:1016200060E00E9437098C2F0E94CB0A80916107ED
:10163000181624F461E0CF910C943709CF910895E6
:10164000EF92FF920F931F93CF9388E0E82E81E0F3
:10165000F82EC0E08C2F80640E94050B80E80E9469
:10166000050B61E080915F070E9437098091610757
:1016700018161CF460E00E94370900E010E0F70142
:10168000E00FF11F80810E94CB0A0F5F1F4F0435CE
:101690001105A9F78091610718161CF461E00E94FA
:1016A0003709CF5F84E5E80EF11CC63099F680E477
:1016B000CF911F910F91FF90EF900C94050B4F92DB
:1016C0005F926F927F928F929F92AF92BF92CF92D2
:1016D000DF92EF92FF920F931F93CF93DF937C01E2
:1016E0006B01EA013B018FEF681A780A03E417E007
:1016F000D801ED91FC910480F581E02D9A01A301C0
:10170000B701C80109952601B1E04B1A5108D8016B
:10171000ED91FC910480F581E02D9E01A201B701BD
:10172000C80109954701BFEF8B1A9B0AD801ED91BB
:10173000FC910480F581E02D9E01A601B401C80151
:1017400009955701B1E0AB1AB108D801ED91FC91B0
:101750000480F581E02D9E01A601B501C80109951F
:10176000D801ED91FC910480F581E02D9E01A60148
:10177000B401C8010995D801ED91FC910480F5816F
:10178000E02D9E01A601B501C8010995D801ED9192
:10179000FC910480F581E02D9E01A601B401C801F1
:1017A0000995D801ED91FC910480F581E02D9E0111
:1017B000A601B501C8010995D801ED91FC910480FD
:1017C000F581E02D9E01A301B701C8010995D8015B
:1017D000ED91FC910480F581E02D9E01A301B701FC
:1017E000C8010995D801ED91FC910480F581E02DA7
:1017F0009E01A201B701C8010995D801ED91FC91A4
:101800000480F581E02D9E01A201B701C801DF919E
:10181000CF911F910F91FF90EF90DF90CF90BF90ED
:10182000AF909F908F907F906F905F904F900994B2
:1018300088EF91E0E8E0F1E0DF019C011D9221508A
:101840003040E1F7E3E4F7E0158614861786168644
:101850000895009769F0FC0101900020E9F73197A5
:10186000AF01481B590BBC0183E497E00C940C03B7
:1018700080E090E008958F929F92AF92BF920F9375
:101880001F93CF93DF93CDB7DEB7A1970FB6F89430
:10189000DEBF0FBECDBF19A2423008F44AE08E0170
:1018A0000F5D1F4F842E912CA12CB12CA50194010A
:1018B0000E947213E62FB901CA0101501109EA30E2
:1018C00014F4E05D01C0E95CD801EC93232B242BD8
:1018D000252B61F7C8010E94290CA1960FB6F89438
:1018E000DEBF0FBECDBFDF91CF911F910F91BF9093
:1018F000AF909F908F900895CF92DF92EF92FF92DA
:10190000CF93DF936C01990FEE08FF08F7FE1FC01D
:10191000E0914307F09144070190F081E02D6DE2E2
:1019200083E497E00995EC0166277727CB016C19D2
:101930007D098E099F094AE00E943B0C8C0F9D1F78
:10194000DF91CF91FF90EF90DF90CF9008954AE024
:10195000C701B601DF91CF91FF90EF90DF90CF905C
:101960000C943B0C789484B5826084BD84B581600E
:1019700084BD85B5826085BD85B5816085BD80915A
:101980006E00816080936E001092810080918100D2
:1019900082608093810080918100816080938100CA
:1019A000809180008160809380008091B10084608C
:1019B0008093B1008091B00081608093B0008091ED
:1019C0007A00846080937A0080917A0082608093AC
:1019D0007A0080917A00816080937A0080917A0009
:1019E000806880937A001092C100E091B606F09171
:1019F000B70682E08083E091B206F091B3061082D0
:101A0000E091B406F091B5068FEC80831092BE068B
:101A1000E091BA06F091BB0686E08083E091B806BB
:101A2000F091B906808180618083E091B806F091E1
:101A3000B906808188608083E091B806F091B9068C
:101A4000808180688083E091B806F091B90680813A
:101A50008F7D808380915D078F3F29F490915E0791
:101A60009F3F09F4CCC461E00E94670961E0809166
:101A70005E070E94670980915E07082E000C990B93
:101A8000FC01E057FF4FE491F0E0EE0FFF1FEA5733
:101A9000FF4F259134913093650720936407FC0133
:101AA000EE58FF4FE491E093670780915D07082EA1
:101AB000000C990BFC01E057FF4FE491F0E0EE0FB2
:101AC000FF1FEA57FF4F259134913093630720930E
:101AD0006207FC01EE58FF4FE491E093660761E076
:101AE00080915F070E9467098091600718161CF4B7
:101AF00061E00E9467098091610718161CF461E09B
:101B00000E94670980916007181674F460E00E94D3
:101B1000370964EF71E080E090E00E94A30961E082
:101B2000809160070E94370981E20E94050B84E1E1
:101B30000E94050B88EA0E94050B80E20E94050BBB
:101B40008CE00E94050B0E94200B0E94180C60E0A4
:101B500086E00E94670960E084E00E94670960E017
:101B600087E00E94670960E085E00E94670960E005
:101B700083E00E94670961E082E00E94670961E0FA
:101B800086E00E94370961E084E00E94370961E045
:101B900087E00E94370961E085E00E94370961E033
:101BA00083E00E94370981E20E94050B89E90E94C7
:101BB000050B80E20E94050B88E090E090936303A0
:101BC0008093620380914B0790914C0797FD01969B
:101BD00095958795909361038093600380914D075D
:101BE00090914E0797FD01969595879590935F0389
:101BF00080935E0382E08093570781E090E09093AA
:101C00005607809355079093540780935307CAE073
:101C1000D0E0D0935007C0934F078FE090E09093AF
:101C20005207809351078CE293E00E94290CD093D5
:101C30005007C0934F0788E290E09093520780933B
:101C4000510784E393E00E94290C0E94200B60EA74
:101C50007FE080E090E00E94A3090E94180C609150
:101C600062037091630320E030E080E090E040E0A8
:101C700050E0AAE0B0E0FC013397641775078CF0E0
:101C8000E901CA50DB4F499699838883E901CA5913
:101C9000DC4FB983A8834F5F5F4F2E5F3F4FCF016B
:101CA000EACF1092650310926403809164039091CF
:101CB0006503209162033091630382179307D4F484
:101CC000880F991FFC01EA59FC4F60817181FC016A
:101CD000EA50FB4F41E050E0808191810E945F0B10
:101CE00080916403909165030196909365038093BE
:101CF0006403DBCF0E94200B81E080939406C1E057
:101D0000D0E057E2252E312C412C512C68E1862E53
:101D100099249394A12CB12C86E00E940E093C01D9
:101D20009093A00680939F0685E00E940E098C0187
:101D300090939E0680939D0684E00E940E096C019C
:101D400090939C0680939B0687E00E940E097C017D
:101D500090939A068093990683E00E940E099093CF
:101D60009806809397062091950630919606232B2E
:101D700009F0BDC0672889F42091940621110DC097
:101D800081E08093930610929206109291068091C2
:101D9000F6049091F704039712C0CD28E9F420913E
:101DA0009306211119C081E0809394061092920647
:101DB000109291068091F6049091F7040396909307
:101DC00003018093020180916603909167039093D1
:101DD0000101809300011EC0EF2809F520919106B2
:101DE00021111DC081E080939206109293061092FB
:101DF0009406809166039091670303979093010185
:101E0000809300018091F6049091F7049093030170
:101E100080930201D0939606C093950668C0012B6B
:101E200089F42091920621110DC081E080939106E2
:101E30001092930610929406809166039091670326
:101E40000396DCCF892B09F052C00E94180CD09366
:101E50005607C0935507D0935407C093530785E0A6
:101E600090E0909365038093640311E08091640394
:101E70009091650318161906C4F549E150E0509396
:101E8000500740934F078AE090E090935207809369
:101E900051071093570789E393E00E94290C48E209
:101EA00050E05093500740934F078EE190E090939D
:101EB00052078093510780916403909165030E94BB
:101EC0007C0C0E94200B68EE73E080E090E00E94A2
:101ED000A3090E94180C80916403909165030197F7
:101EE0009093650380936403C1CF0E94850A2FB746
:101EF000F89460915A0370915B0380915C03909118
:101F00005D032FBF2091040130910501409106012E
:101F1000509107010E947213672B682B692B09F0FF
:101F20006BC28091950690919606892B09F04EC060
:101F3000209194068091F6049091F704222379F081
:101F40009C012D5F3F4F30930301209302012091AC
:101F500066033091670330930101209300012091C3
:101F60009306222379F09C01235031093093030119
:101F700020930201209166033091670330930101A1
:101F80002093000120919206222371F02091660394
:101F900030916703235031093093010120930001F0
:101FA000909303018093020120919106222371F006
:101FB00020916603309167032D5F3F4F30930101FD
:101FC00020930001909303018093020110929606E2
:101FD00010929506D0936503C0936403FF24F39495
:101FE0003CE0632E712C0FE010E048E0C42ED12CB1
:101FF0004091640350916503209162033091630323
:102000008091F6049091F704421753070CF0B9C081
:10201000440F551FFA01EA50FB4F208131812817E8
:10202000390709F0A4C0FA01EA59FC4F2081318137
:1020300080916603909167032817390709F097C0CC
:1020400081E090E00E942A13E82E80938C0680E0C5
:1020500090E00E942A1380938B062E2D30E0322FC1
:102060002227A901480F511DCA0150938A064093A7
:1020700089064091870660918806242F362F8217A3
:10208000930790F430938A062093890660938C0618
:1020900040938B0681E090E00E94321360918B06A2
:1020A00080E090E00E9432130E94180CD0935607F3
:1020B000C0935507D0935407C0935307F092570726
:1020C00084E190E09093500780934F0770925207FD
:1020D0006092510780E493E00E94290C109350070E
:1020E00000934F074EE150E0509352074093510741
:1020F0008AE493E00E94290C8091870690918806DB
:102100000E947C0C1093500700934F0788E290E0E8
:10211000909352078093510782E593E00E94290C27
:102120006091890670918A0680E090E04AE00E9402
:102130003B0C0E94200B48E853E160E070E084E132
:1021400090E00E94270A0E94180CD0926303C0926C
:102150006203109288061092870680920401909282
:102160000501A0920601B09207010E94850A8091A4
:1021700064039091650301969093650380936403D3
:1021800037CF60916003709161038617970789F0DC
:10219000AB014F5F5F4F8417950759F04F5F5F4F5B
:1021A0008417950731F0435051098417950709F0BA
:1021B00074C0809166039091670340915E035091D3
:1021C0005F038417950771F0FA0131968E179F0708
:1021D00049F031968E179F0729F033978E179F0786
:1021E00009F05BC0809187069091880601969093D4
:1021F0008806809387062F5F3F4F309363032093B9
:1022000062038091040190910501A0910601B091B3
:1022100007018A359105A105B10558F04497A10938
:10222000B1098093040190930501A0930601B09336
:102230000701E12CF12C03E010E023E030E083E41F
:1022400097E00E9492070E94200B42E350E060E07A
:1022500070E083E290E00E94270A0E941C132FE4A2
:1022600030E040E050E00E944013DC01CB010196D9
:10227000A11DB11D90936103809360030E941C1304
:10228000A20191010E944013DC01CB010196A11D26
:10229000B11D90935F0380935E0380910201909142
:1022A00003011816190634F08C5A9F4F90930301BE
:1022B0008093020180910201909103018435910580
:1022C00034F0845591099093030180930201809129
:1022D000000190910101181619062CF0C0969093F8
:1022E00001018093000180910001909101018033F0
:1022F00091052CF0C09790930101809300014091CB
:1023000062035091630370918F0660919006F09183
:102310008D06E0918E06E0900201F090030100919D
:1023200000011091010120E030E080E090E04817CA
:102330005907D4F0D901AA50BB4F7C9111966C91EA
:102340001197F901EA59FC4FC080D180EC921196A7
:10235000FC920083118301962E5F3F4F8601F02F80
:10236000E12FE72EF62EE3CF70938F066093900651
:10237000F0938D06E0938E06E0920201F092030145
:10238000009300011093010190936503809364030F
:1023900040915E0350915F0360916003709161030F
:1023A000EE24E394F12C03E010E023E030E083E43A
:1023B00097E00E949207609166037091670341E085
:1023C00050E08091F6049091F7040E945F0BE09139
:1023D0006203F0916303EE0FFF1FDF01AA59BC4FA8
:1023E0006D917C91EA50FB4F40E050E080819181FB
:1023F0000E945F0B0E94200B0E9432048DCCCFB74D
:10240000F89480918606811127C0EAE9F0E0849172
:10241000ECE7F0E09491E82FF0E0EE0FFF1FE859B1
:10242000FF4FA591B491EC91E92321F461E08AE09A
:102430000E94370961E08AE00E9467098CB58061DB
:102440008CBD8CB580648CBD61E08DE00E94670915
:1024500061E08BE00E946709809186068F5F809320
:102460008606CFBF8CB58C7F8CBD8DB58E7F8DBD24
:102470008CB5837F8CBD8CB58F7D8CBD30CBE6EA6F
:10248000F6E01382128288EE93E0A0E0B0E084834D
:102490009583A683B78388E093E09183808385EC5E
:1024A00090E09587848784EC90E09787868780EC1E
:1024B00090E0918B808B81EC90E0938B828B82EC0F
:1024C00090E0958B848B86EC90E0978B868B118EB9
:1024D000128E138E148EE3E4F7E01382128224E549
:1024E00030E03583248380E390E0978386833187CF
:1024F000208793878287158A158614861786168605
:1025000081E0848B2FEF3FEF338B228B318B208B3D
:10251000868B178A118E108E88E193E091838083D9
:1025200089E0828F88E0838F8AE0848F8CE0858FBA
:102530008BE0868F089597FB072E16F4009407D042
:1025400077FD09D00E94AF1207FC05D03EF49095AC
:1025500081959F4F0895709561957F4F0895AA1BAF
:10256000BB1B51E107C0AA1FBB1FA617B70710F07E
:10257000A61BB70B881F991F5A95A9F780959095B0
:10258000BC01CD010895EE0FFF1F0590F491E02DE1
:10259000099481E090E0F8940C94A3138F929F9299
:1025A000AF92BF92CF92DF92EF92FF92CF93DF93E1
:1025B000EC01688179818A819B81611571058105B2
:1025C000910521F464E279ED8BE597E02DE133EF9D
:1025D00041E050E00E94401349015A019B01AC01C7
:1025E000A7EAB1E40E945F136B017C01ACEEB4EF8B
:1025F000A50194010E946D13DC01CB018C0D9D1D82
:10260000AE1DBF1DB7FF03C00197A109B048888365
:102610009983AA83BB83BC01CD019F77DF91CF91C2
:10262000FF90EF90DF90CF90BF90AF909F908F90F2
:1026300008950E94CE12089580E093E00E94CE1289
:1026400008956093000370930103809302039093B5
:1026500003030895F999FECF92BD81BDF89A992799
:1026600080B50895262FF999FECF1FBA92BD81BD7E
:1026700020BD0FB6F894FA9AF99A0FBE0196089504
:10268000052E97FB1EF400940E94571357FD07D0A8
:102690000E94721307FC03D04EF40C94571350950C
:1026A0004095309521953F4F4F4F5F4F089590953E
:1026B0008095709561957F4F8F4F9F4F08950E9431
:1026C0009413A59F900DB49F900DA49F800D911D14
:1026D00011240895B7FF0C945F130E945F13821BAF
:1026E000930B0895A1E21A2EAA1BBB1BFD010DC07E
:1026F000AA1FBB1FEE1FFF1FA217B307E407F507B2
:1027000020F0A21BB30BE40BF50B661F771F881F8D
:10271000991F1A9469F760957095809590959B0123
:10272000AC01BD01CF010895A29FB001B39FC001CC
:10273000A39F700D811D1124911DB29F700D811DED
:0A2740001124911D0895F894FFCFB5
:10274A000A000A0018010000000000000000000052
:10275A00000000000000000000000000000000006F
:10276A000000000000000000000000000000C0E0BF
:10277A00F0F8FCFCFEFFFCE0000000000000000096
:10278A00000000000000000000000000000000003F
:10279A00000000000000000000000000000000002F
:1027AA0000000000000000000000000000F8F8F837
:1027BA00F8F8F8F8F8F8F8F8F8F0F0E0E0C080C0B7
:1027CA00FCFFFFFFFF7F3F7FFFFFFFFFFF000000CF
:1027DA0000000000000000000000000000000000EF
:1027EA0000000000000000000000000000000000DF
:1027FA0000000000000000000000000000000000CF
:10280A0000000F1F3F7FFFFFFFFFFFFFFFFFE7C72C
:10281A00C7878F9F9FFFFFFFC1C0E0FCFFFFFFFF3D
:10282A00FFFCFCFCFCFEFEFEFCFCF8F8F0E0C0C07D
:10283A00000000000000000000000000000000008E
:10284A00000000000000000000000000000000007E
:10285A0000000000000000000080C0E0F1FBFFFF64
:10286A00FFFFFF7F1F0F0F87E7FFFFFF1F1F3FF9C4
:10287A00F8F8F8F8F8F8FDFFFFFFFFFFFFFFFFFF8A
:10288A007F3F0F0701000000000000000000000069
:10289A00000000000000000000000000000000002E
:1028AA000000000000000000000000F0FEFFFFFF33
:1028BA00FFFFFFFFFFFFFFFE7E3F3F0F1FFFFFFFF0
:1028CA00FCF0E0F1FFFFFFFFFFFCF0010101010155
:1028DA0001010100000000000000000000000000EB
:1028EA0000000000000000000000000000000000DE
:1028FA0000000000000000000000000000000003CB
:10290A0003030303030303010101010000000000A4
:10291A000000030F1F3F7F7FFFFFFFFF7F7F1F0323
:10292A00000000000000000000000000000000009D
:10293A00000000000000000000000000000000008D
:10294A00010000000000000043030C0326040404F5
:10295A0018048A03000000009D060C038A04430839
:10296A00DD07C707F40792077407F60472697368EC
:10297A00616268006A6A6A6A0050415553454400B8
:10298A0047616D65204F7665720053636F72653AD1
:0A299A002000486967683A20000039
:00000001FF
