:100000000C945D000C9485000C9485000C94850084
:100010000C9485000C9485000C9485000C9485004C
:100020000C9485000C9485000C9485000C9485003C
:100030000C9485000C9485000C9485000C9485002C
:100040000C94C6020C9485000C9494020C946E02DD
:100050000C9485000C9485000C9485000C9485000C
:100060000C9485000C94850000000008000201003B
:100070000003040700000000000000000000000072
:10008000250028002B0000000000240027002A0083
:10009000040404040404040402020202020203032E
:1000A0000303030301020408102040800102040836
:1000B0001020010204081020400411241FBECFEFBD
:1000C000D8E0DEBFCDBF11E0A0E0B1E0E4E6F9E0AA
:1000D00002C005900D92AA34B107D9F721E0AAE435
:1000E000B1E001C01D92A83FB207E1F710E0CDE5F5
:1000F000D0E004C02197FE010E949604CC35D107C0
:10010000C9F70E9410030C94B0040C940000CF9225
:10011000DF92EF92FF920F931F93CF93DF936C01C7
:100120007A018B01C0E0D0E0CE15DF0589F0D8015F
:100130006D918D01D601ED91FC910190F081E02D42
:10014000C6010995892B11F47E0102C02196ECCFDE
:10015000C701DF91CF911F910F91FF90EF90DF903A
:10016000CF900895089580E090E00895FC01538DAC
:10017000448D252F30E0842F90E0821B930B541781
:1001800010F0CF96089501970895FC01918D828D0E
:10019000981761F0828DDF01A80FB11D5D968C91DB
:1001A000928D9F5F9F73928F90E008958FEF9FEFE6
:1001B0000895FC01918D828D981731F0828DE80FA2
:1001C000F11D858D90E008958FEF9FEF0895FC015C
:1001D000918D228D892F90E0805C9F4F821B910929
:1001E0008F73992708958BE591E00E94E70021E045
:1001F000892B09F420E0822F0895FC01848DDF0112
:10020000A80FB11DA35ABF4F2C91848D90E0019689
:100210008F739927848FA689B7892C93A089B18978
:100220008C9180648C93938D848D981306C0028882
:10023000F389E02D80818F7D80830895EF92FF9276
:100240000F931F93CF93DF93EC0181E0888F9B8DF9
:100250008C8D981305C0E889F989808185FD24C0BB
:10026000F62E0B8D10E00F5F1F4F0F731127E02E3E
:100270008C8DE8120CC00FB607FCFACFE889F9891B
:10028000808185FFF5CFCE010E94FD00F1CF8B8DDF
:10029000FE01E80FF11DE35AFF4FF0820B8FEA8950
:1002A000FB898081806207C0EE89FF896083E889CD
:1002B000F98980818064808381E090E0DF91CF9133
:1002C0001F910F91FF90EF900895CF93DF93EC0172
:1002D000888D8823C9F0EA89FB89808185FD05C066
:1002E000A889B9898C9186FD0FC00FB607FCF5CFA0
:1002F000808185FFF2CFA889B9898C9185FFEDCFE8
:10030000CE010E94FD00E7CFDF91CF91089580E0FC
:1003100090E0892B29F00E94F30081110C940000D9
:10032000089590E0FC01E859FF4F3491FC01EC5531
:10033000FF4F2491FC01E057FF4FE491EE2309F4B5
:100340003BC0332339F1333091F038F43130A9F028
:10035000323001F584B58F7D12C0373091F03830DE
:10036000A1F03430B9F4809180008F7D03C080917A
:1003700080008F77809380000DC084B58F7784BD17
:1003800009C08091B0008F7703C08091B0008F7D4D
:100390008093B000F0E0EE0FFF1FE458FF4FA591EF
:1003A000B4918FB7F894EC91611103C020952E237E
:1003B00001C02E2B2C938FBF08958230910538F009
:1003C000880F991F880F991F05970197F1F70895D6
:1003D000009769F0FC0101900020E9F73197AF0127
:1003E000481B590BBC018BE591E00C94870080E021
:1003F00090E008958F929F92AF92BF920F931F93B8
:10040000CF93DF93CDB7DEB7A1970FB6F894DEBFD9
:100410000FBECDBF19A2423008F44AE08E010F5D35
:100420001F4F842E912CA12CB12CA50194010E9468
:100430006D04E62FB901CA0101501109EA3014F424
:10044000E05D01C0E95CD801EC93232B242B252B24
:1004500061F7C8010E94E801A1960FB6F894DEBFCB
:100460000FBECDBFDF91CF911F910F91BF90AF9085
:100470009F908F900895CF92DF92EF92FF92CF934B
:10048000DF936B017C01E0915B01F0915C010190D5
:10049000F081E02D6DE28BE591E00995EC01662796
:1004A0007727CB016C197D098E099F094AE00E94CC
:1004B000FA018C0F9D1FDF91CF91FF90EF90DF909D
:1004C000CF900895BC01990F880B990B97FD0C9460
:1004D0003B024AE00C94FA010E94AB041F920F9277
:1004E0000FB60F9211242F933F934F935F936F9307
:1004F0007F938F939F93AF93BF93EF93FF938BE57E
:1005000091E00E94FD00FF91EF91BF91AF919F910B
:100510008F917F916F915F914F913F912F910F90AC
:100520000FBE0F901F9018951F920F920FB60F924B
:1005300011242F938F939F93EF93FF93E0916B017F
:10054000F0916C018081E0917101F091720182FD66
:1005500012C09081809174018F5F8F73209175011B
:10056000821751F0E0917401F0E0E55AFE4F958F4B
:100570008093740101C08081FF91EF919F918F91D1
:100580002F910F900FBE0F901F9018951F920F92F2
:100590000FB60F9211242F933F938F939F93AF9396
:1005A000BF9380914F0190915001A0915101B09162
:1005B000520130914E0123E0230F2D3720F4019694
:1005C000A11DB11D05C026E8230F0296A11DB11D76
:1005D00020934E0180934F0190935001A0935101BD
:1005E000B093520180914A0190914B01A0914C012E
:1005F000B0914D010196A11DB11D80934A019093C8
:100600004B01A0934C01B0934D01BF91AF919F91CD
:100610008F913F912F910F900FBE0F901F901895C3
:10062000CF93DF9300D000D0CDB7DEB7789484B5F8
:10063000826084BD84B5816084BD85B5826085BDDE
:1006400085B5816085BD80916E00816080936E006C
:10065000109281008091810082608093810080915E
:10066000810081608093810080918000816080930F
:1006700080008091B10084608093B1008091B000CF
:1006800081608093B00080917A00846080937A00CA
:1006900080917A00826080937A0080917A008160F4
:1006A00080937A0080917A00806880937A0010921B
:1006B000C100EDEAF0E02491E9E9F0E084918823BB
:1006C00099F090E0880F991FFC01EA57FF4FA59120
:1006D000B491FC01E458FF4F859194918FB7F89441
:1006E000EC91E22BEC938FBFE0916B01F0916C01E8
:1006F00082E08083E0916701F09168011082E091CF
:100700006901F0916A018FEC808310927301E0918E
:100710006F01F091700186E08083E0916D01F091AE
:100720006E01808180618083E0916D01F0916E01A6
:10073000808188608083E0916D01F0916E018081FD
:1007400080688083E0916D01F0916E0180818F7DE2
:1007500080838AE291E09A83898302E111E01C821E
:100760001B82E981FA8181909190FA83E9839092CA
:100770005A0180925901F801A191B1918F01B09372
:100780005801A093570120E137E20E948F042B010A
:100790003C016093530170935401809355019093F1
:1007A0005601181419045CF4140135942794C12CD3
:1007B000D12C7601092C000CAA08BB0837C084E6AE
:1007C000C82ED12CC2010E94DD01F1E0CF1AD10860
:1007D000C9F788EE93E00E94DD018B819C810E9425
:1007E000620282E491E00E94E801809157019091B9
:1007F00058010E94620284E491E00E94E801809125
:10080000590190915A010E94620284E491E00E9491
:10081000E8016091530170915401809155019091CC
:10082000560197FF1BC00E943B021BC0C414D50495
:10083000E604F70474F661E089E00E949101C101C9
:100840000E94DD0160E089E00E949101C1010E94E7
:10085000DD01C80CD91CEA1CFB1CE8CF4AE00E9451
:10086000FA0186E491E00E94E8018B819C81019667
:100870009C838B830C9709F074CF0E94870169CF0A
:10088000EBE5F1E01382128288EE93E0A0E0B0E0A5
:1008900084839583A683B78384E091E091838083EA
:1008A00085EC90E09587848784EC90E09787868735
:1008B00080EC90E0918B808B81EC90E0938B828B2D
:1008C00082EC90E0958B848B86EC90E0978B868B06
:1008D000118E128E138E148E0895A1E21A2EAA1B69
:1008E000BB1BFD010DC0AA1FBB1FEE1FFF1FA217E0
:1008F000B307E407F50720F0A21BB30BE40BF50BDD
:10090000661F771F881F991F1A9469F76095709565
:10091000809590959B01AC01BD01CF0108950E9487
:100920009C04B7FF0895821B930B0895EE0FFF1FE1
:100930000590F491E02D0994A29FB001B39FC001EE
:10094000A39F700D811D1124911DB29F700D811DFB
:100950001124911D089581E090E0F8940C94B00466
:04096000F894FFCF39
:10096400000000001E018700B6006501E700C50015
:10097400D90010001000100008000800100020002A
:10098400100010001000080008007807EC07F609B2
:100994007807EC07DE0B00007807F60EF609E0088E
:0A09A40078073A0020000D0A000059
:00000001FF
