:020000040000FA
:060000008A110A12052816
:1000080009009820AD208316031307138717DD30E6
:10001800F2000130F300E930F7000030F8008312F5
:100028000313C620DD30A7000130A8000130A0006E
:1000380042200130A1000130A0006420C830F20045
:10004800F301342079202208A300230A0319312858
:100058002308A5000130A0008F202628630032283D
:10006800F30A6C30F1000B30F000F00B3928F10B7B
:100078003728F20B3528F30B3528080027088400A9
:100088008313281883170008A400A40803196328F9
:10009800A90101302402031C6328A90A290827079B
:1000A80084008313281883170008A5008F200130C7
:1000B800F200F301342024082902031C5128080007
:1000C8002108AA00031978280D30A5008F200130D7
:1000D800F200F30134200A30A5008F200130F2002D
:1000E800F3013420AA0B682808000130A0007F2003
:1000F8002508A20008002003031D8E28FF30A50054
:100108008C1E84288C1E8A281A08A500981C8E2804
:100118001812181608002003031D97280C1E922891
:100128002508990008000800831603139F138312FB
:1001380003131F10831603178801890183120317FD
:1001480088138713831203138501860187018901A8
:1001580008000130A0009F30831603139900013076
:100168009A00831603178715831603131815181298
:1001780083120313981718168316031398168312FD
:100188000313080072088400831373188317E2208E
:10019800F5008000F207D9287208840083137318C9
:1001A8008317E220F500F607F207F508031908009F
:1001B800E220840A8000F50BDC28080078088A0011
:1001C8007708F70A0319F80A8200103453346534A3
:1001D8007234693461346C3420344534633468349F
:0C01E8006F3420345434653473347434A4
:04400E00D22FFF3F6F
:00000001FF
