:100000000C945D000C9485000C9485000C94850084
:100010000C9485000C9485000C9485000C9485004C
:100020000C9485000C9485000C9485000C9485003C
:100030000C9485000C9485000C9485000C9485002C
:100040000C94E4010C9485000C9454020C942E0240
:100050000C9485000C9485000C9485000C9485000C
:100060000C9485000C94850000000008000201003B
:100070000003040700000000000000000000000072
:10008000250028002B0000000000240027002A0083
:10009000040404040404040402020202020203032E
:1000A0000303030301020408102040800102040836
:1000B0001020010204081020610311241FBECFEF9D
:1000C000D8E0DEBFCDBF11E0A0E0B1E0E6E3F7E0AD
:1000D00002C005900D92A031B107D9F721E0A0E14F
:1000E000B1E001C01D92A63BB207E1F710E0CDE5FB
:1000F000D0E004C02197FE010E948E03CC35D107C9
:10010000C9F70E9486020C9499030C940000EDEA52
:10011000F0E02491E9E9F0E08491882399F090E0FF
:10012000880F991FFC01EA57FF4FA591B491FC017C
:10013000E458FF4F859194918FB7F894EC91E22B9E
:10014000EC938FBF0895E1E7F0E02491EDEAF0E051
:100150009491E9E9F0E0E491EE2309F43BC0222315
:1001600039F1233091F038F42130A9F0223001F533
:1001700024B52F7D12C0273091F02830A1F0243013
:10018000B9F4209180002F7D03C0209180002F774B
:10019000209380000DC024B52F7724BD09C0209185
:1001A000B0002F7703C02091B0002F7D2093B000C6
:1001B000F0E0EE0FFF1FE458FF4FA591B4912FB769
:1001C000F894EC91811103C090959E2301C09E2B61
:1001D0009C932FBF0895CF92DF92EF92FF920F93DF
:1001E0001F93CF93DF936C017A018B01C0E0D0E0C5
:1001F000CE15DF0589F0D8016D918D01D601ED9105
:10020000FC910190F081E02DC6010995892B11F434
:100210007E0102C02196ECCFC701DF91CF911F91E3
:100220000F91FF90EF90DF90CF900895FC01918D9A
:10023000828D981761F0828DDF01A80FB11D5D9648
:100240008C91928D9F5F9F73928F90E008958FEFB6
:100250009FEF0895FC01918D828D981731F0828D6A
:10026000E80FF11D858D90E008958FEF9FEF0895C1
:10027000FC01918D228D892F90E0805C9F4F821B25
:1002800091098F739927089580E191E00E943801C8
:1002900021E0892B09F420E0822F0895FC01848D50
:1002A000DF01A80FB11DA35ABF4F2C91848D90E0A0
:1002B00001968F739927848FA689B7892C93A0897B
:1002C000B1898C9180648C93938D848D981306C032
:1002D0000288F389E02D80818F7D80830895EF92DD
:1002E000FF920F931F93CF93DF93EC0181E0888FF0
:1002F0009B8D8C8D981305C0E889F989808185FDD7
:1003000024C0F62E0B8D10E00F5F1F4F0F731127C7
:10031000E02E8C8DE8120CC00FB607FCFACFE889EE
:10032000F989808185FFF5CFCE010E944E01F1CF82
:100330008B8DFE01E80FF11DE35AFF4FF0820B8F0A
:10034000EA89FB898081806207C0EE89FF8960832A
:10035000E889F98980818064808381E090E0DF9181
:10036000CF911F910F91FF90EF900895CF93DF935E
:10037000EC01888D8823C9F0EA89FB89808185FD9D
:1003800005C0A889B9898C9186FD0FC00FB607FCFE
:10039000F5CF808185FFF2CFA889B9898C9185FF3F
:1003A000EDCFCE010E944E01E7CFDF91CF910895AE
:1003B00080E090E0892B29F00E94440181110C9487
:1003C000000008950E9494031F920F920FB60F929F
:1003D00011242F933F938F939F93AF93BF9380915B
:1003E000B2019091B301A091B401B091B5013091E7
:1003F000B10123E0230F2D3720F40196A11DB11D7B
:1004000005C026E8230F0296A11DB11D2093B1015E
:100410008093B2019093B301A093B401B093B5015E
:100420008091AD019091AE01A091AF01B091B0016A
:100430000196A11DB11D8093AD019093AE01A093D3
:10044000AF01B093B001BF91AF919F918F913F9158
:100450002F910F900FBE0F901F9018951F920F9223
:100460000FB60F9211242F933F934F935F936F9387
:100470007F938F939F93AF93BF93EF93FF9380E10D
:1004800091E00E944E01FF91EF91BF91AF919F913A
:100490008F917F916F915F914F913F912F910F902D
:1004A0000FBE0F901F9018951F920F920FB60F92CC
:1004B00011242F938F939F93EF93FF93E09120014B
:1004C000F09121018081E0912601F091270182FDC8
:1004D00012C09081809129018F5F8F7320912A0132
:1004E000821751F0E0912901F0E0E05FFE4F958F17
:1004F0008093290101C08081FF91EF919F918F919D
:100500002F910F900FBE0F901F901895789484B57F
:10051000826084BD84B5816084BD85B5826085BDFF
:1005200085B5816085BD80916E00816080936E008D
:10053000109281008091810082608093810080917F
:100540008100816080938100809180008160809330
:1005500080008091B10084608093B1008091B000F0
:1005600081608093B00080917A00846080937A00EB
:1005700080917A00826080937A0080917A00816015
:1005800080937A0080917A00806880937A0010923C
:10059000C100E0912001F091210182E08083E0918F
:1005A0001C01F0911D011082E0911E01F0911F01CC
:1005B0008FEC808310922801E0912401F0912501B5
:1005C00086E08083E0912201F091230180818061A7
:1005D0008083E0912201F0912301808188608083F3
:1005E000E0912201F0912301808180688083E09175
:1005F0002201F091230180818F7D80830E948700FA
:1006000001E710E080E191E00E943801892B09F4B4
:1006100055C080E191E00E941601EC01DD270E94A7
:100620008700209711F480E004C0CF3FD10521F46A
:1006300081E00E94A30042C0F80184918330F9F068
:1006400048F48130B9F08230A1F584B5806284BD70
:10065000C8BD34C08730E9F0883019F1843049F5DD
:1006600080918000806280938000D0938B00C09343
:100670008A0024C084B5806884BDC7BD1FC0809136
:100680008000806880938000D0938900C0938800A8
:1006900015C08091B00080688093B000C093B30013
:1006A0000DC08091B00080628093B000C093B40010
:1006B00005C0C038D1050CF0BBCFB5CF0E94D80122
:1006C000A1CFE0E1F1E01382128288EE93E0A0E096
:1006D000B0E084839583A683B78384E091E091831F
:1006E000808385EC90E09587848784EC90E0978701
:1006F000868780EC90E0918B808B81EC90E0938BEF
:10070000828B82EC90E0958B848B86EC90E0978BCB
:10071000868B118E128E138E148E0895EE0FFF1F8E
:100720000590F491E02D099481E090E0F8940C9408
:060730009903F894FFCFCD
:10073600000000006F01EB00380116012A01B60126
:00000001FF
