:100000000C9482050C94AA050C94AA050C94AA05DC
:100010000C94AA050C94AA050C94AA050C94AA05A4
:100020000C94AA050C94AA050C94AA050C94AA0594
:100030000C94AA050C94AA050C94AA050C94AA0584
:100040000C941C180C94AA050C94F10C0C94CB0C79
:100050000C94AA050C94AA050C94AA050C94AA0564
:100060000C94910D0C94AA05DB40A4A62EAFDA02E5
:1000700081DA1281DA02818F2000A1C8D300408D7D
:10008000AED580A800006000000000000000000065
:100090000000000000E00000000000000000000080
:1000A00000000001E000000000000000000000006F
:1000B000000001F00000000000000000000000004F
:1000C0000003F0000000000000000000000000003D
:1000D00007F0000000000000000000000000000722
:1000E000F8000000000000000000000000000FF811
:1000F00000000003C0007E000001E0007F0FF80058
:10010000000003C000FE000001E000FFEFF8000067
:100110000003C000FE000001E000FFFFF800000047
:1001200003C000F00000000F007FFE7FC00000034E
:10013000C000F00000000F003FFE7FF83FF1FBCF52
:10014000FCFEF3BC3DEFE01FFE7FFF7FFBFFDFFE09
:10015000FEFFBC3DEFE01FC6FFFF7FFBFFDFFEFEA3
:10016000FFBC3DEFE00FE3C7FE787BC3DE1EF0FF70
:10017000BC3DEF0007FF87FC787BC3DE1EF0F83C38
:100180003DEF0001FFFFF0007BC3C01EF0F03C3DDF
:10019000EF0001F37FE03FFBC3CFFEF0F03C3DEF0B
:1001A0000003E33F807FFBC3DFFEF0F03C3DEF0048
:1001B00007E73C00787BC3DE1EF0F03C3DEF000714
:1001C000FFBE00787BC3DE1EF0F03C3DEF0007FF72
:1001D000FE00787BC3DE1EF0F03C3DEF000FFFFE1B
:1001E000007FFBFFDFFEF0F03FFDEFE00FFFFF00C1
:1001F0007FFBFFDFFEF0F03FFDEFE00FF9FF003E79
:1002000079F9CF9EF0F01F3DE7E01FF1FF000000FD
:100210000000000000000000001F80FF007FFFFFC3
:10022000FFFFFFFFFFFFFFE01C007F007FFFFFFFDE
:10023000FEB46D888D18E000001F007FFFFFFFFEF9
:1002400095AD7DB577E000000F007FFFFFFFFEA5B5
:10025000AD9D8D19E0000006007FFFFFFFFEB5ADEC
:10026000EDB57EE00000000000018000000000000D
:1002700000000000038000000000000000000007F4
:10028000C000000000000000000007C000000000E7
:1002900000000000000FC00000000000000000008F
:1002A0001FE00000000000000000001FE000000050
:1002B0000000000000003FE000000000000000001F
:1002C000003FF00000000000000000007FF0000090
:1002D00000000000001FF87FF00000000000000098
:1002E0003FFE7FF0000000000000003FFF7FF000B5
:1002F0000000000000001FFFFBE000000000000005
:10030000000FFFF9FFC00000000000000FFFF9FF21
:10031000F800000000000007FFF1FFFF00000000F0
:10032000000003FC73FFFF80000000000001FE3F9F
:10033000FFFF80000000000000FF1E0FFF00000014
:10034000000000007FFE1FFC000000000000003FD6
:10035000FFFFF8000000000000000FDFFFE00000DA
:1003600000000000001F19FFC00000000000000096
:100370003F3CFF00000000000000007E7CF8000011
:100380000000000000007FFE7C0000000000000074
:1003900000FFFFFC0000000000000000FFFFFE0067
:1003A00000000000000000FFFFFE00000000000051
:1003B0000001FFEFFE0000000000000001FFCFFE83
:1003C0000000000000000003FF07FE000000000026
:1003D000000003FC07FE0000000000000003F00323
:1003E000FE00000000000000018000FE0000000090
:1003F0000000000000007E0000000000000000007F
:10040000003E000000000000000000000C000000A2
:10041000000000078000FC000003C000000007800F
:1004200001FC000003C0000000078001FC00000385
:10043000C0000000078001E00000001E000000076F
:100440008001E00000001E007FE3F79FF9FDE778E0
:100450007BDFC0FFF7FFBFFDFDFF787BDFC0FFF74D
:10046000FFBFFDFDFF787BDFC0F0F787BC3DE1FFFC
:10047000787BDE00F0F787BC3DE1F0787BDE0000A2
:10048000F787803DE1E0787BDE007FF7879FFDE125
:10049000E0787BDE00FFF787BFFDE1E0787BDE00E0
:1004A000F0F787BC3DE1E0787BDE00F0F787BC3DEC
:1004B000E1E0787BDE00F0F787BC3DE1E0787BDEB1
:1004C00000FFF7FFBFFDE1E07FFBDFC0FFF7FFBFED
:1004D000FDE1E07FFBDFC07CF3F39F3DE1E03E7B8D
:1004E000CFC00000000000000000000000FFFFFF80
:1004F000FFFFFFFFFFFFFFC0FFFFFFFFFD68DB11F6
:100500001A31C0FFFFFFFFFD2B5AFB6AEFC0FFFF50
:10051000FFFFFD4B5B3B1A33C0FFFFFFFFFD6B5B33
:10052000DB6AFDC030780048656C6C6F2C20776FFB
:10053000726C64210000FF2F260000FF2F270001AE
:100540002F2900A300012F2A00A3007363726F6C90
:100550006C002064793A200020793A2000783A2013
:100560000000C001C001C003E0F3E0FEF87EFF33ED
:100570009F1FFC0D701BA03FE03FF07CF0707000EF
:10058000305353443133303620616C6C6F63617487
:10059000696F6E206661696C6564002200FF21004E
:1005A0000000000800020100000304070000000032
:1005B00000000000000103070F1F3F7F0080C0E024
:1005C000F0F8FCFE00000000250028002B000000D1
:1005D0000000240027002A00040404040404040486
:1005E00002020202020203030303030301020408DE
:1005F000102040800102040810200102040810208D
:1006000000000000003E5B4F5B3E3E6B4F6B3E1CAC
:100610003E7C3E1C183C7E3C181C577D571C1C5EC3
:100620007F5E1C00183C1800FFE7C3E7FF0018249A
:100630001800FFE7DBE7FF30483A060E2629792944
:1006400026407F050507407F05253F5A3CE73C5A79
:100650007F3E1C1C08081C1C3E7F14227F22145F56
:100660005F005F5F06097F017F006689956A6060B1
:1006700060606094A2FFA29408047E040810207EAB
:10068000201008082A1C08081C2A08081E10101030
:10069000100C1E0C1E0C30383E3830060E3E0E0676
:1006A000000000000000005F0000000700070014C9
:1006B0007F147F14242A7F2A122313086462364988
:1006C0005620500008070300001C22410000412270
:1006D0001C002A1C7F1C2A08083E08080080703075
:1006E00000080808080800006060002010080402E4
:1006F0003E5149453E00427F4000724949494621EA
:1007000041494D331814127F1027454545393C4A5D
:100710004949314121110907364949493646494974
:10072000291E0000140000004034000000081422BC
:10073000411414141414004122140802015909062A
:100740003E415D594E7C1211127C7F494949363E2B
:10075000414141227F4141413E7F494949417F0911
:100760000909013E414151737F0808087F00417F1C
:1007700041002040413F017F081422417F4040401A
:10078000407F021C027F7F0408107F3E4141413EB2
:100790007F090909063E4151215E7F091929462634
:1007A0004949493203017F01033F4040403F1F2038
:1007B00040201F3F4038403F63140814630304780F
:1007C00004036159494D43007F414141020408102F
:1007D00020004141417F040201020440404040406A
:1007E000000307080020545478407F2844443838D8
:1007F00044444428384444287F385454541800084A
:100800007E090218A4A49C787F0804047800447D23
:1008100040002040403D007F1028440000417F40C0
:10082000007C047804787C08040478384444443814
:10083000FC1824241818242418FC7C0804040848F4
:100840005454542404043F44243C4040207C1C2045
:1008500040201C3C4030403C44281028444C9090A0
:10086000907C4464544C44000836410000007700FA
:1008700000004136080002010204023C2623263C07
:100880001EA1A161123A4040207A38545455592192
:10089000555579412254547842215554784020547A
:1008A0005579400C1E5272123955555559395454C8
:1008B000545939555454580000457C410002457D37
:1008C000420001457C407D1211127DF0282528F060
:1008D0007C545545002054547C547C0A097F49328D
:1008E000494949323A4444443A324A4848303A4104
:1008F00041217A3A42402078009DA0A07D3D4242AD
:10090000423D3D4040403D3C24FF2424487E494335
:10091000662B2FFC2F2BFF0929F620C0887E0903A8
:1009200020545479410000447D413048484A3238CF
:100930004040227A007A0A0A727D0D19317D2629FB
:10094000292F28262929292630484D4020380808F3
:10095000080808080808382F10C8ACBA2F10283427
:10096000FA00007B000008142A142222142A14081A
:100970005500550055AA55AA55AAFF55FF55FF0029
:100980000000FF00101010FF00141414FF001010DE
:10099000FF00FF1010F010F0141414FC001414F7F2
:1009A00000FF0000FF00FF1414F404FC14141710DF
:1009B0001F10101F101F1414141F00101010F0002F
:1009C0000000001F101010101F10101010F0100069
:1009D0000000FF101010101010101010FF10000079
:1009E00000FF140000FF00FF00001F10170000FCB4
:1009F00004F414141710171414F404F40000FF0086
:100A0000F714141414141414F700F714141417140E
:100A100010101F101F141414F4141010F010F00014
:100A2000001F101F0000001F14000000FC14000035
:100A3000F010F01010FF10FF141414FF1410101019
:100A40001F00000000F010FFFFFFFFFFF0F0F0F0CC
:100A5000F0FFFFFF0000000000FFFF0F0F0F0F0F60
:100A60003844443844FC4A4A4A347E0202060602AC
:100A70007E027E0263554941633844443C04407E13
:100A8000201E2006027E020299A5E7A5991C2A498C
:100A90002A1C4C7201724C304A4D4D303048784817
:100AA00030BC625A463D3E494949007E0101017E03
:100AB0002A2A2A2A2A44445F444440514A44404056
:100AC000444A51400000FF0103E080FF0000080895
:100AD0006B6B083612362436060F090F0600001815
:100AE000180000001010003040FF0101001F01013C
:100AF0001E00191D1712003C3C3C3C000000000089
:100B00008425752511241FBECFEFD8E0DEBFCDBFF1
:100B100011E0A0E0B1E0E6EBF0E502C005900D9237
:100B2000AE35B107D9F723E0AEE5B1E001C01D92C3
:100B3000A830B207E1F715E0C1E8D5E004C021977D
:100B4000FE010E941B27C038D107C9F70E94661812
:100B50000C944E280C940000CF92DF92EF92FF92FB
:100B60000F931F93CF93DF936C017A018B01C0E049
:100B7000D0E0CE15DF0581F0D8016D918D01D60151
:100B8000ED91FC910190F081E02DC6010995892B32
:100B900011F02196EECF7E01C701DF91CF911F9119
:100BA0000F91FF90EF90DF90CF900895FC01538D4F
:100BB000448D252F30E0842F90E0821B930B541737
:100BC00010F0CF96089501970895FC01918D828DC4
:100BD000981761F0828DDF01A80FB11D5D968C9191
:100BE000928D9F5F9F73928F90E008958FEF9FEF9C
:100BF0000895FC01918D828D981731F0828DE80F58
:100C0000F11D858D90E008958FEF9FEF0895FC0111
:100C1000918D228D892F90E0805C9F4F821B9109DE
:100C20008F739927089583E192E00E94070621E0DF
:100C3000892B09F420E0822F0895FC01848DDF01C7
:100C4000A80FB11DA35ABF4F2C91848D90E001963F
:100C50008F739927848FA689B7892C93A089B1892E
:100C60008C91837080648C93938D848D981306C0CF
:100C70000288F389E02D80818F7D80830895EF9233
:100C8000FF920F931F93CF93DF93EC0181E0888F46
:100C90009B8D8C8D981305C0E889F989808185FD2D
:100CA00026C0F62E0B8D10E00F5F1F4F0F7311271C
:100CB000E02E8C8DE8120CC00FB607FCFACFE88945
:100CC000F989808185FFF5CFCE010E941D06F1CF05
:100CD0008B8DFE01E80FF11DE35AFF4FF0829FB7A5
:100CE000F8940B8FEA89FB89808180620AC09FB7E4
:100CF000F894EE89FF896083E889F989808183709F
:100D0000806480839FBF81E090E0DF91CF911F914D
:100D10000F91FF90EF900895CF93DF93EC01888DB2
:100D20008823C9F0EA89FB89808185FD05C0A889EF
:100D3000B9898C9186FD0FC00FB607FCF5CF808175
:100D400085FFF2CFA889B9898C9185FFEDCFCE01BF
:100D50000E941D06E7CFDF91CF91089580E090E0DB
:100D6000892B29F00E94130681110C94000008952C
:100D7000FC0177FDB9C080859185681779070CF073
:100D8000B3C057FDB1C082859385481759070CF051
:100D900008958689823079F484819581DC01A61BCF
:100DA000B70BBD016150710986819781DC01A41BDD
:100DB000B50BAD010EC0833009F084C064277527E0
:100DC000CA01862797276827792746815781481BBC
:100DD000590B415051092130310531F048F1223091
:100DE000310509F44AC00895CA0157FD07969C01D0
:100DF000A3E035952795AA95E1F7A481B5812A9FAF
:100E0000C0012B9F900D3A9F900D1124680F791F00
:100E1000078CF0A1E02DE60FF71F4770552781E002
:100E200090E001C0880F4A95EAF79081892B48C06D
:100E3000CA0157FD07969C0193E0359527959A9531
:100E4000E1F7A481B5812A9FC0012B9F900D3A9FA5
:100E5000900D1124680F791F078CF0A1E02DE60F8B
:100E6000F71F4770552781E090E001C0880F4A9531
:100E7000EAF780959081892323C0CA0157FD079620
:100E80009C0183E0359527958A95E1F7A481B5818A
:100E90002A9FC0012B9F900D3A9F900D1124680F3F
:100EA000791F078CF0A1E02DE60FF71F477055273B
:100EB00081E090E001C0880F4A95EAF79081892788
:100EC00080830895813009F086CF642775274627EF
:100ED00057276427752784819581DC01A61BB70BF2
:100EE000BD016150710977CF08950895FC016370C9
:100EF000668B8481958126813781613039F063303A
:100F000029F091878087338722870895318720874A
:100F10009387828708956F927F928F929F92AF926C
:100F2000BF92CF92DF92EF92FF920F931F93CF93D6
:100F3000DF93EC014B015A0169013801E881F98125
:100F40000284F385E02D0995E881F9810288F3890F
:100F5000E02D87019601A501B401CE010995A501F7
:100F6000460D571D41505109E881F9810288F389E6
:100F7000E02D9601B401CE010995E881F981008840
:100F8000F189E02D9301A501B401CE010995C80CAA
:100F9000D91CB60161507109E881F9810088F18995
:100FA000E02D9301A501CE010995E881F98106881C
:100FB000F789E02DCE01DF91CF911F910F91FF9026
:100FC000EF90DF90CF90BF90AF909F908F907F90E9
:100FD0006F9009948F929F92AF92BF92CF92DF92BF
:100FE000EF92FF920F931F93CF93DF934C016B010E
:100FF0005A01E901DC01ED91FC916217730781F45C
:101000000417150724F48B2D5801042F182F0A19E3
:101010001B0998012F5F3F4F048CF58DE02D12C006
:101020004017510709F52617370724F48D2D69015C
:10103000C62FD82F9E012C193D092F5F3F4F068CDC
:10104000F78DE02D8701A501B601C4010995DF9157
:10105000CF911F910F91FF90EF90DF90CF90BF90B5
:10106000AF909F908F9008950284F385E02D0995AD
:10107000D401ED91FC910488F589E02D9E01A50134
:10108000B601C4010995D401ED91FC910688F78958
:10109000E02DC401DF91CF911F910F91FF90EF9050
:1010A000DF90CF90BF90AF909F908F900994EF9278
:1010B000FF920F931F93DC011A960D911C911B97C1
:1010C00018962D913C911997ED91FC9100A0F1A1FA
:1010D000E02D7B0140E050E060E070E009951F9159
:1010E0000F91FF90EF9008954F925F926F927F92D1
:1010F0008F929F92AF92BF92CF92DF92EF92FF9228
:101100000F931F93CF93DF936C012B015A01390189
:101110004801DC01ED91FC910284F385E02D0995F5
:10112000E201640C751CD601ED91FC91C615D70542
:101130005CF40088F189E02D87019401A501BE01CE
:10114000C60109952196EFCF0688F789E02DC601E3
:10115000DF91CF911F910F91FF90EF90DF90CF9093
:10116000BF90AF909F908F907F906F905F904F90C7
:1011700009948F929F92AF92BF92CF92DF92EF929B
:10118000FF920F931F93CF93DF93EC015B014A0112
:101190006901E881F9810284F385E02D09959501C3
:1011A0002C0D3D1D21503109E881F9810488F58914
:1011B000E02D78018401A401B501CE010995E881F3
:1011C000F9810688F789E02DCE01DF91CF911F913B
:1011D0000F91FF90EF90DF90CF90BF90AF909F90D6
:1011E0008F9009948F929F92AF92BF92CF92DF928D
:1011F000EF92FF920F931F93CF93DF93EC015B016C
:101200004A0169017801E881F9810284F385E02DC2
:101210000995C80CD91C860101501109E881F98192
:101220000488F589E02D9501A401B501CE01099549
:10123000E881F9810688F789E02DCE01DF91CF9111
:101240001F910F91FF90EF90DF90CF90BF90AF90E4
:101250009F908F9009940895EF92FF920F931F93A0
:10126000DC01ED91FC9100A0F1A1E02D09951F9109
:101270000F91FF90EF9008950F931F93DC01ED9174
:10128000FC91068CF78DE02D09951F910F91089523
:101290000F931F93DC01ED91FC91048CF58DE02DF3
:1012A00009951F910F910895DC01ED91FC91008447
:1012B000F185E02D09942F923F924F925F926F92A9
:1012C0007F928F929F92AF92BF92CF92DF92EF92D6
:1012D000FF920F931F93CF93DF9300D000D000D0E5
:1012E000CDB7DEB72C017E836D836A015901C80139
:1012F000FC82EB824801841A950A97FE03C0919400
:101300008194910835012D813E81621A730A77FE1E
:1013100003C0719461947108681479045CF43A2DE7
:101320002B2D5C01832F922F3D812E81DE82CD8279
:10133000C32ED22EAD81BE81AA16BB065CF43C2D15
:101340002D2D6C01832F922F3D812E81BE82AD8287
:10135000A32EB22E85012D813E81021B130B1C0191
:101360002C183D0837FE03C03194219431087801D0
:1013700017FF03C03FEFE31AF30AF594E794C8168A
:10138000D9062CF08FEF9FEF9A83898304C0A1E0E8
:10139000B0E0BA83A9832D813E81A216B30624F161
:1013A000D201ED91FC910484F585E02D2B813C81E7
:1013B0006814790424F44D815E81B60103C0A6014E
:1013C0006D817E81C2010995E218F308F7FE06C01F
:1013D00029813A81C20ED31EE00EF11E8D819E81BD
:1013E00001969E838D83D7CF26960FB6F894DEBFE5
:1013F0000FBECDBFDF91CF911F910F91FF90EF9066
:10140000DF90CF90BF90AF909F908F907F906F9024
:101410005F904F903F902F90089585ED8093BC0092
:101420008091BC0084FDFCCF1092EE0108954091A4
:10143000A501262F30E0240F311D21323105DCF4C7
:101440002091EE012430C9F4FC0180E090E0861781
:1014500058F43091A5012191DC01AB57BE4FA30F89
:10146000B11D2C930196F3CF8091A501680F609375
:10147000A50180E0089581E0089582E0089508952F
:101480000895E091630180916201E81730F4F0E083
:10149000EB59FE4F808190E008958FEF9FEF089504
:1014A0009091630180916201981750F4E92FF0E068
:1014B000EB59FE4F208130E09F5F9093630102C0A3
:1014C0002FEF3FEFC90108958091620190E02091D4
:1014D0006301821B91090895CF92DF92EF92FF92F0
:1014E0000F931F93CF93DF937C01CB018A0120914F
:1014F000EF01222389F0EB016B01C40ED51ECC1540
:10150000DD0569F06991D701ED91FC910190F081C1
:10151000E02DC7010995F3CF642F0E94170AC80177
:10152000DF91CF911F910F91FF90EF90DF90CF90BF
:101530000895CF93DF931F92CDB7DEB769832091D3
:10154000EF012223D1F020911202203240F021E05D
:1015500030E0FC013383228380E090E015C080916D
:10156000F001E82FF0E0EF50FE4F998190838F5FFC
:101570008093F0018093120205C061E0CE010196D4
:101580000E94170A81E090E00F90DF91CF910895BB
:10159000089580E090E008950E9442280F931F93E1
:1015A000CF93DF93DC015696EC915697E23071F0C1
:1015B000E330E9F0E13079F5FB0114960D90BC9130
:1015C000A02DA41BB50BA21BB30B18C0EC01EC8122
:1015D000FD81E61BF70BBF0161507109EE81FF81B0
:1015E000DF01A41BB50BAD01421B530B14C0DA0184
:1015F000EC01EE81FF81E61BF70B3197F7FD0DC083
:10160000EC014E815F81E417F5073CF4AF01BD01A9
:101610000E94791602C00E94E016DF91CF911F91BF
:101620000F9108950F931F93DC015696EC915697F6
:10163000E23061F0E33009F1E13081F51496ED918B
:10164000FC911597E41BF50B319723C0DC01149630
:10165000ED91FC911597DF01A61BB70BBD01DC01D5
:101660001696ED91FC911797DF01A41BB50BAD0108
:1016700041505109621B730B11C0FA01DC0116962F
:101680004D915C911797DA01A61BB70BBD01621B48
:10169000730BAB01BF010E94E0160CC057FD0AC0DE
:1016A000DC011696ED91FC9117974E175F0714F425
:1016B0000E9479161F910F9108958F929F92AF9279
:1016C000CF92EF92FF920F931F93CF93DF93EC0192
:1016D000262F898D9A8D009709F042C06A3059F4FF
:1016E0001D861C862D898E859F8538E0239F800D61
:1016F000911D112443C06D3009F4AAC08F8988233D
:10170000C9F03C898C859D8546E0349F800D911DF4
:101710001124488559854817590764F41D861C868D
:101720003D898E859F8548E0349F800D911D112451
:101730009F878E87EA88FB88088919894E855F858F
:101740006C857D85AD88CC88CE010E9426142C89BD
:101750008C859D8536E0239F800D911D11243EC010
:101760006A3079F41D861C862D89FC013696E49139
:101770008E859F852E9F800D911D11249F878E87BA
:1017800067C06D3009F464C0FC013496349163176E
:1017900008F45EC03196E491E61708F459C0462F6C
:1017A000431B342FFC0132968590949047E0349F80
:1017B000800C911C1124F401329634913196E491FD
:1017C000332311F0E1110DC0F4013496E4912C891A
:1017D0008C859D85E29F800D911D11249D878C87AE
:1017E00037C0F401359644915F89552319F15C891E
:1017F000E32FF0E0E40FF11D47FDFA955E9FB00185
:101800005F9F700D11244C855D85460F571F6885BD
:1018100079856417750774F41D861C863D89FC0163
:101820003696E4918E859F853E9F800D911D1124F3
:101830009F878E87EA88FB88088919894E855F858E
:101840006C857D85AD88CC88CE010E942614BCCFE6
:1018500081E090E0DF91CF911F910F91FF90EF9089
:10186000CF90AF909F908F900895EF92FF920F933B
:101870001F93CF93DF938C017B01C0E0D0E0F70191
:10188000EC0FFD1F6491662361F0D801ED91FC918E
:101890000190F081E02DC8010995892B11F0219666
:1018A000EECFCE01DF91CF911F910F91FF90EF907E
:1018B00008956115710579F0FB0101900020E9F7A9
:1018C0003197AF01461B570BDC01ED91FC91028073
:1018D000F381E02D099480E090E008958F929F922B
:1018E000AF92BF92EF92FF920F931F93CF93DF932C
:1018F000CDB7DEB7A1970FB6F894DEBF0FBECDBF50
:101900007C01FA01CB0119A2223008F42AE08E01F1
:101910000F5D1F4F822E912CA12CB12CBF01A50170
:1019200094010E94DB26F901CA01015011096A30B5
:1019300014F4605D01C0695CD8016C93232B242BE7
:10194000252B61F7B801C7010E94590CA1960FB66B
:10195000F894DEBF0FBECDBFDF91CF911F910F91E5
:10196000FF90EF90BF90AF909F908F9008950F934E
:101970001F93CF93DF93EC010E94350C8C016AE535
:1019800071E0CE010E94590C800F911FDF91CF9121
:101990001F910F9108951F920F920FB60F9211246D
:1019A0002F933F934F935F936F937F938F939F9367
:1019B000AF93BF93EF93FF9383E192E00E941D06E4
:1019C000FF91EF91BF91AF919F918F917F916F9117
:1019D0005F914F913F912F910F900FBE0F901F90ED
:1019E00018951F920F920FB60F9211242F938F9379
:1019F0009F93EF93FF93E0912302F0912402808163
:101A0000E0912902F0912A0282FD12C0908180911A
:101A10002C028F5F8F7320912D02821751F0E0917D
:101A20002C02F0E0ED5EFD4F958F80932C0201C0FB
:101A30008081FF91EF919F918F912F910F900FBE19
:101A40000F901F90189508958EBD00000DB407FEED
:101A5000FDCF8EB508951F93CF93DF93FC01858D45
:101A6000968D009729F1162FEF0121A131E03093D7
:101A7000EF01209311021092F00110921202DC018A
:101A8000ED91FC910190F081E02D60E009958D8D44
:101A90009E8DDC01ED91FC910190F081E02D612F94
:101AA00009958D8D9E8DDF91CF911F910C94110F13
:101AB000A5A5B6A59C9183A9809589238C93838D38
:101AC000948D892B31F0862FDF91CF911F910C944B
:101AD000240D28E030E080E8A1A5B2A591A9462F09
:101AE000482319F04C91942B03C04C91909594236A
:101AF0009C93A3A5B4A54C9192A9942B9C93A3A5C8
:101B0000B4A54C9192A9909594239C9386952150CD
:101B1000310911F7DF91CF911F9108958CBD9DBDC3
:101B200008951F920F920FB60F9211242F933F9397
:101B30004F935F936F937F938F939F93AF93BF93D5
:101B4000EF93FF938091B900887F803609F49CC0A1
:101B500068F5883209F45BC090F4803109F454C010
:101B600038F4882309F4F6C0883009F44DC0F6C073
:101B7000883109F44CC0803209F45DC0EFC0803474
:101B800009F468C048F4803309F455C0883309F07B
:101B9000E5C08093EC01D8C0803509F44FC088358A
:101BA00009F45DC0883409F0D9C0D6C0883909F479
:101BB000C7C0A8F4883709F467C038F4883609F438
:101BC00063C0803709F460C0C9C0883809F4B8C060
:101BD000803909F45FC0803809F0C0C05BC0803B29
:101BE00009F486C038F4803A09F466C0883A09F4EA
:101BF0007FC0B4C0803C09F4A7C0883C09F4A4C0ED
:101C0000883B09F48AC0AAC08091C90110C0909194
:101C1000EB018091EA01981770F5E091EB0181E00A
:101C20008E0F8093EB01F0E0E653FE4F80818093AE
:101C3000BB0085EC86C08093EC018EC0E091EB0187
:101C400081E08E0F8093EB018091BB00F0E0E653C2
:101C5000FE4F80839091EB018091EA016EC0E0918C
:101C6000EB0181E08E0F8093EB018091BB00F0E0EF
:101C7000E653FE4F80838091ED0181116DC081E0BC
:101C80008093C80184EA61C083E08093EE011092E2
:101C9000C701CFCF8091C701803208F051C0E091D9
:101CA000C70181E08E0F8093C7018091BB00F0E0F7
:101CB000E955FE4F8083BDCF85EC8093BC00109228
:101CC000EE018091C701803230F4E091C701F0E06D
:101CD000E955FE4F10826091C70170E0E0915E010E
:101CE000F0915F0187EA91E009951092C70136C033
:101CF00084E08093EE011092A6011092A501E0917C
:101D00006001F091610109958091A501811105C0E3
:101D100081E08093A50110928501E091A60181E008
:101D20008E0F8093A601F0E0EB57FE4F80818093E9
:101D3000BB009091A6018091A501981708F479CF76
:101D400085E88093BC000AC085EC8093BC001092AB
:101D5000EE0104C01092EC010E940D0AFF91EF9178
:101D6000BF91AF919F918F917F916F915F914F91B3
:101D70003F912F910F900FBE0F901F9018959B01D0
:101D8000AC0160E074E284EF90E00E94DB26DA01AF
:101D9000C9014097A109B109B695A795979587956F
:101DA0008093B80008951F93CF93DF93EC01162F13
:101DB0008D8D9E8D892B39F06FA978AD89AD9AAD47
:101DC0000E94BF0E0FC08B8D9C8D892B21F08DA999
:101DD0009EA90E948E0DEFA5F8A990818CA98095EF
:101DE00089238083111102C066EA01C067EACE012F
:101DF0000E942B0D8D8D9E8D892B49F06BAD7CAD96
:101E00008DAD9EADDF91CF911F910C94BF0EEFA5CC
:101E1000F8A990818CA9892B8083DF91CF911F91A4
:101E2000089530911202313208F04BC08091EE01DA
:101E30008111FCCF9091110222E02093EE0121E06C
:101E40002093ED012FEF2093EC011092EB013093E2
:101E5000EA01E1EFF1E0AAECB1E020E0321721F075
:101E600041914D932F5FFACF1092C9012091C90182
:101E7000990F922B9093C9019091C801913061F410
:101E80001092C8019091C9019093BB009091BC0041
:101E900093FDF8CF95EC01C095EE9093BC00909126
:101EA000EE019230E1F39091EC019F3F79F0809147
:101EB000EC01803241F08091EC01803331F084E01C
:101EC00005C081E003C082E001C083E01092F00110
:101ED000109212021092EF010895DF92EF92FF929A
:101EE0000F931F93CF93DF93D82ED92FC62F8091B6
:101EF000CD029091CE02009709F454C02091D102F6
:101F000031E03093EF01209311021092F001109212
:101F10001202DC01ED91FC910190F081E02D60E076
:101F20000995ED2CFD2E11E0D1E08091CD0290912C
:101F3000CE02CC2371F11032C8F00E94110F8091B3
:101F4000D102D093EF01809311021092F001109210
:101F500012028091CD029091CE02DC01ED91FC91B4
:101F60000190F081E02D60E0099511E08091CD02B3
:101F70009091CE02F7016491DC01ED91FC9101900A
:101F8000F081E02D09951F5FC150BFEFEB1AFB0AEE
:101F9000CCCFDF91CF911F910F91FF90EF90DF9009
:101FA0000C94110FE091DD02F091DE02908180919E
:101FB000E3028095892380830D2D1D2FCC2309F406
:101FC00039C0F80184912091CB023091CC02232BAF
:101FD00031F00E94240DC1500F5F1F4FEFCF28E05A
:101FE00030E040E8E091D902F091DA029091E1020C
:101FF000582F542319F05081952B03C05081909590
:1020000095239083E091DB02F091DC025081909166
:10201000E202952B9083E091DB02F091DC0250818B
:102020009091E20290959523908346952150310935
:10203000C9F6D1CFDF91CF911F910F91FF90EF9013
:10204000DF900895EF92FF920F931F93CF93DF934A
:102050008091CD029091CE02892B59F06091E702D8
:102060007091E8028091E9029091EA020E94BF0E0D
:1020700016C08091CB029091CC02892B31F08091D7
:10208000E5029091E6020E948E0DE091DF02F09150
:10209000E00290818091E40280958923808365E04D
:1020A0008BE995E00E946D0F6091B402615080EB66
:1020B00092E00E942B0D2091B6023091B702C90127
:1020C000079697FD079623E0959587952A95E1F762
:1020D0002091B4023091B502829F8001839F100D40
:1020E000929F100D1124C091CF02D091D002809107
:1020F000CD029091CE020C0F1D1F009709F44CC029
:102100002091D10231E03093EF012093110210921F
:10211000F00110921202DC01ED91FC910190F0812E
:10212000E02D60E40995FF24F394EE24E39480917C
:10213000CD029091CE020C171D0759F1BFE1BF15DA
:10214000D0F40E94110F8091D102E092EF018093B0
:1021500011021092F001109212028091CD02909122
:10216000CE02DC01ED91FC910190F081E02D60E464
:102170000995FF24F3948091CD029091CE0269914C
:10218000DC01ED91FC910190F081E02D0995F39433
:10219000CECF0E94110F41C0E091DD02F091DE022E
:1021A00090818091E302892B80830C171D07A9F190
:1021B00089912091CB023091CC02232B19F00E94FF
:1021C000240DF3CF28E030E040E8E091D902F0910F
:1021D000DA029091E102582F542319F05081952B87
:1021E00003C05081909595239083E091DB02F0919C
:1021F000DC0250819091E202952B9083E091DB020A
:10220000F091DC0250819091E202909595239083A9
:10221000469521503109C9F6C8CF8091CD029091E1
:10222000CE02892B81F06091EB027091EC028091DB
:10223000ED029091EE02DF91CF911F910F91FF90EF
:10224000EF900C94BF0EE091DF02F091E0029081DC
:102250008091E402892B80838091CB029091CC0203
:10226000892B41F0DF91CF911F910F91FF90EF905B
:102270000C94230DDF91CF911F910F91FF90EF9060
:1022800008952091B6023091B702C901079697FDD3
:10229000079623E0959587952A95E1F72091B4025A
:1022A0003091B502829FA001839F500D929F500DE7
:1022B000112460E070E08091CF029091D0020C94E4
:1022C00047282F923F924F925F926F927F928F9208
:1022D0009F92AF92BF92CF92DF92EF92FF920F93B5
:1022E0001F93CF93DF93CDB7DEB728970FB6F8943F
:1022F000DEBF0FBECDBF4C013B0158874F8381E04D
:1023000090E07C01E41AF50ACA0191958195910942
:10231000AC01440F551F5C834B83C80101969A831F
:1023200089831B012C01AF80B884CC24C394D12CA9
:10233000922F91709D8322702E83C60101972F8169
:102340003885821793070CF07AC0F7FC0CC0215037
:10235000310938872F834B815C814E5F5F4F5C83EF
:102360004B83E40EF51EC601880F991F0196E80EF7
:10237000F91E8F8198858C159D0594F19D81992377
:10238000B1F02F813885220F331F49815A81240FE4
:10239000351F02E010E0A3018F819885481B590B7F
:1023A000B4016C0D7D1D80EB92E00E9448099E8176
:1023B0009923B1F02F813885220F331F49815A812B
:1023C000240F351F02E010E0A3018F819885481B80
:1023D000590BB4016C197D0980EB92E00E94480909
:1023E0002F8138852A153B0551F42FEFC21AD20AE6
:1023F00031E0231A310842E0440E511C9ECF3D814A
:10240000332359F002E010E09201A101B4016A0DFA
:102410007B1D80EB92E00E9448094E81411103C070
:10242000AF80B884E2CFB4016A197B0902E010E002
:102430009201A10180EB92E00E944809F1CF289619
:102440000FB6F894DEBF0FBECDBFDF91CF911F91C5
:102450000F91FF90EF90DF90CF90BF90AF909F9043
:102460008F907F906F905F904F903F902F90089546
:102470002F923F924F925F926F927F928F929F9294
:10248000AF92BF92CF92DF92EF92FF920F931F9382
:10249000CF93DF937C016B01EA0181E090E05C0166
:1024A000A41AB50A66247724641A750A660C771C88
:1024B00000E010E088248394912C822F8470582EA1
:1024C000822F8270482E822F8870382E2170222E03
:1024D0000C171D070CF079C0B7FC06C0219782E0ED
:1024E000680E711CA60CB71C0F5F1F4F82E0880E90
:1024F000911CA80CB91C5520C1F021E030E0AE01C0
:102500004C0D5D1DB701600F711F80EB92E00E94C2
:10251000540921E030E0A601400F511FBE016E0DAD
:102520007F1D80EB92E00E9454094420C1F021E01D
:1025300030E0A6014C1B5D0BB701600F711F80EBF3
:1025400092E00E94540921E030E0A601401B510BAB
:10255000BE016E0D7F1D80EB92E00E945409332076
:10256000C1F021E030E0A601400F511FB7016C1B04
:102570007D0B80EB92E00E94540921E030E0AE0137
:102580004C0D5D1DB701601B710B80EB92E00E944A
:102590005409222009F49CCF21E030E0A601401B21
:1025A000510BB7016C1B7D0B80EB92E00E9454092C
:1025B00021E030E0A6014C1B5D0BB701601B710BE5
:1025C00080EB92E00E94540983CFDF91CF911F915D
:1025D0000F91FF90EF90DF90CF90BF90AF909F90C2
:1025E0008F907F906F905F904F903F902F900895C5
:1025F0008091CD029091CE02892B59F06091E70233
:102600007091E8028091E9029091EA020E94BF0E67
:1026100016C08091CB029091CC02892B31F0809131
:10262000E5029091E6020E948E0DE091DF02F091AA
:10263000E00290818091E4028095892380836EE29C
:1026400080EB92E00E942B0D8091CD029091CE0202
:10265000892B51F06091EB027091EC028091ED02B8
:102660009091EE020C94BF0EE091DF02F091E00237
:1026700090818091E402892B80838091CB0290919C
:10268000CC02892B11F00C94230D08953F924F92A8
:102690005F926F927F928F929F92AF92BF92CF92F2
:1026A000DF92EF92FF920F931F93CF93DF93CDB7FB
:1026B000DEB728970FB6F894DEBF0FBECDBF4C0132
:1026C0007E836D832A013901C801079697FD07961D
:1026D0009C0193E0359527959A95E1F73C832B83F0
:1026E000A12CB12CC12CD12C312CC2018C0D9D1DE3
:1026F0009A838983CE14DF04D4F518861F822F8134
:102700003885201731075CF5C90187709927892B17
:1027100011F0330C0EC0EF81F885F7FD379683E09A
:10272000F595E7958A95E1F7EA0DFB1DE60DF71D96
:10273000349037FE0DC021E030E049815A816D812F
:102740007E818F819885680F791FC4010E9454098A
:102750002F8138852F5F3F4F38872F83D0CF3FEFB2
:10276000C31AD30A8B819C81A80EB91EBECF2896AE
:102770000FB6F894DEBF0FBECDBFDF91CF911F9192
:102780000F91FF90EF90DF90CF90BF90AF909F9010
:102790008F907F906F905F904F903F900895CF9271
:1027A000DF92EF92FF92CF93DF936B017C016DE29A
:1027B00083E192E00E943F06EC0144275527BA01CD
:1027C0004C195D096E097F092AE083E192E00E94BD
:1027D0006E0C8C0F9D1FDF91CF91FF90EF90DF90DB
:1027E000CF9008953FB7F894809100039091010332
:1027F000A0910203B091030326B5A89B05C02F3F0B
:1028000019F00196A11DB11D3FBFBA2FA92F982F16
:102810008827820F911DA11DB11DBC01CD0142E091
:10282000660F771F881F991F4A95D1F70895AC014D
:10283000990F660B770B77FF04C0CB01BA010C949C
:10284000CF132AE083E192E00C946E0C2F923F921A
:102850004F925F926F927F928F929F92AF92BF92B0
:10286000CF92DF92EF92FF920F931F93CF93DF935C
:10287000CDB7DEB76B970FB6F894DEBF0FBECDBFF6
:102880009B8F8A8F1B014A01D22E19870887370137
:10289000A982DC0159962D913C915A972115310559
:1028A00009F0FFC018968D919C91199768177907C8
:1028B0000CF0E7C11A968D919C911B974817590708
:1028C0000CF0DFC1EC2DF0E0FB83EA839B0146E0D6
:1028D000C49E200D311D11243D872C87121613062E
:1028E0000CF0CFC16A2D70E07B876A8783E0660FAA
:1028F000771F8A95E1F77F876E87CB01880D991D39
:10290000181619060CF0BDC158968C91811104C09F
:102910008FEA8D1508F4D394AA8DBB8DED91FC91AF
:1029200011970284F385E02DCD010995B5E0DB9E7A
:10293000C0011124EC2DF0E0F98BE88B91012B5FA5
:102940003F4F3B8B2A8B3D822C822101AC014219E7
:1029500053095D8B4C8B7981672F70E07F8B6E8B79
:10296000C4010896998F888FEC89FD89E40DF51DC7
:10297000E050FA4FD49054019F828E82D0FE16C050
:10298000AA8DBB8DED91FC91B1E0CB1209C02981DC
:10299000213031F40484F585E02D2885398519C06E
:1029A0000684F785E02DE884F9841DC048855985A3
:1029B0004615570519F1AA8DBB8DED91FC91B1E03B
:1029C000CB120DC02981213051F40484F585E02D0E
:1029D0009301A501B2018A8D9B8D09950FC00684D4
:1029E000F785E02D73010A851B852A813B814E8185
:1029F0005F816C817D818A8D9B8D0995D6943FEF97
:102A0000A31AB30A4E815F816E897F89460F571FD3
:102A10005F834E83888D998DA816B90609F0AECFD5
:102A20009FEF491A590AAC81BD81E889F989AE0F37
:102A3000BF1FBD83AC832A893B894216530609F028
:102A400093CF488559854615570509F4F8C0AA8DD6
:102A5000BB8DED91FC91B1E0CB1211C029812130E9
:102A600071F4B1016B5F7F4F0088F189E02D830124
:102A700028E030E0A4018A8D9B8D0995E0C06C852B
:102A80007D854A815B81641B750B0684F785E02D8B
:102A900073010E851F859A01A4018A8D9B8D09956E
:102AA000CEC0F9013496E491DE1AF901329685918F
:102AB0009491B7E0DB9E800D911D1124F9012591C1
:102AC00034913B8B2A8BFC01259134915901FC01F7
:102AD00032965490319634913C8732967490319668
:102AE000149141E04C1518F05981523068F0672D6F
:102AF000072C000C770B7D836C83812F012E000C3B
:102B0000990B9B838A8304C01B821A821D821C82BC
:102B1000AA8DBB8DED91FC9111970284F385E02D78
:102B2000CD010995412CD12C612CF981EF2FF0E0DA
:102B3000FF83EE832C2D30E03B872A87A401410FD1
:102B4000511D17FD5A955F8B4E8BB101670D711D9D
:102B500077FC7A95798F688F7C85671608F06FC04F
:102B6000262D30E04A815B81420F531FAE81BF8129
:102B7000A49FC001A59F900DB49F900D1124F40156
:102B8000E80FF91FF98BE88B842D712C4E895F8932
:102B9000420F531F5D8B4C8B751408F04DC051E0F4
:102BA000580F5E87877041F4C5010196EA89FB8959
:102BB000EA0DFB1DD4905C01D7FE3AC061E0C6125D
:102BC00016C07981713099F4AA8DBB8DED91FC917D
:102BD00011970484F585E02D288539854C895D8918
:102BE000688D798D670D711DCD01099521C08C818E
:102BF0009D81870D911DEA85FB858E9FB0018F9F7A
:102C0000700D9E9F700D1124620D731DAA8DBB8DDA
:102C1000ED91FC9111970684F785E02DE884F98405
:102C20000E811F812A853B8548895989CD010995E7
:102C3000DD0C73948E85B0CF450C63948DCFAA8D37
:102C4000BB8DED91FC9111970688F789E02DCD01A0
:102C50006B960FB6F894DEBF0FBECDBFDF91CF915C
:102C60001F910F91FF90EF90DF90CF90BF90AF90AA
:102C70009F908F907F906F905F904F903F902F909C
:102C800009946B960FB6F894DEBF0FBECDBFDF91EF
:102C9000CF911F910F91FF90EF90DF90CF90BF9059
:102CA000AF909F908F907F906F905F904F903F90EC
:102CB0002F90089590E0FC01E451FA4F2491FC011B
:102CC000E852FA4F8491882399F090E0880F991F79
:102CD000FC01E253FA4FA591B491FC01EC53FA4F79
:102CE000859194918FB7F894EC91E22BEC938FBF80
:102CF00008950F931F93CF93DF9377FF04C0260FA0
:102D0000371F60E070E0DC011496CD91DC911597DF
:102D1000FB01E20FF31FCE17DF071CF49E01261BF9
:102D2000370B121613060CF046C0FA0157FD379602
:102D3000DF01E3E0B595A795EA95E1F7AC9FF001D7
:102D4000AD9FF00DBC9FF00D11246E0F7F1FDC01B5
:102D50005F96ED91FC919097E60FF71F477055270E
:102D600081E090E001C0880F4A95EAF7482F0130D2
:102D7000110539F078F002301105E9F42E0F3F1FEC
:102D800013C02E0F3F1FE217F307A9F08081842B99
:102D90008193F9CF80952E0F3F1FE217F30759F06B
:102DA000908198239193F9CFE217F30721F0808166
:102DB00084278193F9CFDF91CF911F910F910895CF
:102DC000EF92FF920F931F93CF93DF93EC0177FD68
:102DD000A5C0EC80FD806E157F050CF09FC057FFED
:102DE00004C0240F351F40E050E08E819F81FA011E
:102DF000E20FF31F8E179F071CF49C01241B350B59
:102E0000121613060CF08AC0922F842F8695869591
:102E100086958E9DD0018F9DB00D11246A0F7B1F6A
:102E2000AF8DB8A1A60FB71F4770B1F188E0841B22
:102E3000482F682F70E0FB01E454FA4FE491281703
:102E400098F4621B71092FEF30E002C03595279589
:102E50006A95E2F7E2230130110549F078F002307B
:102E6000110509F05BC00EC00130110519F48C91F9
:102E7000E82B0AC00130110508F049C0E0958C919B
:102E8000E82302C08C91E827EC93941708F446C01D
:102E90002C813D81A20FB31FE92FE41BE830F8F02D
:102EA0000230110561F48E2F9C9190959C932C819A
:102EB0003D81A20FB31F88508830B0F70FC081E06A
:102EC0000115110509F480E081959E2F8C932C81CA
:102ED0003D81A20FB31F98509830C0F7E770EE23E2
:102EE000E9F0F0E0EC54FA4FE4910130110539F0CB
:102EF00048F00230110591F48C91E82706C08C91BE
:102F0000E82B03C0E0958C91E823EC9307C00230D6
:102F1000110509F4B7CFAE0DBF1DBECFDF91CF9124
:102F20001F910F91FF90EF90089590E0FC01E05603
:102F3000FA4F2491FC01E451FA4F3491FC01E8521C
:102F4000FA4FE491EE2309F43CC0222339F12330F7
:102F500091F038F42130A9F0223001F584B58F7D4D
:102F600012C0273091F02830A1F02430B9F48091BC
:102F700080008F7D03C0809180008F7780938000D8
:102F80000DC084B58F7784BD09C08091B0008F7764
:102F900003C08091B0008F7D8093B000F0E0EE0F11
:102FA000FF1FEC53FA4FA591B4919FB7F8946111AC
:102FB00004C08C913095382302C0EC913E2B3C9399
:102FC0009FBF08958F929F92AF92BF92CF92DF9250
:102FD000EF92FF926B017C010E94F2134B015C01A6
:102FE000C114D104E104F104F1F00E94F213DC01F8
:102FF000CB0188199909AA09BB09883E9340A1050C
:10300000B10570F321E0C21AD108E108F10888EE99
:10301000880E83E0981EA11CB11CC114D104E104E8
:10302000F10419F7DDCFFF90EF90DF90CF90BF90C4
:10303000AF909F908F9008951F920F920FB60F92AE
:1030400011242F933F938F939F93AF93BF938091BE
:10305000FC029091FD02A091FE02B091FF0230911E
:10306000FB0223E0230F2D3720F40196A11DB11D93
:1030700005C026E8230F0296A11DB11D2093FB0277
:103080008093FC029093FD02A093FE02B093FF0296
:103090008091000390910103A0910203B09103037A
:1030A0000196A11DB11D8093000390930103A0938D
:1030B0000203B0930303BF91AF919F918F913F9112
:1030C0002F910F900FBE0F901F901895CF93DF9305
:1030D000CDB7DEB7C654D1090FB6F894DEBF0FBE28
:1030E000CDBF789484B5826084BD84B5816084BD91
:1030F00085B5826085BD85B5816085BD80916E0096
:10310000816080936E0010928100809181008260C6
:103110008093810080918100816080938100809103
:1031200080008160809380008091B10084608093F2
:10313000B1008091B00081608093B00080917A00EE
:10314000846080937A0080917A00826080937A0014
:1031500080917A00816080937A0080917A00806803
:1031600080937A001092C100E0912302F091240232
:1031700082E08083E0911F02F09120021082E091B2
:103180002102F09122028FEC808310922B02E091B9
:103190002702F091280286E08083E0912502F091D9
:1031A0002602808180618083E0912502F0912602D1
:1031B000808188608083E0912502F09126028081E1
:1031C00080688083E0912502F091260280818F7DC6
:1031D00080838091CF029091D002892B41F520917C
:1031E000B6023091B702C901079697FD079623E012
:1031F000959587952A95E1F72091B4023091B50213
:103200008C01029FC001039F900D129F900D11240D
:103210000E9421279093D0028093CF02892B39F40A
:1032200061E875E083E192E00E94B70CFFCF0E9455
:1032300041118091B6029091B7026091B4027091F1
:10324000B50281329105CCF0AC014054510957FFD1
:1032500002C04F5F5F4F559547956255710977FFE3
:1032600002C06F5F7F4F7595679510E4E12EF12CDA
:1032700002E510E024E632E018C0AC0140525109EA
:1032800057FF02C04F5F5F4F5595479563577109D0
:1032900077FF02C06F5F7F4F75956795F0E2EF2E65
:1032A000F12C03E710E024E830E080EB92E00E948C
:1032B000461382E08093D2028091CD029091CE029B
:1032C000892BB9F18CE38093D102109263011092A3
:1032D00062011092F001109212021092EE0181E050
:1032E0008093ED011092C80161E082E10E94951780
:1032F00061E083E10E9495178091B9008E7F8093F1
:10330000B9008091B9008D7F8093B90088E48093E3
:10331000B80085E48093BC008FE39AE0909361014C
:103320008093600180E49AE090935F0180935E0156
:10333000B6C08091D6020E945A168091D7020E9490
:103340005A168091D602082E000C990BFC01E85207
:10335000FA4FE491F0E0EE0FFF1FEC53FA4F259186
:1033600034913093DE022093DD02FC01E451FA4FE8
:10337000E491E093E3028091D702082E000C990BB0
:10338000FC01E852FA4FE491F0E0EE0FFF1FEC531E
:10339000FA4FA591B491B093E002A093DF02FC0133
:1033A000E451FA4FE491E093E4028C91E82BEC9322
:1033B0008091CB029091CC02892B89F11FB7F894B0
:1033C00080916401811124C0E2EEF5E08491E6EF82
:1033D000F5E09491E82FF0E0EE0FFF1FE253FA4F73
:1033E000A591B491EC91E92321F461E08AE00E9477
:1033F00095178AE00E945A168CB580618CBD8CB5F9
:1034000080648CBD8DE00E945A168BE00E945A1693
:10341000809164018F5F809364011FBF40C08091E1
:10342000D4020E945A168091D5020E945A168091A9
:10343000D402082E000C990BFC01E852FA4FE491DB
:10344000F0E0EE0FFF1FEC53FA4F259134913093CB
:10345000DA022093D902FC01E451FA4FE491E0939F
:10346000E1028091D502082E000C990BFC01E85274
:10347000FA4FE491F0E0EE0FFF1FEC53FA4FA591E5
:10348000B491B093DC02A093DB02FC01E451FA4F4B
:10349000E491E093E2028C91E095E823EC93809133
:1034A000D80287FD1DC00E945A1661E08091D802A3
:1034B0000E94951761E070E080E090E00E94E217C2
:1034C00060E08091D8020E9495176AE070E080E089
:1034D00090E00E94E21761E08091D8020E94951767
:1034E0008091CD029091CE02892B59F06091E70234
:1034F0007091E8028091E9029091EA020E94BF0E69
:1035000016C08091CB029091CC02892B31F0809132
:10351000E5029091E6020E948E0DE091DF02F091AB
:10352000E00290818091E40280958923808364E0A9
:1035300080E890E00E946D0F6091B602615080EBD0
:1035400092E00E942B0D64E08CE790E00E946D0FEA
:103550008091D202813011F064E101C060E180EB22
:1035600092E00E942B0D64E088E790E00E946D0FCE
:103570008091B4029091B50280389105E9F4809170
:10358000B6029091B7028032910531F464E084E78D
:1035900090E00E946D0F29C08034910531F563E001
:1035A00081E790E00E946D0F8091D202813011F08E
:1035B0006FEC17C06FE915C080369105B1F48091AA
:1035C000B6029091B702409781F463E08EE690E0F6
:1035D0000E946D0F8091D202813011F06FEA01C01C
:1035E00060E180EB92E00E942B0D69ED80EB92E0B0
:1035F0000E942B0D8091D202813011F061EF01C049
:1036000062E280EB92E00E942B0D66E088E690E09B
:103610000E946D0F8091CD029091CE02892B59F0BE
:103620006091EB027091EC028091ED029091EE02BC
:103630000E94BF0E11C0E091DF02F091E002908184
:103640008091E402892B80838091CB029091CC02FF
:10365000892B11F00E94230D0E94221060ED77E06B
:1036600080E090E00E94E2170E94411121E030E0EA
:103670004AE050E06AE070E080EB92E00E94B80619
:103680000E94221060ED77E080E090E00E94E21757
:103690000E944111C12CD12C8091B8029091B902A5
:1036A000C816D9061CF0C12CD12C1EC00091BA023C
:1036B0001091BB0201501109EE24E394F12C960104
:1036C00040E050E060E070E080EB92E00E94EA07AA
:1036D0000E94221061E070E080E090E00E94E2171A
:1036E00014E0C10ED11CD8CF8091BA029091BB02D8
:1036F000C816D906F4F42091B8023091B9022150CD
:103700003109EE24E394F12C860140E050E060E0C2
:1037100070E080EB92E00E94EA070E94221061E0D4
:1037200070E080E090E00E94E21724E0C20ED11C1D
:10373000DBCF6AEF70E080E090E00E94E2170E9429
:103740004111A12CB12C8091B8029091B902C09086
:10375000BA02D090BB02A816B906DCF4A60141500B
:103760005109EE24E394F12C00E010E0950160E0B3
:1037700070E080EB92E00E94EA070E94221061E074
:1037800070E080E090E00E94E21734E0A30EB11CEC
:10379000DACF41E0C41AD108D7FC22C02091B80288
:1037A0003091B902215031094091BA025091BB02C7
:1037B00041505109EE24E394F12C860160E070E061
:1037C00080EB92E00E94EA070E94221061E070E024
:1037D00080E090E00E94E21754E0C51AD108DCCFE7
:1037E0006AEF70E080E090E00E94E2170E944111D1
:1037F000A090B802B090B90261E0A61AB108C090DA
:10380000BA02D090BB02B7FC1FC0A60141505109BB
:103810006091B8027091B90261507109EE24E3948D
:10382000F12C00E010E0950180EB92E00E94EA07A5
:103830000E94221061E070E080E090E00E94E217B8
:1038400074E0A71AB108DBCF81E0C81AD108D7FC11
:1038500022C04091BA025091BB024150510960917F
:10386000B8027091B90261507109EE24E394F12C11
:10387000860120E030E080EB92E00E94EA070E949F
:10388000221061E070E080E090E00E94E21794E096
:10389000C91AD108DCCF6AEF70E080E090E00E94A6
:1038A000E2170E944111C12CD12C8091BA02909153
:1038B000BB02C816D9061CF0C12CD12C1EC06091C9
:1038C000B8027091B90261507109EE24E394F12CB1
:1038D000860120E030E040E050E080EB92E00E9482
:1038E000EA070E94221061E070E080E090E00E9410
:1038F000E217A4E0CA0ED11CD8CF6091B802709133
:10390000B902C616D706F4F40091BA021091BB02B0
:103910000150110961507109EE24E394F12C9601D4
:1039200040E050E080EB92E00E94EA070E94221003
:1039300061E070E080E090E00E94E217B4E0CB0E1E
:10394000D11CDBCF60ED77E080E090E00E94E217D1
:103950000E944111C12CD12C0091BA021091BB02DE
:10396000C80117FD019695958795C816D90604F5E7
:10397000C601880F991F081B190B2091B8023091BE
:10398000B902281B390BEE24E394F12CA601B601F1
:1039900080EB92E00E948B070E94221061E070E0B1
:1039A00080E090E00E94E217E2E0CE0ED11CD4CF7E
:1039B00060ED77E080E090E00E94E2170E94411104
:1039C000C12CD12C0091BA021091BB02C80117FD85
:1039D000019695958795C816D90604F5C601880FF6
:1039E000991F081B190B2091B8023091B902281BAE
:1039F000390B42E0E42EF12CA601B60180EB92E0F7
:103A00000E9474080E94221061E070E080E090E063
:103A10000E94E217F3E0CF0ED11CD4CF60ED77E027
:103A200080E090E00E94E2170E9441111CA61BA6B4
:103A3000C12CD12CE090B802F090B9024090BA02AB
:103A40005090BB024E145F0424F4C701F7FE04C07B
:103A500002C0C20157FC019695958795C816D906F4
:103A60000CF0D6C057FE03C00FEF401A500A559411
:103A70004794F7FE03C01FEFE11AF10AF594E794AB
:103A800001E010E00C191D091CA30BA30BA51CA53C
:103A900018A70FA321E030E0A601440D551DB70182
:103AA00080EB92E00E94540921E030E0A2014C1921
:103AB0005D09B70180EB92E00E945409B6016E0DDA
:103AC0007F1D21E030E0A20180EB92E00E945409CA
:103AD000B7016C197D0921E030E0A20180EB92E092
:103AE0000E945409160100E010E021E030E038A304
:103AF0002F8F021513050CF079C04BA15CA157FD67
:103B00000FC051E0251A31086FA178A56E5F7F4F75
:103B100078A76FA38BA19CA1860F971F9CA38BA353
:103B20000F5F1F4FAF8DB8A11296B8A3AF8FEBA157
:103B3000FCA1EA0FFB1FFCA3EBA33701600E711E73
:103B400021E030E05201A20CB31CA501B30180EBCF
:103B500092E00E9454094701801A910A21E030E066
:103B6000A501B40180EB92E00E94540921E030E00D
:103B70005201A218B308A501B30180EB92E00E94A4
:103B8000540921E030E0A501B40180EB92E00E94ED
:103B900054095201A00EB11E21E030E0A5014701F9
:103BA000820C931CB40180EB92E00E94540921E046
:103BB00030E0A5015701A218B308B50180EB92E0EF
:103BC0000E9454093201601A710A21E030E0A30119
:103BD000B40180EB92E00E94540921E030E0A3019F
:103BE000B50180EB92E00E94540983CF0E9422101D
:103BF00061E070E080E090E00E94E217F2E0CF0E1A
:103C0000D11C0BA51CA5045011091CA70BA712CF92
:103C100060ED77E080E090E00E94E2170E944111A1
:103C20008091B8029091B902E090BA02F090BB0284
:103C3000E816F9067CF47C0197FF03C01FEFE11A38
:103C4000F10AF594E7945701AA0CBB1C2FEFA21AB6
:103C5000B20A3BC0F7FEF5CF3FEFE31AF30AF1CF0C
:103C60006091BA027091BB0277FF02C06F5F7F4F15
:103C70004B01959487948091B8029091B90297FD79
:103C800001966C01D594C794A4014E195F0902E016
:103C900010E09501B60180EB92E00E94480900E037
:103CA00010E023E0A701B401C6010E9461110E9447
:103CB000221061E070E080E090E00E94E21743E0B3
:103CC000E41AF10856E0A51AB1081E141F0444F2C4
:103CD00060ED77E080E090E00E94E2170E944111E1
:103CE000C12CD12C4090BA025090BB02C20157FCAB
:103CF0000196959587950297C816D9060CF088C04D
:103D0000720157FE03C063E0E60EF11CF594E794E0
:103D1000F594E794C601880F991F481A590A209014
:103D2000B8023090B902281A390A2414350424F450
:103D3000C10137FE04C002C0C20157FC019695952F
:103D400087958E159F050CF47C014701880C991C02
:103D50003101681879085601AE0CBF1C01E010E073
:103D60009301A601B50180EB92E00E943C09C601D7
:103D7000840D951D9CA38BA3AC0141505109930167
:103D8000B50180EB92E00E943C0948185908920165
:103D9000A501B60180EB92E00E9448092C0C3D1C65
:103DA000B101615071099201A50180EB92E00E947E
:103DB000480921E0A701B501C5010E9438122E185B
:103DC0003F0891E0291A310822E0A701B501C1019D
:103DD0000E9438120BA11CA10E191F0901501109D4
:103DE00024E0A701B801C1010E94381228E0A70110
:103DF000B801C5010E9438120E94221061E070E0F3
:103E000080E090E00E94E217A2E0CA0ED11C6ACFC7
:103E100060ED77E080E090E00E94E2170E9441119F
:103E2000812C912CC090BA02D090BB02C601D7FC65
:103E30000196959587950297881699060CF05BC0B8
:103E40005601D7FE03C0B3E0AB0EB11CB594A794E6
:103E5000B594A7949401220F331FC21AD30A40903D
:103E6000B8025090B902421A530A4C145D0424F46B
:103E7000C20157FE04C002C0C601D7FC0196959549
:103E800087958A159B050CF45C013501660C771C3F
:103E900014012A0C3B1C92012619370912E0E12E6D
:103EA000F12C8601A401B10180EB92E00E942C0963
:103EB000C618D708E1E0CE1AD108C401840D951DBB
:103EC0008A199B09860121E0A501B10101970E9491
:103ED000611122E0A501B101C1010E9461110E949E
:103EE000221061E070E080E090E00E94E217F2E0D2
:103EF0008F0E911C97CF60ED77E080E090E00E94FC
:103F0000E2170E944111812C912CA090B802B09030
:103F1000B902C090BA02D090BB02CA14DB0424F4E8
:103F2000C501B7FE04C002C0C601D7FC0196959535
:103F30008795881699060CF03FC0D7FE03C00FEF97
:103F4000C01AD00AD594C79434016C0C7D1CB7FEFE
:103F500003C01FEFA11AB10AB594A79414012A0C4B
:103F60003B1C250148185908C818D908EE24E394C9
:103F7000F12C83019201A601B50180EB92E00E9431
:103F8000EA079101A301B20180EB92E00E94EA07E7
:103F900086019501A301B10180EB92E00E94EA073E
:103FA0000E94221061E070E080E090E00E94E21741
:103FB00025E0820E911CA9CF60ED77E080E090E0D3
:103FC0000E94E2170E9441118091B8029091B902BB
:103FD000E090BA02F090BB02E816F9063CF47C01CE
:103FE00097FF09C03FEFE31AF30A05C0F7FE03C0CD
:103FF0004FEFE41AF40AF594E7941E141F040CF032
:104000006DC18091BA029091BB0297FD0196959582
:1040100087956701C80ED91E2091B8023091B90268
:1040200037FF02C02F5F3F4F359527954701820E1E
:10403000931E5901AE18BF08BC016E197F097CA3FD
:104040006BA3C616D7060CF021C1A4014A195B095F
:104050008BA19CA18C199D0998A78FA3AA27BB2788
:10406000AE19BF09BEA3ADA39CA78BA7F6013197DC
:10407000FEABEDABDCAACBAA80E090E02BA83CA87D
:104080001FA618AA19AA1AAA412C512C320187017D
:104090000F2C000C220B330B0FAB18AF29AF3AAF2C
:1040A0008C01990F220B330B0BAF1CAF2DAF3EAF22
:1040B0006FA178A5072E000C880B990B23966CAF87
:1040C0007DAF8EAF9FAF2397CA01550FAA0BBB0BD5
:1040D00027968CAF9DAFAEAFBFAF2797ADA9BEA956
:1040E000A215B3050CF452C0C301B2012BAD3CAD17
:1040F0004DAD5EAD0E94A926F501E20FF31FF8A3B6
:10410000EF8F6FA578A989A99AA923962CAD3DAD0B
:104110004EAD5FAD23970E94A9262A0D3B1D279621
:104120004CAD5DAD6EAD7FAD2797440E551E661E3E
:10413000771E8FA998ADA9ADBAAD4FA558A969A9A9
:104140007AA9840F951FA61FB71F8FA798ABA9AB9D
:10415000BAAB6F8D78A12617370734F49F8D88A1ED
:1041600038A32F8F292F382F8F8D98A1281B390B1B
:104170002F5F3F4F02E010E0A101BC0180EB92E015
:104180000E943C099FEF291A390AA8CF0DA11EA150
:10419000012E000C220B330B0FA718AB29AB3AAB47
:1041A000D101AC19BD092DA13EA10E940C272B0104
:1041B0003C01D1012BA93CA9A21BB30B97010E9482
:1041C0000C276F8F78A389A39AA34BA55CA5052E16
:1041D000000C660B770B4BA75CA76DA77EA76FA1A2
:1041E00078A5072E000C880B990B6FA378A789A7D9
:1041F0009AA78BA19CA1821593050CF463C0C301FF
:10420000B2012BA53CA54DA55EA50E94A92664017F
:10421000C20ED31E6F8D78A189A19AA12FA138A5B6
:1042200049A55AA50E94A9262A0D3B1D4FA558A9AC
:1042300069A97AA9440E551E661E771E8F8D98A116
:10424000A9A1BAA14FA958AD69AD7AAD840F951F48
:10425000A61FB71F8F8F98A3A9A3BAA32C153D053E
:104260002CF49C2D8D2D6901292F382F2C193D09F7
:104270002F5F3F4F02E010E0A101B60180EB92E01A
:104280000E943C095FEF251A350AB3CF8BA19CA190
:10429000C816D90609F00EC4B4014501A216B3062A
:1042A00014F049019501681579050CF0FDC3261B32
:1042B000370B2F5F3F4F02E010E0A60180EB92E04A
:1042C0000E943C090E94221061E070E080E090E0D2
:1042D0000E94E21765E0E61AF1088FCE60ED77E004
:1042E00080E090E00E94E2170E94411181E08093FB
:1042F000C4028093C50221E030E03093C3022093D2
:10430000C2023093C1022093C0021092BD021092EB
:10431000BC021092BF021092BE028093C80200E05D
:1043200010E00A30110511F460E201C0602F80EB4B
:1043300092E00E945D0B0F5F1F4F011571E01707A0
:1043400081F70E94221060ED77E080E090E00E940B
:10435000E2170E94411181E08093C4028093C5025C
:1043600001E010E01093C3020093C2021093C10257
:104370000093C0021092BD021092BC021092BF02C4
:104380001092BE0267E275E080EB92E00E94B70CEB
:104390001092C1021092C0021093C3020093C20295
:1043A0002AE043E050E060E070E080EB92E00E94A1
:1043B0006E0C6EE280EB92E00E945D0B2AE041E021
:1043C00050E060E070E080EB92E00E946E0C2AE02A
:1043D00044E050E060E070E080EB92E00E946E0C00
:1043E0006AE571E080EB92E00E94590C22E0F22E27
:1043F000F092C402F092C5021093C3020093C2026D
:104400001093C1020093C00264E275E080EB92E079
:104410000E94350C20E14FEE5EEB6DEA7EED80EB05
:1044200092E00E946E0C6AE571E080EB92E00E94DF
:10443000590C0E94221060ED77E080E090E00E942D
:10444000E2170E944111F092C402F092C50210934B
:10445000C3020093C2021093C1020093C0028AE01B
:1044600090E09093BD028093BC021092BF02109224
:10447000BE026BE475E080EB92E00E94B70C0E94F4
:10448000221064E670E080E090E00E94E2178091E4
:10449000CD029091CE02892B59F06091E702709184
:1044A000E8028091E9029091EA020E94BF0E16C0D4
:1044B0008091CB029091CC02892B31F08091E50262
:1044C0009091E6020E948E0DE091DF02F091E002F1
:1044D00090818091E40280958923808362E088E363
:1044E00095E00E946D0F60E080EB92E00E942B0D42
:1044F00060E080EB92E00E942B0D6FE080EB92E099
:104500000E942B0D63E085E395E00E946D0F809182
:10451000CD029091CE02892B59F06091EB027091FF
:10452000EC028091ED029091EE020E94BF0E11C04C
:10453000E091DF02F091E00290818091E402892B0A
:1045400080838091CB029091CC02892B11F00E9444
:10455000230D60ED77E080E090E00E94E2170E947A
:10456000F81268EE73E080E090E00E94E21780911C
:10457000CD029091CE02892B59F06091E7027091A3
:10458000E8028091E9029091EA020E94BF0E16C0F3
:104590008091CB029091CC02892B31F08091E50281
:1045A0009091E6020E948E0DE091DF02F091E00210
:1045B00090818091E40280958923808362E08DE37D
:1045C00095E00E946D0F60E080EB92E00E942B0D61
:1045D00060E080EB92E00E942B0D6FE080EB92E0B8
:1045E0000E942B0D63E08AE395E00E946D0F80919D
:1045F000CD029091CE02892B59F06091EB0270911F
:10460000EC028091ED029091EE020E94BF0E11C06B
:10461000E091DF02F091E00290818091E402892B29
:1046200080838091CB029091CC02892B11F00E9463
:10463000230D60ED77E080E090E00E94E2170E9499
:10464000F81268EE73E080E090E00E94E21780913B
:10465000CD029091CE02892B59F06091E7027091C2
:10466000E8028091E9029091EA020E94BF0E16C012
:104670008091CB029091CC02892B31F08091E502A0
:104680009091E6020E948E0DE091DF02F091E0022F
:1046900090818091E40280958923808362E083E4A5
:1046A00095E00E946D0F6091B60280EB92E00E944F
:1046B0002B0D62E081E495E00E946D0F60E080EBDD
:1046C00092E00E942B0D60E080EB92E00E942B0DA7
:1046D00067E080EB92E00E942B0D62E08FE395E0B3
:1046E0000E946D0F8091CD029091CE02892B59F0DE
:1046F0006091EB027091EC028091ED029091EE02DC
:104700000E94BF0E11C0E091DF02F091E0029081A3
:104710008091E402892B80838091CB029091CC021E
:10472000892B11F00E94230D60ED77E080E090E08E
:104730000E94E2178091CD029091CE02892B59F010
:104740006091E7027091E8028091E9029091EA029B
:104750000E94BF0E16C08091CB029091CC02892B93
:1047600031F08091E5029091E6020E948E0DE09179
:10477000DF02F091E00290818091E402809589232C
:10478000808362E089E495E00E946D0F6091B6023B
:1047900080EB92E00E942B0D62E087E495E00E949E
:1047A0006D0F60E080EB92E00E942B0D60E080EBEB
:1047B00092E00E942B0D67E080EB92E00E942B0DAF
:1047C00062E085E495E00E946D0F8091CD029091AA
:1047D000CE02892B59F06091EB027091EC0280912E
:1047E000ED029091EE020E94BF0E11C0E091DF0237
:1047F000F091E00290818091E402892B8083809186
:10480000CB029091CC02892B11F00E94230D60ED18
:1048100077E080E090E00E94E2170E94F81268EED4
:1048200073E080E090E00E94E2170E9441118091C5
:10483000BA029091BB02AC014051510957FF02C02E
:104840004F5F5F4F559547958091B8029091B9029F
:10485000BC016051710977FF02C06F5F7F4F759592
:104860006795F0E1EF2EF12C00E110E021E635E054
:1048700080EB92E00E9446130E94221068EE73E0E3
:1048800080E090E00E94E21761E080EB92E00E94FD
:10489000D30E68EE73E080E090E00E94E21760E0E3
:1048A00080EB92E00E94D30E68EE73E080E090E02F
:1048B0000E94E2178E010F5F1F4FAAE07A2EB0EF21
:1048C0006B2E85E0282E312C412C512C2091B802E2
:1048D0003091B9026901330FEE08FF0882EFC81664
:1048E0008FEFD806E806F80694F00E945226A7013A
:1048F0009601215F3F4F4F4F5F4F0E94A9264B010A
:104900005C01AFE08A1A9108A108B10806C031EF36
:10491000832E99249A94A92CB92CF8018082618263
:104920000E945226A20191010E94A9266B017C01DE
:10493000FFEFCF1ADF0AEF0AFF0AD8011296CC92D6
:104940006DE575E083E192E00E94350C882D880CBE
:10495000990B0E94171468E575E083E192E00E94CC
:10496000350C80EF9FEF0E94171462E575E083E13C
:1049700092E00E94350CF7FE05C0C701B6010E9407
:10498000CF1307C02AE0B701A60183E192E00E949D
:104990006E0C6AE571E083E192E00E94590C7A9412
:1049A0000D5F1F4F711092CF5E01BFE1AB0EB11CC6
:1049B00090EF992E25E0422E512C612C712C0E94F3
:1049C0004111FE0131966F01D60111964C9111975C
:1049D000042E000C550B6C91062E000C770B80E119
:1049E000E82EF12C00E110E021E635E080EB92E0CA
:1049F0000E944613B3E0CB0ED11CAC14BD0421F7CA
:104A00000E94221068EC70E080E090E00E94E217C3
:104A10008E010F5F1F4FF80191818281890F818381
:104A2000082E000C990B2091BA023091BB0282171C
:104A300093079CF12091B8023091B9026901330FBC
:104A4000EE08FF08F2EFCF16FFEFDF06EF06FF06D6
:104A500084F00E945226A7019601215F3F4F4F4FDD
:104A60005F4F0E94A926DC01CB010F97A109B10974
:104A700004C081EF9FEFAFEFBFEFF8018083918219
:104A80000E945226A30192010E94A926DC01CB01BB
:104A90000196A11DB11DF80182830D5F1F4FA01665
:104AA000B10609F48CCFB7CF261737070CF49B015A
:104AB000B401FDCB442755274E195F09C6010BA150
:104AC0001CA1801B910B98A78FA3B4016A197B09C5
:104AD0007EA36DA3450159011CAB0BABDCA2CBA29D
:104AE000DEAACDAA1CA61BA6C9CA82E391E09093B8
:104AF000B1028093B0028091CF029091D0020097D2
:104B000011F00C94B9270895E3E1F2E013821282C8
:104B100048EE53E060E070E044835583668377831A
:104B20008EE091E09183808385EC90E09587848787
:104B300084EC90E09787868780EC90E0918B808B67
:104B400081EC90E0938B828B82EC90E0958B848B50
:104B500086EC90E0978B868B118E128E138E148EBE
:104B6000AFEEB2E013961C921E92129714964D93DC
:104B70005D936D937C93179780E291E011969C93DF
:104B80008E93E0EBF2E01382128220E830E035836E
:104B9000248380E490E097838683318720879387FE
:104BA0008287168A158614861786168681E0858B7D
:104BB000848B2FEF3FEF338B228B318B208B878BB6
:104BC000108E128E118E82E391E091838083148E79
:104BD000138EB68FA58F10A2178E8FEF84A385A397
:104BE00086A387A380A780E585AB16AA80E89AE113
:104BF000A6E0B0E087AB90AFA1AFB2AF80EA96E895
:104C0000A1E0B0E083AF94AFA5AFB6AF08958F92A7
:104C10009F92AF92BF92CF92DF92EF92FF92CF938B
:104C2000DF93EC01688179818A819B81611571052F
:104C30008105910521F464E279ED8BE597E02DE1A2
:104C400033EF41E050E00E94A92649015A019B013F
:104C5000AC01A7EAB1E40E94C8266B017C01ACEE6E
:104C6000B4EFA50194010E94D626DC01CB018C0D86
:104C70009D1DAE1DBF1DB7FF03C00197A109B04820
:104C800088839983AA83BB83BC01CD019F77DF9181
:104C9000CF91FF90EF90DF90CF90BF90AF909F901B
:104CA0008F9008958F929F92AF92BF92CF92DF9292
:104CB000EF92FF92609100017091010180910201D9
:104CC00090910301611571058105910521F464E25C
:104CD00079ED8BE597E02DE133EF41E050E00E9464
:104CE000A92649015A019B01AC01A7EAB1E40E943F
:104CF000C8266B017C01ACEEB4EFA50194010E94C3
:104D0000D626DC01CB018C0D9D1DAE1DBF1DB7FF4E
:104D100003C00197A109B04880930001909301015D
:104D2000A0930201B0930301BC01CD019F77FF90D6
:104D3000EF90DF90CF90BF90AF909F908F900895AD
:104D4000609300017093010180930201909303012D
:104D50000895052E97FB1EF400940E94C02657FD6F
:104D600007D00E94DB2607FC03D04EF40C94C0262B
:104D700050954095309521953F4F4F4F5F4F089587
:104D800090958095709561957F4F8F4F9F4F0895B7
:104D90000E94FD26A59F900DB49F900DA49F800DAD
:104DA000911D11240895B7FF0C94C8260E94C826AF
:104DB000821B930B0895A1E21A2EAA1BBB1BFD01B7
:104DC0000DC0AA1FBB1FEE1FFF1FA217B307E407EA
:104DD000F50720F0A21BB30BE40BF50B661F771F42
:104DE000881F991F1A9469F7609570958095909522
:104DF0009B01AC01BD01CF010895A29FB001B39FFB
:104E0000C001A39F700D811D1124911DB29F700DD3
:104E1000811D1124911D08950E94FD26332312F453
:104E20008A1B9B0B0C9416270E94FD26B7FF089542
:104E3000821B930B0895EE0FFF1F0590F491E02D58
:104E400009940F931F93CF93DF938230910510F451
:104E500082E090E0E0910603F091070320E030E06B
:104E6000A0E0B0E0309719F14081518102811381B7
:104E700048175907C8F08417950769F4109731F05F
:104E800012960C93129713961C9327C00093060357
:104E90001093070322C02115310519F0421753075B
:104EA00018F49A01BD01EF01DF01F801DBCF2115F4
:104EB0003105F9F0281B390B2430310580F48A8143
:104EC0009B816115710521F0FB019383828304C0EE
:104ED0009093070380930603FE01329644C0FE01BF
:104EE000E20FF31F81939193225031093983288374
:104EF0003AC02091040330910503232B41F4209103
:104F0000060130910701309305032093040320919B
:104F10000401309105012115310541F42DB73EB74B
:104F20004091080150910901241B350BE0910403C5
:104F3000F0910503E217F307A0F42E1B3F0B28178F
:104F4000390778F0AC014E5F5F4F2417350748F002
:104F50004E0F5F1F50930503409304038193919379
:104F600002C0E0E0F0E0CF01DF91CF911F910F91FF
:104F70000895CF93DF93009709F481C0FC01329725
:104F800013821282A0910603B0910703109781F457
:104F900020813181820F931F2091040330910503FA
:104FA0002817390751F5F0930503E093040367C010
:104FB000ED0120E030E0CE17DF0740F44A815B814D
:104FC0009E0141155105F1F0EA01F5CFD383C2836B
:104FD00040815181840F951FC817D90759F48881E2
:104FE0009981840F951F0296918380838A819B818A
:104FF000938382832115310529F4F0930703E0930D
:1050000006033DC0E901FB83EA8349915991C40F2E
:10501000D51FEC17FD0761F480819181840F951FE6
:105020000296E90199838883828193819B838A8395
:10503000E0E0F0E012968D919C911397009719F0A3
:10504000FD01DC01F7CF8D919C9111979D012E5FA1
:105050003F4F820F931F20910403309105032817BF
:10506000390769F4309729F4109207031092060368
:1050700002C013821282B0930503A0930403DF9150
:10508000CF91089581E090E0F8940C944E28DC01D3
:1050900001C06D9341505040E0F7089515E0C1E81C
:1050A000D5E004C0FE010E941B272196C238D1071B
:0650B000C9F7F894FFCFE0
:1050B60001000000000008038000000000003F0619
:1050C600AC05D6058C060706E505F90500000000C7
:1050D600990A6C0AC90A2B09640A500A410A000097
:1050E60000005D0BAC05C90AC80AB8062B095409AD
:1050F6002C0948093C095B092B097607D30ECE0A11
:0E510600120B74085708EA078B070D0A000009
:00000001FF
