:020000040000FA
:060000008A110A12052816
:10000800090039224B22B7210C30A8000921831698
:1000180003130716871507138717F430F20001300A
:10002800F30083120313D4200230AB000130A20086
:100038001B22DB30F2000130F300AA30F700023057
:10004800F8008722DB30B2000130B3000130A20093
:10005800B9210230AB000130A2001B22DB30F200D4
:100068000130F300B630F7000230F8008722DB30A9
:10007800B2000130B3000130A200B9210130AB0059
:100088000130A2001B22B801A001A101A00A031996
:10009800A10AB80AA030A5002008A3002108A400DE
:1000A8003808A600F8203808B0000130A200DB218B
:1000B800DB30F2000130F300C830F7000230F800FE
:1000C8008722DB30B2000130B3000130A200B92131
:1000D8002008F5002108F6000A30F900FA01642228
:1000E80070184A280230AB000130A2001B22DB3016
:1000F800F2000130F300CA30F7000230F80087221E
:10010800DB30B2000130B3000130A200B921013068
:10011800AB000130A2001B22B801A001A101A00A76
:100128000319A10AB80AA030A5002008A3002108D5
:10013800A400E220D0303807840083172608800006
:10014800D0303807840083170008B0000130A200BF
:10015800DB21DB30F2000130F300C830F700023059
:10016800F8008722DB30B2000130B3000130A20072
:10017800B9212008F5002108F6000A30F900FA0133
:100188006422701893280130AB000130A2001B22B2
:10019800E830F2000330F300D420CC286300D228E2
:1001A800F30AE330F1000630F000F00BD928F10B28
:1001B800D728F20BD528F30BD52808006E21A030DC
:1001C800AC007921A708031DE2282408AC00792196
:1001D8002308AC0079216E21A130AC007921A90156
:1001E8002F212C08A60094296E21A030AC0079217B
:1001F800A708031DF8282408AC0079212308AC00BF
:1002080079212608AC0079219429831603139417C1
:1002180083120313141694130C302802031D1C298F
:10022800941514119410141031308316031393008D
:1002380083120313A808031D252994111415941477
:10024800141003302802031D2D2994111415941439
:1002580014149416080028080A3C03183E29291C7F
:1002680039298316031391123C2983160313911617
:10027800911541298316031314158312031394133C
:100288001413F001831603131418F009700883126D
:100298000313B600F0018C19F00936087005B70091
:1002A800371C45291308AC008C118316031311164B
:1002B800141083120313A82128080A3C031868297C
:1002C8008316031391116B298316031314118312D8
:1002D8000313080028080A3C031878298316031317
:1002E800911483120313A821080094132C08930077
:1002F800A82183160313111F8629FF3083120313C5
:10030800A700892983120313A701941F8F2928089E
:100318000A3C0318792928080A3C0318141608000F
:1003280028080A3C0318A1298316031314199829CD
:10033800111583120313A821A52983160313141E6C
:10034800A129831203130800AA01AA0AFF302A026E
:100358000318B6298C1DA9298C1108008C1DA92900
:100368008C1108000800A8010800320884008313D3
:10037800331883170008AE00AE080319DA29B40150
:1003880001302E02031CDA29B40A3408320784002B
:100398008313331883170008AF0030220130F200AE
:1003A800F301D4202E083402031CC8290800AD012B
:1003B80064303002031CF1293008F5006430F9007C
:1003C80073227508AD007008B00030302D07AF00FB
:1003D80030220130F200F301D4202D08F900F50194
:1003E8005D227008B6003008F5000A30F9005D2279
:1003F800F00936087004B700371C132A3008F500D6
:100408000A30F90073227508AD007008B00030306A
:100418002D07AF0030220130F200F301D420303034
:100428003007AF0030220130F200F301D4282B0846
:10043800B50003192F2A0D30AF0030220130F20029
:10044800F301D4200A30AF0030220130F200F3016A
:10045800D420B50B1F2A08002203031D382A0C1EBE
:10046800332A2F08990008000800831603139F13E6
:10047800831203131F10831603139F111F159F1454
:100488001F108312031385018601870108000130BC
:10049800A2008130831603139900181518128312CD
:1004A8000313981718168316031398168312031349
:1004B8000800F001031479087502031CF00908000C
:1004C800F00176087A02031C08007A087602031CF9
:1004D800712A7908750203180800F0090800F9085C
:1004E80003190800F0010830F4000310F50DF00DB1
:1004F8007908F00275140318842A75107908F00732
:10050800F40B792A08007208840083137318831780
:10051800A322F5008000F2079A2A72088400831348
:1005280073188317A322F500F607F207F5080319D5
:100538000800A322840A8000F50B9D2A0800780889
:100548008A007708F70A0319F80A82000B3448343E
:100558005734203449343234433420344D346F34E2
:100568006434653411342034203457347234693497
:1005780074346534203474346F342034453445344D
:10058800503452344F344D34013420341234203432
:10059800203452346534613464342034663472341F
:1005A8006F346D34203445344534503452344F342C
:0205B8004D34C0
:02400E007A3FF7
:00000001FF
