:020000040000FA
:020000000428D2
:08000800831661308F008312A2
:100010000730990083169F01850185150516831207
:10002000850183160514831671309F0483120130F5
:100030009F003220073092007F3093000E309500F1
:1000400021285620851D5A20851D2428051E5E2046
:10005000051E282885183028851A30284020212898
:10006000452021280230A000A730A10B3528A00B85
:10007000342808006430A2003220A20B3C2808007B
:10008000831605158312322008008316051183128A
:10009000322008009F149F184B281E08A5008316C5
:1000A0001E088312A600A60CA60C08004A202508EC
:1000B000930008000230850632200800851E622861
:0A00C000851263288516322008001F
:02400E00C432BA
:00000001FF
