:100000000C9415030C943D030C943D030C943D0398
:100010000C943D030C943D030C943D030C943D0360
:100020000C943D030C943D030C943D030C943D0350
:100030000C943D030C943D030C943D030C943D0340
:100040000C94DF0C0C943D030C943D030C943D0385
:100050000C943D030C943D030C943D030C943D0320
:100060000C943D030C943D030001020304050608B3
:10007000090A0B0D0E1012131517191B1D2022252E
:10008000272A2D3033373A3E4145494D52565B5F62
:1000900064696E74797F858B91979DA4ABB2B9C06A
:1000A000C7CFD6DEE6EEF7FF000102030507090B16
:1000B0000E1114181D22282E363D464F59646F7CB0
:1000C0008997A6B6C7D9EBFF48656C6C6F20576F50
:1000D000726C6421210000000000240027002A0027
:1000E00000000000003E5B4F5B3E3E6B4F6B3E1CD2
:1000F0003E7C3E1C183C7E3C181C577D571C1C5EE9
:100100007F5E1C00183C1800FFE7C3E7FF001824BF
:100110001800FFE7DBE7FF30483A060E2629792969
:1001200026407F050507407F05253F5A3CE73C5A9E
:100130007F3E1C1C08081C1C3E7F14227F22145F7B
:100140005F005F5F06097F017F006689956A6060D6
:1001500060606094A2FFA29408047E040810207ED0
:10016000201008082A1C08081C2A08081E10101055
:10017000100C1E0C1E0C30383E3830060E3E0E069B
:10018000000000000000005F0000000700070014EE
:100190007F147F14242A7F2A1223130864623649AD
:1001A0005620500008070300001C22410000412295
:1001B0001C002A1C7F1C2A08083E0808008070309A
:1001C0000008080808080000606000201008040209
:1001D0003E5149453E00427F40007249494946210F
:1001E00041494D331814127F1027454545393C4A83
:1001F000494931412111090736494949364649499A
:10020000291E0000140000004034000000081422E1
:10021000411414141414004122140802015909064F
:100220003E415D594E7C1211127C7F494949363E50
:10023000414141227F4141413E7F494949417F0936
:100240000909013E414151737F0808087F00417F41
:1002500041002040413F017F081422417F4040403F
:10026000407F021C027F7F0408107F3E4141413ED7
:100270007F090909063E4151215E7F091929462659
:100280004949493203017F01033F4040403F1F205D
:1002900040201F3F4038403F631408146303047834
:1002A00004036159494D43007F4141410204081054
:1002B00020004141417F040201020440404040408F
:1002C000000307080020545478407F2844443838FD
:1002D00044444428384444287F385454541800086F
:1002E0007E090218A4A49C787F0804047800447D49
:1002F00040002040403D007F1028440000417F40E6
:10030000007C047804787C08040478384444443839
:10031000FC1824241818242418FC7C080404084819
:100320005454542404043F44243C4040207C1C206A
:1003300040201C3C4030403C44281028444C9090C5
:10034000907C4464544C440008364100000077001F
:1003500000004136080002010204023C2623263C2C
:100360001EA1A161123A4040207A385454555921B7
:10037000555579412254547842215554784020549F
:100380005579400C1E5272123955555559395454ED
:10039000545939555454580000457C410002457D5C
:1003A000420001457C407D1211127DF0282528F085
:1003B0007C545545002054547C547C0A097F4932B2
:1003C000494949323A4444443A324A4848303A4129
:1003D00041217A3A42402078009DA0A07D3D4242D2
:1003E000423D3D4040403D3C24FF2424487E49435B
:1003F000662B2FFC2F2BFF0929F620C0887E0903CE
:1004000020545479410000447D413048484A3238F4
:100410004040227A007A0A0A727D0D19317D262920
:10042000292F28262929292630484D402038080818
:10043000080808080808382F10C8ACBA2F1028344C
:10044000FA00007B000008142A142222142A14083F
:100450005500550055AA55AA55AAFF55FF55FF004E
:100460000000FF00101010FF00141414FF00101003
:10047000FF00FF1010F010F0141414FC001414F717
:1004800000FF0000FF00FF1414F404FC1414171004
:100490001F10101F101F1414141F00101010F00054
:1004A0000000001F101010101F10101010F010008E
:1004B0000000FF101010101010101010FF1000009E
:1004C00000FF140000FF00FF00001F10170000FCD9
:1004D00004F414141710171414F404F40000FF00AB
:1004E000F714141414141414F700F7141414171434
:1004F00010101F101F141414F4141010F010F0003A
:10050000001F101F0000001F14000000FC1400005A
:10051000F010F01010FF10FF141414FF141010103E
:100520001F00000000F010FFFFFFFFFFF0F0F0F0F1
:10053000F0FFFFFF0000000000FFFF0F0F0F0F0F85
:100540003844443844FC4A4A4A347E0202060602D1
:100550007E027E0263554941633844443C04407E38
:10056000201E2006027E020299A5E7A5991C2A49B1
:100570002A1C4C7201724C304A4D4D30304878483C
:1005800030BC625A463D3E494949007E0101017E28
:100590002A2A2A2A2A44445F444440514A4440407B
:1005A000444A51400000FF0103E080FF00000808BA
:1005B0006B6B083612362436060F090F060000183A
:1005C000180000001010003040FF0101001F010161
:1005D0001E00191D1712003C3C3C3C0000000000AE
:1005E00000000000250028002B000404040404047B
:1005F00004040202020202020303030303030102D2
:1006000004081020408001020408102001020408A0
:100610001020000000080002010000030407000091
:100620000000000000003D0E130F11241FBECFEF8D
:10063000D8E0DEBFCDBF11E0A0E0B1E0E6E9F1E235
:1006400002C005900D92AE35B107D9F721E0AEE5B5
:10065000B1E001C01D92A23BB207E1F713E0C4E193
:10066000D3E004C02197FE010E94920FC331D1074D
:10067000C9F70E94290D0C94BE100C94000090E064
:10068000FC01EE5EF94F2491FC01E250FA4F3491E7
:10069000FC01E651FA4FE491EE23B9F1222339F13E
:1006A000233091F038F42130A9F0223001F584B5DF
:1006B0008F7D12C0273091F02830A1F02430B9F49A
:1006C000809180008F7D03C0809180008F77809320
:1006D00080000DC084B58F7784BD09C08091B000C3
:1006E0008F7703C08091B0008F7D8093B000F0E0E1
:1006F000EE0FFF1FE052FA4FA591B4919FB7F89407
:100700008C91309538233C939FBF08957F928F92B0
:100710009F92AF92BF92CF92DF92EF92FF920F9390
:100720001F93CF93DF93FC014A01AA24BB24782CAA
:10073000C32ED42EE52EFF24BC2DA22F8085882326
:1007400061F0889E40011124792C8C9D6001112458
:10075000BD2D829F70011124AF2D9685D385E18434
:10076000F2849D1308C0CB01880F991F680F791F71
:100770006E0D7F1D1CC0660F771F660F771F6E0DF5
:100780007F1D052F1127222733277B01E90EF11C3E
:10079000811102C0202F09C090E0809F6001819FDD
:1007A000D00C909FD00C11242D2DE7012883838538
:1007B0009B01280F311DE90178828485EB01C80F68
:1007C000D11DB8838585FB01E80FF11DA083DF9162
:1007D000CF911F910F91FF90EF90DF90CF90BF903E
:1007E000AF909F908F907F9008952F923F924F925D
:1007F0005F926F927F928F929F92AF92BF92CF92B1
:10080000DF92EF92FF920F931F93CF93DF93CDB7B9
:10081000DEB76B970FB6F894DEBF0FBECDBF9B8FD0
:100820008A8F1B014A01D22E198708873701A982B6
:10083000DC0159962D913C915A972115310509F00B
:10084000FFC018968D919C911997681779070CF045
:10085000E7C11A968D919C911B97481759070CF088
:10086000DFC1EC2DF0E0FB83EA839B0146E0C49EF0
:10087000200D311D11243D872C87121613060CF014
:10088000CFC16A2D70E07B876A8783E0660F771F90
:100890008A95E1F77F876E87CB01880D991D181621
:1008A00019060CF0BDC158968C91811104C08FEAD5
:1008B0008D1508F4D394AA8DBB8DED91FC91119701
:1008C0000284F385E02DCD010995B5E0DB9EC001E2
:1008D0001124EC2DF0E0F98BE88B91012B5F3F4F59
:1008E0003B8B2A8B3D822C822101AC01421953099A
:1008F0005D8B4C8B7981672F70E07F8B6E8BC40191
:100900000896998F888FEC89FD89E40DF51DE052DA
:10091000FF4FD49054019F828E82D0FE16C0AA8DC4
:10092000BB8DED91FC91B1E0CB1209C02981213042
:1009300031F40484F585E02D2885398519C00684B5
:10094000F785E02DE884F9841DC048855985461552
:10095000570519F1AA8DBB8DED91FC91B1E0CB1239
:100960000DC02981213051F40484F585E02D9301D7
:10097000A501B2018A8D9B8D09950FC00684F7856C
:10098000E02D73010A851B852A813B814E815F81A1
:100990006C817D818A8D9B8D0995D6943FEFA31A3A
:1009A000B30A4E815F816E897F89460F571F5F832F
:1009B0004E83888D998DA816B90609F0AECF9FEFAA
:1009C000491A590AAC81BD81E889F989AE0FBF1F68
:1009D000BD83AC832A893B894216530609F093CF25
:1009E000488559854615570509F4F8C0AA8DBB8D71
:1009F000ED91FC91B1E0CB1211C02981213071F44D
:100A0000B1016B5F7F4F0088F189E02D830128E001
:100A100030E0A4018A8D9B8D0995E0C06C857D85B1
:100A20004A815B81641B750B0684F785E02D730199
:100A30000E851F859A01A4018A8D9B8D0995CEC0D4
:100A4000F9013496E491DE1AF90132968591949178
:100A5000B7E0DB9E800D911D1124F90125913491A1
:100A60003B8B2A8BFC01259134915901FC01329674
:100A70005490319634913C8732967490319614910B
:100A800041E04C1518F05981523068F0672D072C61
:100A9000000C770B7D836C83812F012E000C990B4A
:100AA0009B838A8304C01B821A821D821C82AA8DAA
:100AB000BB8DED91FC9111970284F385E02DCD0162
:100AC0000995412CD12C612CF981EF2FF0E0FF83A7
:100AD000EE832C2D30E03B872A87A401410F511D66
:100AE00017FD5A955F8B4E8BB101670D711D77FC19
:100AF0007A95798F688F7C85671608F06FC0262DF0
:100B000030E04A815B81420F531FAE81BF81A49FB9
:100B1000C001A59F900DB49F900D1124F401E80F22
:100B2000F91FF98BE88B842D712C4E895F89420F58
:100B3000531F5D8B4C8B751408F04DC051E0580F5E
:100B40005E87877041F4C5010196EA89FB89EA0D49
:100B5000FB1DD4905C01D7FE3AC061E0C61216C0FE
:100B60007981713099F4AA8DBB8DED91FC9111972B
:100B70000484F585E02D288539854C895D89688D4B
:100B8000798D670D711DCD01099521C08C819D81E5
:100B9000870D911DEA85FB858E9FB0018F9F700D9B
:100BA0009E9F700D1124620D731DAA8DBB8DED915A
:100BB000FC9111970684F785E02DE884F9840E8175
:100BC0001F812A853B8548895989CD010995DD0C0E
:100BD00073948E85B0CF450C63948DCFAA8DBB8D59
:100BE000ED91FC9111970688F789E02DCD016B9668
:100BF0000FB6F894DEBF0FBECDBFDF91CF911F912E
:100C00000F91FF90EF90DF90CF90BF90AF909F90AB
:100C10008F907F906F905F904F903F902F900994AE
:100C20006B960FB6F894DEBF0FBECDBFDF91CF91AC
:100C30001F910F91FF90EF90DF90CF90BF90AF90FA
:100C40009F908F907F906F905F904F903F902F90EC
:100C50000895CF93DF9390E0FC01E250FA4F249186
:100C6000FC01E651FA4F8491882361F190E0880FEE
:100C7000991FFC01EA52FF4FC591D491FC01E0524B
:100C8000FA4FA591B491611109C09FB7F89488817A
:100C9000209582238883EC912E230BC0623061F46F
:100CA0009FB7F8948881322F309583238883EC9105
:100CB0002E2B2C939FBF06C08FB7F894E8812E2B64
:100CC00028838FBFDF91CF9108953FB7F89480912B
:100CD0006D0190916E01A0916F01B091700126B5E8
:100CE000A89B05C02F3F19F00196A11DB11D3FBF64
:100CF000BA2FA92F982F8827820F911DA11DB11DF2
:100D0000BC01CD0142E0660F771F881F991F4A95ED
:100D1000D1F708950F931F93CF93DF93CDB7DEB72D
:100D200029970FB6F894DEBF0FBECDBF0E946506AF
:100D300000919B0110919C0120919D0130919E0199
:100D4000DC01CB01801B910BA20BB30B8C329140C9
:100D5000A105B10558F3F89480919001909191010B
:100D60009A838983E0919501F0919601DF011196B4
:100D70008081898790918C01E0919F01F091A00181
:100D80008091A101992309F42EC09081982B988716
:100D90009081809589238F838F818C8388E08B83DA
:100DA00058856F8149853B812C8189819A81508347
:100DB00047FD252F3A952083262F39F0441F00C088
:100DC00000006083000000C0F2CF38E04D916083E6
:100DD0000000019761F7F093A001E0939F0149871C
:100DE0003B832C8338C09081982B98879081809585
:100DF00089238F838F818E8388E08D8358856F81CF
:100E000049853D812E8189819A81508347FD252F17
:100E100000C000C0208300C000C000C000C000C0EF
:100E200060830000262F3A9541F0441F000000C067
:100E300000C000C000C000C0E8CF38E04D9100C045
:100E4000608300C0019709F7F093A001E0939F0130
:100E500049873D832E839A83898378940E9465060F
:100E600060939B0170939C0180939D0190939E01E0
:100E700029960FB6F894DEBF0FBECDBFDF91CF919C
:100E80001F910F9108958F929F92AF92BF92CF9230
:100E9000DF92EF92FF926B017C010E9465064B018D
:100EA0005C01C114D104E104F104F1F00E94650673
:100EB000DC01CB0188199909AA09BB09883E934036
:100EC000A105B10570F321E0C21AD108E108F108CB
:100ED00088EE880E83E0981EA11CB11CC114D104B9
:100EE000E104F10419F7DDCFFF90EF90DF90CF9090
:100EF000BF90AF909F908F900895CF92DF92EF9226
:100F0000FF920F931F93CF93DF936C017A018B01B4
:100F1000C0E0D0E0CE15DF0581F0D8016D918D01E4
:100F2000D601ED91FC910190F081E02DC60109956B
:100F3000892B11F02196EECF7E01C701DF91CF9171
:100F40001F910F91FF90EF90DF90CF900895FC01DB
:100F5000EF2FFF27E695E695E695E855FF4F24919C
:100F6000FC0135E0F695E7953A95E1F7EF73FF2739
:100F7000E859FF4F64918F719927FC01E855FF4FA5
:100F8000E491862F90E0A0E0B0E0BA2FA92F982F2F
:100F90008827A22BBC01CD016E2B08958F929F92C2
:100FA000AF92BF92CF92DF92EF92FF920F931F9377
:100FB000CF93DF938C01CB01F80124AD222329F0DC
:100FC00080AC91ACA2ACB3AC04C00E94A7074B01AB
:100FD0005C01F801E58CF68CC0E0D0E06801FBE133
:100FE000CF0ED11CCE15DF0571F0F801858D968DE1
:100FF000C817D90730F4A5019401BE01C6010E94AB
:1010000086032196EFCFDF91CF911F910F91FF9033
:10101000EF90DF90CF90BF90AF909F908F9008950A
:101020005F926F927F928F929F92AF92BF92CF9278
:10103000DF92EF92FF920F931F93CF93DF938C0178
:10104000EB017A01690177FD34C157FD32C1DC0142
:1010500018968D919C911997681779070CF029C102
:101060001A968D919C911B97481759070CF021C136
:1010700056968C915697823071F08330E1F0813032
:1010800021F514968D919C9115970197841B950BD2
:101090007B01EC011AC0F8018481958101979C01C4
:1010A000261B370BE901868197810197BC01641BE0
:1010B000750B7B010AC0D80116968D919C911797EC
:1010C0000197861B970BEA017C01D801D696ED911A
:1010D000FC91D797309739F0B701CE010995EC0113
:1010E000A12CB12CBAC0F80191A8F92DF3708F2E64
:1010F000D801D4967C90D497772009F46BC0D2960F
:101100006C90A62CB12CCE01B5010E94290F9B0139
:10111000F80153A8E52DF0E0C701BF010E94290F97
:10112000CB01A29EA001A39E500DB29E500D112492
:10113000C41BD50BE69FA001E79F500DF69F500DF5
:101140001124E41AF50A95FE08C0472D50E04150DD
:101150005109DA01A21BB30B9D0194FE06C0F801F0
:1011600085A990E00197861B970B96FC08C0472D38
:1011700050E0782F692FC901272F362F05C0D801DD
:10118000D5967C90472D50E097FE10C020FF0EC0F2
:1011900063E086262F5F3F4F249FB001259F700D8F
:1011A000349F700D11248095909507C0249FB00145
:1011B000259F700D349F700D1124680F791F659C59
:1011C00030011124669E5001679EB00C769EB00CD3
:1011D000112402C0A12CB12CAE01970181FE08C0E0
:1011E000F80182A990E00197BC016C1B7D0BAB015B
:1011F00080FE08C0D801D3962C9130E021503109EF
:101200002E193F0992FC09C0F80182A990E0722FC3
:10121000632F9A01472F562F04C0D801D3968C9183
:1012200090E093FE11C040FF0FC0EA012196C89FD5
:10123000B001C99F700DD89F700D1124E901C095B0
:10124000D095C60FD71F09C0489FE001499FD00D18
:10125000589FD00D1124C20FD31FF80184AD8823ED
:1012600029F020AD31AD42AD53AD05C0C6010E949D
:10127000A7079B01AC01B5016C0F7D1FD8015D96DE
:101280008D919C915E976817790798F4C8014B96E9
:10129000DF91CF911F910F91FF90EF90DF90CF9052
:1012A000BF90AF909F908F907F906F905F900C94C5
:1012B0008603DF91CF911F910F91FF90EF90DF9008
:1012C000CF90BF90AF909F908F907F906F905F90E6
:1012D00008950895FC016370668B84819581268151
:1012E0003781613039F0633029F091878087338707
:1012F00022870895318720879387828708958F9268
:101300009F92AF92CF92EF92FF920F931F93CF9342
:10131000DF93EC01262F898D9A8D009709F042C04A
:101320006A3059F41D861C862D898E859F8538E08C
:10133000239F800D911D112443C06D3009F4AAC074
:101340008F898823C9F03C898C859D8546E0349F30
:10135000800D911D1124488559854817590764F45B
:101360001D861C863D898E859F8548E0349F800DB3
:10137000911D11249F878E87EA88FB880889198927
:101380004E855F856C857D85AD88CC88CE010E94B9
:10139000F5032C898C859D8536E0239F800D911D5A
:1013A00011243EC06A3079F41D861C862D89FC010B
:1013B0003696E4918E859F852E9F800D911D112478
:1013C0009F878E8767C06D3009F464C0FC01349636
:1013D0003491631708F45EC03196E491E61708F47F
:1013E00059C0462F431B342FFC01329685909490B0
:1013F00047E0349F800C911C1124F4013296349103
:101400003196E491332311F0E1110DC0F4013496CB
:10141000E4912C898C859D85E29F800D911D11247E
:101420009D878C8737C0F401359644915F89552399
:1014300019F15C89E32FF0E0E40FF11D47FDFA9507
:101440005E9FB0015F9F700D11244C855D85460F36
:10145000571F688579856417750774F41D861C8687
:101460003D89FC013696E4918E859F853E9F800DD7
:10147000911D11249F878E87EA88FB880889198926
:101480004E855F856C857D85AD88CC88CE010E94B8
:10149000F503BCCF81E090E0DF91CF911F910F91D8
:1014A000FF90EF90CF90AF909F908F9008956F92A4
:1014B0007F928F929F92AF92BF92CF92DF92EF92E4
:1014C000FF920F931F93CF93DF93EC014B015A01CF
:1014D00069013801E881F9810284F385E02D0995DD
:1014E000E881F9810288F389E02D87019601A50141
:1014F000B401CE010995A501460D571D4150510972
:10150000E881F9810288F389E02D9601B401CE01CA
:101510000995E881F9810088F189E02D9301A50101
:10152000B401CE010995C80CD91CB60161507109EE
:10153000E881F9810088F189E02D9301A501CE01B0
:101540000995E881F9810688F789E02DCE01DF91C0
:10155000CF911F910F91FF90EF90DF90CF90BF90B0
:10156000AF909F908F907F906F9009948F929F92F1
:10157000AF92BF92CF92DF92EF92FF920F931F93A1
:10158000CF93DF934C016B015A01E901DC01ED912E
:10159000FC916217730781F40417150724F48B2D4F
:1015A0005801042F182F0A191B0998012F5F3F4F6C
:1015B000048CF58DE02D12C04017510709F5261750
:1015C000370724F48D2D6901C62FD82F9E012C19C1
:1015D0003D092F5F3F4F068CF78DE02D8701A50158
:1015E000B601C4010995DF91CF911F910F91FF9032
:1015F000EF90DF90CF90BF90AF909F908F90089525
:101600000284F385E02D0995D401ED91FC910488C5
:10161000F589E02D9E01A501B601C4010995D4010B
:10162000ED91FC910688F789E02DC401DF91CF91FF
:101630001F910F91FF90EF90DF90CF90BF90AF90F0
:101640009F908F900994EF92FF920F931F93DC016C
:101650001A960D911C911B9718962D913C911997F4
:10166000ED91FC9100A0F1A1E02D7B0140E050E064
:1016700060E070E009951F910F91FF90EF90089541
:101680004F925F926F927F928F929F92AF92BF9292
:10169000CF92DF92EF92FF920F931F93CF93DF933E
:1016A0006C012B015A0139014801DC01ED91FC91DB
:1016B0000284F385E02D0995E201640C751CD601C6
:1016C000ED91FC91C615D7055CF40088F189E02DF9
:1016D00087019401A501BE01C60109952196EFCFAE
:1016E0000688F789E02DC601DF91CF911F910F91F8
:1016F000FF90EF90DF90CF90BF90AF909F908F9032
:101700007F906F905F904F9009948F929F92AF92CD
:10171000BF92CF92DF92EF92FF920F931F93CF93DE
:10172000DF93EC015B014A016901E881F9810284E0
:10173000F385E02D099595012C0D3D1D21503109B2
:10174000E881F9810488F589E02D78018401A401FC
:10175000B501CE010995E881F9810688F789E02D68
:10176000CE01DF91CF911F910F91FF90EF90DF900D
:10177000CF90BF90AF909F908F9009948F929F923F
:10178000AF92BF92CF92DF92EF92FF920F931F938F
:10179000CF93DF93EC015B014A0169017801E88195
:1017A000F9810284F385E02D0995C80CD91C8601C6
:1017B00001501109E881F9810488F589E02D95012E
:1017C000A401B501CE010995E881F9810688F78960
:1017D000E02DCE01DF91CF911F910F91FF90EF90FF
:1017E000DF90CF90BF90AF909F908F900994089515
:1017F000EF92FF920F931F93DC01ED91FC9100A0FB
:10180000F1A1E02D09951F910F91FF90EF900895A0
:101810000F931F93DC01ED91FC91068CF78DE02D69
:1018200009951F910F9108950F931F93DC01ED917E
:10183000FC91048CF58DE02D09951F910F91089571
:10184000DC01ED91FC910084F185E02D09942F924B
:101850003F924F925F926F927F928F929F92AF9240
:10186000BF92CF92DF92EF92FF920F931F93CF938D
:10187000DF9300D000D000D0CDB7DEB72C017E833F
:101880006D836A015901C801FC82EB824801841A08
:10189000950A97FE03C091948194910835012D819A
:1018A0003E81621A730A77FE03C0719461947108D5
:1018B000681479045CF43A2D2B2D5C01832F922F50
:1018C0003D812E81DE82CD82C32ED22EAD81BE819E
:1018D000AA16BB065CF43C2D2D2D6C01832F922F94
:1018E0003D812E81BE82AD82A32EB22E85012D8137
:1018F0003E81021B130B1C012C183D0837FE03C050
:10190000319421943108780117FF03C03FEFE31AA7
:10191000F30AF594E794C816D9062CF08FEF9FEFE1
:101920009A83898304C0A1E0B0E0BA83A9832D81A2
:101930003E81A216B30624F1D201ED91FC910484FC
:10194000F585E02D2B813C816814790424F44D81C8
:101950005E81B60103C0A6016D817E81C201099539
:10196000E218F308F7FE06C029813A81C20ED31EA1
:10197000E00EF11E8D819E8101969E838D83D7CFCF
:1019800026960FB6F894DEBF0FBECDBFDF91CF9184
:101990001F910F91FF90EF90DF90CF90BF90AF908D
:1019A0009F908F907F906F905F904F903F902F907F
:1019B0000895089580E090E008950E94B9101F9264
:1019C0000F920FB60F9211242F933F938F939F93F3
:1019D000AF93BF938091690190916A01A0916B01CF
:1019E000B0916C013091680123E0230F2D3720F472
:1019F0000196A11DB11D05C026E8230F0296A11D69
:101A0000B11D209368018093690190936A01A093AE
:101A10006B01B0936C0180916D0190916E01A0916A
:101A20006F01B09170010196A11DB11D80936D01F0
:101A300090936E01A0936F01B0937001BF91AF912D
:101A40009F918F913F912F910F900FBE0F901F90FC
:101A50001895789484B5826084BD84B5816084BD16
:101A600085B5826085BD85B5816085BD80916E003C
:101A7000816080936E00109281008091810082606D
:101A800080938100809181008160809381008091AA
:101A900080008160809380008091B1008460809399
:101AA000B1008091B00081608093B00080917A0095
:101AB000846080937A0080917A00826080937A00BB
:101AC00080917A00816080937A0080917A008068AA
:101AD00080937A001092C1008091920190919301BD
:101AE00097FD07C061E00E942906809192010E9443
:101AF0003F0381E080938D01109288012091940131
:101B0000222339F1C0919501D0919601215051F0D5
:101B100030E040E050E06FEF7FEF80E090E00E9427
:101B20003D0F02C020E030E0FE0140919001509155
:101B30009101CF018C1B9D0B8417950740F44081C8
:101B4000429FC001439F900D11249193EECF1092BC
:101B5000940180915E0190915F0190938401809344
:101B60008301909382018093810169E57EEC81E796
:101B700091E00E94CE078091950190919601892B6A
:101B800011F00E948A0660ED77E080E090E00E940C
:101B90004307C0E0D0E002E010E060E070E081E7E1
:101BA00091E00E94CE078091660190916701909329
:101BB0007E0180937D011093800100937F0198EC5A
:101BC000E92E90E0F92EF701649161110DC080912A
:101BD0006601909167010197909367018093660178
:101BE000833D9F4F5CF035C081E791E00E947F0903
:101BF0002FEFE21AF20A892B31F7E9CF80917901B0
:101C000090917A01909367018093660180916401BD
:101C1000909165010196833091052CF490936501B4
:101C20008093640104C01092650110926401E091F8
:101C30006401F0916501EE0FFF1FE25AFE4F8081B3
:101C4000918190938401809383019093820180938A
:101C500081018091950190919601892B11F00E944C
:101C60008A0662E370E080E090E00E9443072097DC
:101C700009F493CF0E94000090CFCF93DF9310928E
:101C80007401109273018AE091E090937201809345
:101C9000710128E230E030937601209375018BE0EA
:101CA00090E0909378018093770130937A012093AC
:101CB000790190937C0180937B01109287011092AF
:101CC0007E0110927D011092800110927F0181E0CF
:101CD00080938601809385012FEF3FEF309384013D
:101CE00020938301309382012093810180938801A6
:101CF0001092890110928B0110928A0110928D012D
:101D00001092940110929B0110929C0110929D01DF
:101D100010929E0180939A018093970110929801EE
:101D200092E09093990180938C01C8E2D5E0D09322
:101D30009101C093900188E295E00E94980F9093E2
:101D4000960180939501009769F0FC019E01119224
:101D500021503040E1F788EB91E090938F01809320
:101D60008E0108C0109291011092900110928F0183
:101D700010928E0186E090E09093930180939201FF
:101D800080918D01882339F061E086E00E94290668
:101D900086E00E943F03E0EFF5E0E491F0E0EE0F13
:101DA000FF1FE052FA4F859194919093A001809388
:101DB0009F01E4E0F6E0E491E093A10186E391E085
:101DC00090937201809371011092A20188E2809336
:101DD000A3018BE08093A4011092A5011092A601AB
:101DE0001092A8011092A7011092AD0180E098EF27
:101DF00090935F0180935E0180EE97E09093610184
:101E0000809360018FE190E0909363018093620181
:101E10008091790190917A01909367018093660196
:101E2000DF91CF91089586E391E0909372018093C2
:101E3000710180919501909196010E9430108091DE
:101E400092019091930197FD03C060E00C942906E4
:101E5000089597FB072E16F4009407D077FD09D05C
:101E60000E945C0F07FC05D03EF4909581959F4F32
:101E70000895709561957F4F0895052E97FB1EF488
:101E800000940E94540F57FD07D00E94700F07FC6A
:101E900003D04EF40C94540F5095409530952195F5
:101EA0003F4F4F4F5F4F0895909580957095619586
:101EB0007F4F8F4F9F4F0895AA1BBB1B51E107C057
:101EC000AA1FBB1FA617B70710F0A61BB70B881FCA
:101ED000991F5A95A9F780959095BC01CD01089559
:101EE000A1E21A2EAA1BBB1BFD010DC0AA1FBB1F1E
:101EF000EE1FFF1FA217B307E407F50720F0A21B90
:101F0000B30BE40BF50B661F771F881F991F1A94FC
:101F100069F760957095809590959B01AC01BD0126
:101F2000CF010895EE0FFF1F0590F491E02D099465
:101F30000F931F93CF93DF938230910510F482E0CB
:101F400090E0E091B001F091B10120E030E0A0E03C
:101F5000B0E0309719F14081518102811381481717
:101F60005907C8F08417950769F4109731F0129655
:101F70000C93129713961C9327C00093B0011093F3
:101F8000B10122C02115310519F04217530718F489
:101F90009A01BD01EF01DF01F801DBCF2115310509
:101FA000F9F0281B390B2430310580F48A819B819C
:101FB0006115710521F0FB019383828304C0909326
:101FC000B1018093B001FE01329644C0FE01E20FE0
:101FD000F31F8193919322503109398328833AC0AA
:101FE0002091AE013091AF01232B41F420910201E9
:101FF000309103013093AF012093AE012091000195
:10200000309101012115310541F42DB73EB74091C2
:10201000040150910501241B350BE091AE01F091B4
:10202000AF01E217F307A0F42E1B3F0B2817390767
:1020300078F0AC014E5F5F4F2417350748F04E0F24
:102040005F1F5093AF014093AE018193919302C003
:10205000E0E0F0E0CF01DF91CF911F910F91089563
:10206000CF93DF93009709F481C0FC01329713826C
:102070001282A091B001B091B101109781F420813A
:102080003181820F931F2091AE013091AF0128174B
:10209000390751F5F093AF01E093AE0167C0ED0150
:1020A00020E030E0CE17DF0740F44A815B819E01DB
:1020B00041155105F1F0EA01F5CFD383C283408188
:1020C0005181840F951FC817D90759F488819981C8
:1020D000840F951F0296918380838A819B819383CD
:1020E00082832115310529F4F093B101E093B00109
:1020F0003DC0E901FB83EA8349915991C40FD51F83
:10210000EC17FD0761F480819181840F951F029681
:10211000E90199838883828193819B838A83E0E0AC
:10212000F0E012968D919C911397009719F0FD01A4
:10213000DC01F7CF8D919C9111979D012E5F3F4F50
:10214000820F931F2091AE013091AF0128173907FC
:1021500069F4309729F41092B1011092B00102C0D5
:1021600013821282B093AF01A093AE01DF91CF91A1
:10217000089581E090E0F8940C94BE1013E0C4E15F
:10218000D3E004C0FE010E94920F2196C531D10711
:06219000C9F7F894FFCF2F
:102196000000B2018000000000007F097D07DA0C14
:1021A600D90CDD0CF70B200CF80B140C080C270CC3
:1021B600F70B6A096909BE0B850B400B230BB60AA0
:1021C600570A000000007F097D07DA0CD90C1008B9
:1021D600F70B200CF80B140C080C270CF70B6A09EC
:0E21E6006909BE0B850B400BCE07B60A570ADF
:00000001FF
