:100000000C94D2060C94FA060C94FA060C94FA0698
:100010000C94FA060C94FA060C94FA060C94FA0660
:100020000C94FA060C94FA060C94FA060C94FA0650
:100030000C94FA060C94FA060C94FA060C94FA0640
:100040000C94100E0C94FA060C94180D0C94F20CEF
:100050000C94FA060C94FA060C94FA060C94FA0620
:100060000C94FA060C94FA06804020100804020151
:1000700001020408102040807088C4241010000081
:100080001C224F4B111101011424448404FC808074
:10009000505F4141407F0202000000FC0484442480
:1000A0000000007F4041415F0101010101010101A8
:1000B0008080808080808080FF01FFFFFF094111E8
:1000C000FF00FFFFFF084011FF80FFFFFF88C09186
:1000D00026262626FC262626404040403F4040401B
:1000E000FF47474747FF2626FF80808080FF40402C
:1000F000FFC3C37EFFC3C37E7E83BBA3A387FF7EF4
:10010000F8FEFFFFFF999967FFFFFFFFFF999966D0
:100110001F7FFFFFFF9999E60000000024002700E1
:100120002A00010204081020408001020408102067
:1001300001020408102000000000250028002B0008
:10014000040404040404040402020202020203037D
:10015000030303030100010001000100010001008D
:100160000100010001000100010001000100010087
:100170000100010001000100010001000100010077
:100180000100010001000100010001000100010067
:100190000100010001000100010001000100010057
:1001A0000100010001000100010001000100010047
:1001B0000100010001000100010001000100010037
:1001C0000100010001000100010001000100010027
:1001D0000100010001000100010001000100010017
:1001E0000100010001000100010001000100010007
:1001F00001000100010001000100010001000100F7
:1002000001000100010001000100010001000100E6
:1002100001000100A2000100A30001000100010093
:1002200001000100010001000100910092000100A5
:100230000100010001000100010091009200010095
:1002400001000100010001000100010001000100A6
:100250000100010001000100010001000100010096
:100260000100010001000100010001000100010086
:100270000100010001000100010001000100010076
:100280000100010001000100010001000100010066
:100290000100010001000100010001000100010056
:1002A00001000100010001000100A200A300A20062
:1002B000A300A200A3000100010001000100A200B0
:1002C000A300010001000100010001000100010084
:1002D00001000100010001000100A2000100010075
:1002E0000100A30001000100010001000100010064
:1002F0000100A10001000100010091009200010035
:100300000100A10001000100010001000100010045
:1003100001000100010001000100010001000100D5
:1003200001000100010001000100010001000100C5
:1003300001000B000B000B00010001000100010097
:100340000100010091009200010001000100A200E3
:10035000A3000100010001000100010001000100F3
:100360000100010001000100010001000100010085
:10037000A20001000100A300A20001000100A300EF
:10038000A200A300A20001000100A30001000100DF
:10039000A200A30001000100A200A30001000100CF
:1003A000A2000100010001000100010001000100A4
:1003B00001000100010001000100A1000100910005
:1003C0009200A100010001000100A1000100010054
:1003D000A200A300010001000100010001000100D2
:1003E00001000100010002000300040001000100FF
:1003F00001000B000B0001000100010001000100E1
:10040000010001000B000B0001000100A100010030
:1004100001000100A20001000100A300A200A3004E
:1004200001000100010001009100920001000100A3
:10043000010001000100A2000B000B000B000B00EB
:100440000B000B0001000100A300A200010001004D
:1004500001000100A300A20001000100A300A2000E
:1004600001000100A300A2000100010001006600DC
:10047000670001000100010001000100010001000E
:100480000100A1000100A1000100A1000100010084
:1004900001004C004D004D004D004D004E0001008C
:1004A000010002000300040001000100010001003E
:1004B0000E00010001000100010001000100010027
:1004C0000100010001000100010001000100010024
:1004D00001000100A10001000100A20001000100D3
:1004E00001000100A3000100A30037003800010053
:1004F000A1000100010001000B000B00A20001009F
:100500000B000100A200010001000B00010001002E
:100510000200030004000100010001000100A3002B
:1005200001000100A2000100010001000100A30080
:10053000A200A30001007600770001004D004D00ED
:100540004D004D004D004D004D004D004D004D0043
:100550004D004D004D004D004D0057005700570015
:100560005700570050000100010001000E0001007B
:1005700001000100010001000E0001000100010066
:100580000100010001000100010001000100010063
:100590000100010001000100010001004C004D00BC
:1005A0004D004D004D004D004D004D004D004D00E3
:1005B0004E00470048004C004D004E000100010075
:1005C0000100A200010001000B00A20001000100D7
:1005D00001000B000100A20001000E00010001005B
:1005E0000100010001004C004D004D004D004D0088
:1005F0004D004D004D004D004D004D004D004D0093
:100600004D004D000000000000000000000000FF51
:10061000FFFFFFFFFFFFFFFFFFF0FFFFFFF8930C5F
:1006200061FFFFFFF0FFFFFFF39324E4FFFFFFF004
:10063000FFFFFFF19324E4FFFFFFF0FFFFFFF893BC
:100640000C61FFFFFFF0FFFFFFFC933CE1FFFFFFAA
:10065000F0FFFFFFFC933CE4FFFFFFF0FFFFFFF123
:10066000C73C64FFFFFFF0FFFFFFFFFFFFFFFFFF3F
:10067000FFF0000000000000000000000001CE07B5
:100680008FE7E3CF7B9C3E0003CF078FF7F3CF7B51
:100690009CFE0003FF0F8FF7FBCF7B9DFF0007FF42
:1006A0001CCE773BCF7BDDE78007FF9CCE773BCF2F
:1006B0007BFDC3800F77BFEE773BCF7BFDC3801FF1
:1006C000278FE7E73BCF7BBDE7801E53EFF7F7FBB4
:1006D000FF7B9CFF803EABE8F777F9FE7B9D7F00B8
:1006E0000D0BE6E73BE2FD7B9CB880220409104439
:1006F0001902006047001C03E0E7BBE0FC7B9C386C
:1007000000000000000000000000000000002800C1
:10071000780008007800200030000800B8002000B1
:1007200018000800E8001800180008001801180058
:1007300010000800380110001800080060011800BF
:10074000100008008001280080000800100220002E
:1007500010000800300218003000080030022000AD
:10076000080010005802200008001000700220004D
:1007700018000800A802280078000800D80120000E
:100780001000080003E01C1023C81D3821642264F7
:100790001F1808381FC639895FD156F22FFC23F283
:1007A00011220E1C03E01C1023C81D382164226492
:1007B0001F18783E97C999895FCA36FC2FFC23F22F
:1007C00011220E1C07C0083813C41CB82684264406
:1007D00018F87C1E93E9919953FA3F6C3FF44FC48B
:1007E0004488387007C0083813C41CB826842644CF
:1007F00018F81C1063F8919C8BFA4F6A3FF44FC4B1
:100800004488387007CE083111C91EBA268626469C
:1008100018FC0C143FE8719E89698BF17FF28FF20E
:100820009F8C6E00000007E0081813C41CB82684D3
:10083000264418F80C1013E021902FF011B012701C
:100840000C2007C073E08C1093885D78616462644B
:100850003F18283017FC798E96918FD14FFE4FF1BB
:1008600031F90076000007E0181023C81D38216414
:1008700022641F18083007C809840FF40D880E4839
:10088000043003E000000000003E5B4F5B3E3E6B27
:100890004F6B3E1C3E7C3E1C183C7E3C181C577D1A
:1008A000571C1C5E7F5E1C00183C1800FFE7C3E766
:1008B000FF0018241800FFE7DBE7FF30483A060E78
:1008C0002629792926407F050507407F05253F5ABF
:1008D0003CE73C5A7F3E1C1C08081C1C3E7F14222F
:1008E0007F22145F5F005F5F06097F017F006689DA
:1008F000956A606060606094A2FFA29408047E0420
:100900000810207E201008082A1C08081C2A080845
:100910001E101010100C1E0C1E0C30383E38300605
:100920000E3E0E06000000000000005F0000000701
:10093000000700147F147F14242A7F2A122313082F
:10094000646236495620500008070300001C22410B
:10095000000041221C002A1C7F1C2A08083E0808AF
:10096000008070300008080808080000606000205F
:10097000100804023E5149453E00427F4000724942
:100980004949462141494D331814127F10274545E6
:1009900045393C4A494931412111090736494949FC
:1009A00036464949291E000014000000403400006A
:1009B00000081422411414141414004122140802D3
:1009C000015909063E415D594E7C1211127C7F4946
:1009D0004949363E414141227F4141413E7F49499B
:1009E00049417F090909013E414151737F080808C7
:1009F0007F00417F41002040413F017F0814224198
:100A00007F404040407F021C027F7F0408107F3EF1
:100A10004141413E7F090909063E4151215E7F095E
:100A2000192946264949493203017F01033F4040C5
:100A3000403F1F2040201F3F4038403F63140814B0
:100A40006303047804036159494D43007F414141E8
:100A50000204081020004141417F040201020440C9
:100A600040404040000307080020545478407F284D
:100A70004444383844444428384444287F38545443
:100A8000541800087E090218A4A49C787F08040466
:100A90007800447D40002040403D007F1028440005
:100AA00000417F40007C047804787C080404783896
:100AB00044444438FC1824241818242418FC7C08C6
:100AC000040408485454542404043F44243C404043
:100AD000207C1C2040201C3C4030403C44281028F6
:100AE000444C9090907C4464544C4400083641003F
:100AF0000000770000004136080002010204023CB9
:100B00002623263C1EA1A161123A4040207A385487
:100B10005455592155557941225454784221555400
:100B2000784020545579400C1E5272123955555553
:100B300059395454545939555454580000457C413E
:100B40000002457D420001457C407D1211127DF07E
:100B5000282528F07C545545002054547C547C0AA8
:100B6000097F4932494949323A4444443A324A4871
:100B700048303A4141217A3A42402078009DA0A075
:100B80007D3D4242423D3D4040403D3C24FF2424C7
:100B9000487E4943662B2FFC2F2BFF0929F620C0E6
:100BA000887E090320545479410000447D41304837
:100BB000484A32384040227A007A0A0A727D0D197A
:100BC000317D2629292F28262929292630484D40DC
:100BD00020380808080808080808382F10C8ACBAD8
:100BE0002F102834FA00007B000008142A14222257
:100BF000142A14085500550055AA55AA55AAFF55A0
:100C0000FF55FF000000FF00101010FF0014141427
:100C1000FF001010FF00FF1010F010F0141414FC6F
:100C2000001414F700FF0000FF00FF1414F404FC8C
:100C3000141417101F10101F101F1414141F00106D
:100C40001010F0000000001F101010101F101010E6
:100C500010F010000000FF101010101010101010F5
:100C6000FF10000000FF140000FF00FF00001F1035
:100C7000170000FC04F414141710171414F404F4EF
:100C80000000FF00F714141414141414F700F714E0
:100C90001414171410101F101F141414F41410102F
:100CA000F010F000001F101F0000001F14000000D3
:100CB000FC140000F010F01010FF10FF141414FFCB
:100CC000141010101F00000000F010FFFFFFFFFFC6
:100CD000F0F0F0F0F0FFFFFF0000000000FFFF0F5A
:100CE0000F0F0F0F3844443844FC4A4A4A347E02FE
:100CF000020606027E027E0263554941633844447F
:100D00003C04407E201E2006027E020299A5E7A533
:100D1000991C2A492A1C4C7201724C304A4D4D30A4
:100D20003048784830BC625A463D3E494949007EC9
:100D30000101017E2A2A2A2A2A44445F4444405160
:100D40004A444040444A51400000FF0103E080FF14
:100D5000000008086B6B083612362436060F090FA0
:100D600006000018180000001010003040FF0101BC
:100D7000001F01011E00191D1712003C3C3C3C00E5
:100D800000000000000000002300260029000000F1
:100D9000000800020100000304070000000000003A
:100DA0000000801F11241FBECFEFD8E0DEBFCDBFF3
:100DB00015E0A0E0B1E0E4E0F9E402C005900D9296
:100DC000AE33B107D9F726E0AEE3B5E001C01D921E
:100DD000A237B207E1F716E0C2EDD6E004C02197D2
:100DE000FE010E943620C13DD107C9F70E949D1225
:100DF0000C9480240C940000CF92DF92EF92FF922B
:100E00000F931F93CF93DF936C017A018B01C0E0A6
:100E1000D0E0CE15DF0589F0D8016D918D01D601A6
:100E2000ED91FC910190F081E02DC6010995892B8F
:100E300011F47E0102C02196ECCFC701DF91CF9162
:100E40001F910F91FF90EF90DF90CF900895FC01DC
:100E5000918D828D981761F0828DDF01A80FB11DF1
:100E60005D968C91928D9F5F9F73928F90E0089515
:100E70008FEF9FEF0895FC01918D828D981731F0CF
:100E8000828DE80FF11D858D90E008958FEF9FEF23
:100E90000895FC01918D228D892F90E0805C9F4FF9
:100EA000821B91098F73992708958FE695E00E9420
:100EB000490721E0892B09F420E0822F0895FC01E5
:100EC000848DDF01A80FB11DA35ABF4F2C91848DD3
:100ED00090E001968F739927848FA689B7892C9308
:100EE000A089B1898C9180648C93938D848D9813A3
:100EF00006C00288F389E02D80818F7D808308956C
:100F0000EF92FF920F931F93CF93DF93EC0181E059
:100F1000888F9B8D8C8D981305C0E889F989808115
:100F200085FD24C0F62E0B8D10E00F5F1F4F0F7351
:100F30001127E02E8C8DE8120CC00FB607FCFACFFB
:100F4000E889F989808185FFF5CFCE010E945F078E
:100F5000F1CF8B8DFE01E80FF11DE35AFF4FF082B8
:100F60000B8FEA89FB898081806207C0EE89FF8947
:100F70006083E889F98980818064808381E090E0E2
:100F8000DF91CF911F910F91FF90EF900895CF9334
:100F9000DF93EC01888D8823C9F0EA89FB89808181
:100FA00085FD05C0A889B9898C9186FD0FC00FB653
:100FB00007FCF5CF808185FFF2CFA889B9898C9194
:100FC00085FFEDCFCE010E945F07E7CFDF91CF9184
:100FD000089580E090E0892B29F00E945507811147
:100FE0000C9400000895833081F028F4813099F04A
:100FF0008230A1F008958730A9F08830B9F08430AC
:10100000D1F4809180008F7D03C0809180008F7724
:1010100080938000089584B58F7702C084B58F7D5A
:1010200084BD08958091B0008F7703C08091B00097
:101030008F7D8093B0000895FC0177FD68C08085A6
:101040009185681779070CF062C057FD60C08285F2
:101050009385481759070CF05AC08589823059F09A
:101060008330B1F08130D1F48FE290E0861B970B92
:10107000BA01AC0113C083E590E0FC01E61BF70B5D
:10108000BF018FE290E0FC01E41BF50BAF0106C04D
:1010900083E590E0841B950BAB01BC0164357105C1
:1010A000B0F54033510598F5CA01E3E09595879571
:1010B000EA95E1F747705527232BA1F024E5289FF7
:1010C000F001299FF00D11246E0F7F1FFB01E25FDD
:1010D000FE4F81E090E001C0880F4A95EAF79081C9
:1010E000892B14C024E5289FF001299FF00D1124BD
:1010F0006E0F7F1FFB01E25FFE4F81E090E001C0B9
:10110000880F4A95EAF78095908189238083089516
:1011100008952F923F924F925F926F927F928F929B
:101120009F92AF92BF92CF92DF92EF92FF920F9376
:101130001F93CF93DF93CDB7DEB76B970FB6F894BD
:10114000DEBF0FBECDBF4C015A8349831F830E8380
:10115000FD82EC82CB82DC0158964D915C915997CF
:101160004115510509F0A5C018968D919C911997CC
:10117000681779070CF05AC11A968D919C911B97AC
:10118000E981FA81E817F9070CF050C1D12CCB01A5
:101190003B81F6E03F9F800D911D11241816190622
:1011A0000CF044C1C60133E0880F991F3A95E1F76E
:1011B00049815A81840F951F181619060CF036C103
:1011C00057968C91811103C0203B08F02F5F55E0AA
:1011D000259F900111247E876D875B01212CC90119
:1011E000861B970B99878887A981BA811896BB8738
:1011F000AA87B5E02B1641F0E885F985EA0DFB1DBD
:10120000EC57F74F349001C0312C69807A8023016C
:1012100030FE12C0D401ED91FC91BB81B13031F4AC
:101220000480F581E02D2E813F8118C00684F7856A
:10123000E02DEE80FF801CC0EC81FD812E813F817E
:10124000E217F307E1F0D401ED91FC91BB81B130DD
:1012500051F40480F581E02D2C813D81A301B5017D
:10126000C40109950CC00684F785E02DEC80FD8053
:1012700086019601A2016D857E85C401099536948B
:10128000EFEF6E1A7E0A4C0C5D1C2A853B856216B8
:10129000730609F0BDCF23943FEFA31AB30A4D851F
:1012A0005E854C0D5D1D5E874D8756E02512A1CFF2
:1012B000BDC0FA0134963491329785919491231BE5
:1012C000A7E02A9F800D911D1124FA0125913491E8
:1012D0003A8B298BFC0125903490FC013296349195
:1012E0003887319644914C873196E491FC013596CC
:1012F000A491319684915B81523050F06A2E0A2E6F
:10130000000C7708E82F082E000CFF0BFB87EA87FC
:10131000FB81CF2ED12C6C9C90016D9C300D7C9C60
:10132000300D1124A901460F571F588B4F871C827F
:10133000A12CEA2FAA0FFF0B3B016E0E7F1E5885D2
:10134000650F711DDB01AE0FBF1FBF8BAE8BE98137
:10135000FA81E80FF11D87FDFA95F98FE88F9C85DA
:10136000A91608F063C08A2D90E04A855B85480F76
:10137000591F4C9D90014D9D300D5C9D300D1124E9
:10138000A981BA81A20FB31FBE87AD877B8E6A8EFB
:101390004F845888BC81B619BB8BE88DF98DE80F56
:1013A000F91FFD8BEC8B8B89FA8D8F0F2A8D3B8D6E
:1013B0004E895F892417350799F1877041F4C1017F
:1013C0000196E989FA89E20DF31DB4901C01B7FE7C
:1013D0001EC0D401ED91FC91BB81B13061F4048059
:1013E000F581E02D2E813F814C895D896A8D7B8D51
:1013F000C40109950CC00684F785E02DEE80FF80BE
:10140000860196014D855E85B201C4010995BB0C2C
:10141000EA8DFB8D3196FB8FEA8F4C0C5D1CC3CFA0
:101420005C818885580F5C83A39499CF6B960FB627
:10143000F894DEBF0FBECDBFDF91CF911F910F910A
:10144000FF90EF90DF90CF90BF90AF909F908F90E4
:101450007F906F905F904F903F902F900895AF9244
:10146000BF92CF92EF92FF920F931F93CF93DF9390
:10147000EC01262F888D998D009709F042C06A30C3
:1014800069F42C898E859F8538E0239F800D911DFE
:1014900011249F878E871D861C86ACC06D3009F491
:1014A000A9C08E898823C1F03C898C859D8546E042
:1014B000349F800D911D1124488559858417950707
:1014C0005CF01D861C868E859F85E8E03E9F800D22
:1014D000911D11249F878E87EA88FB8808891989C6
:1014E0004E855F856C857D85CC88CE010E948908FC
:1014F0002C898C859D85F6E02F9F800D911D1124F0
:1015000041C06A3079F41D861C862C89FC01369610
:10151000E4918E859F852E9F800D911D11249F87BC
:101520008E8768C06D3009F465C0AC014C5F5F4FB9
:10153000FA013491631708F45DC03196E491E6171F
:1015400008F458C0FA014491362F341BFC0132963E
:10155000A590B490F7E03F9FA00CB11C1124F501B9
:10156000329634913196E491332311F0E1110DC09C
:10157000F5013496E4912C898C859D85E29F800D40
:10158000911D11249D878C8735C0F50135964491B6
:101590005E89552311F16C89E32FF0E0E40FF11D12
:1015A00047FDFA956E9FD0016F9FB00D11244C85B9
:1015B0005D854A0F5B1FE885F9854E175F076CF064
:1015C0001D861C86FC013696E4918E859F856E9F54
:1015D000800D911D11249F878E87EA88FB880889DA
:1015E00019894E855F856C857D85CC88CE010E94EA
:1015F0008908BECF81E090E0DF91CF911F910F91DC
:10160000FF90EF90CF90BF90AF900895EF92FF9230
:101610000F931F93DC01ED91FC9111971A960D9198
:101620001C911B9718962D913C9119970684F7856C
:10163000E02D7B0140E050E060E070E009951F91F3
:101640000F91FF90EF9008956F927F928F929F92EB
:10165000AF92BF92CF92DF92EF92FF920F931F93C0
:10166000CF93DF936C015A014801EB013B01620EFD
:10167000731EC615D70574F4D601ED91FC91008454
:10168000F185E02D87019401A501BE01C6010995F0
:101690002196EFCFDF91CF911F910F91FF90EF90A7
:1016A000DF90CF90BF90AF909F908F907F906F9082
:1016B0000895EF92FF920F931F93DC01ED91FC913F
:1016C000260F371F215031090680F781E02D780160
:1016D0008A0109951F910F91FF90EF900895EF9265
:1016E000FF920F931F937801DC01ED91FC91240F81
:1016F000351F8901015011090680F781E02D9B01FA
:1017000009951F910F91FF90EF9008956F927F922E
:101710008F929F92AF92BF92CF92DF92EF92FF9201
:101720000F931F93CF93DF93EC014B015A01690193
:101730003801E881F9810284F385E02D870109955C
:10174000E881F981A501460D571D415051090284D8
:10175000F385E02D9601B401CE010995E881F98168
:101760000084F185E02D9301A501B401CE01099516
:10177000E881F981C80CD91CB60161507109008457
:10178000F185E02D9301A501CE010995DF91CF915F
:101790001F910F91FF90EF90DF90CF90BF90AF908F
:1017A0009F908F907F906F9008952F923F924F92CD
:1017B0005F926F927F928F929F92AF92BF92CF92E1
:1017C000DF92EF92FF920F931F93CF93DF9300D09E
:1017D0001F92CDB7DEB74C017B836A836A01590142
:1017E00017019801241B350B37FF03C03195219554
:1017F0003109C5014A815B81841B950B97FF03C0AA
:1018000091958195910951E059838217930714F0BE
:1018100019820BC09A2D8B2D5801092F182F9A81F0
:101820008B81DB82CA82C92ED82E8A819B81A81621
:10183000B9065CF49C2D8D2D6801092F182F9A8113
:101840008B81BB82AA82A92EB82E2501AA81BB81D9
:101850004A1A5B0A38016C187D0877FE03C0719440
:1018600061947108720157FE03C0BFEFEB1AFB0AC7
:10187000F594E794C016D1061CF00FEF1FEF1FC0C0
:1018800001E010E01CC0D401ED91FC91B98104800D
:10189000F581E02D9101BB23C1F04A815B81B60146
:1018A000C4010995E618F708F7FE04C0C00ED11E62
:1018B000E40CF51CEA81FB813196FB83EA834A81C3
:1018C0005B81A416B506FCF604C0A6016A817B8183
:1018D000E7CF0F900F900F90DF91CF911F910F9155
:1018E000FF90EF90DF90CF90BF90AF909F908F9040
:1018F0007F906F905F904F903F902F9008950E943F
:10190000DB220F931F93CF93DF93EC0188819981A2
:10191000009729F02A813B812617370788F48B012D
:101920006F5F7F4F0E941122009761F09983888337
:101930001B830A832C813D81232B11F4FC0110822F
:1019400081E001C080E0DF91CF911F910F91089558
:10195000CF93DF93EC0188819981009711F00E9469
:101960007921198218821D821C821B821A82DF91C2
:10197000CF910895EF92FF920F931F93CF93DF9330
:10198000EC017B018A01BA010E94810C811104C023
:10199000CE010E94A80C07C01D830C83B70188816B
:1019A00099810E94E922CE01DF91CF911F910F9181
:1019B000FF90EF900895CF93DF93EC0161157105CF
:1019C00059F0FB0101900020E9F73197AF01461B68
:1019D000570B0E94BA0C02C00E94A80CCE01DF91E6
:1019E000CF9108951F920F920FB60F9211242F934B
:1019F0003F934F935F936F937F938F939F93AF9397
:101A0000BF93EF93FF938FE695E00E945F07FF91EE
:101A1000EF91BF91AF919F918F917F916F915F9166
:101A20004F913F912F910F900FBE0F901F901895DF
:101A30001F920F920FB60F9211242F938F939F93A3
:101A4000EF93FF93E0917F05F09180058081E09115
:101A50008505F091860582FD12C0908180918805F0
:101A60008F5F8F7320918905821751F0E09188056F
:101A7000F0E0E159FA4F958F8093880501C080818D
:101A8000FF91EF919F918F912F910F900FBE0F902B
:101A90001F901895CF93DF93282F30E0F901E2577C
:101AA000F24F8491F901EE5DFE4FD491F901E05CB3
:101AB000FE4FC491CC2391F081110E94F307EC2FCB
:101AC000F0E0EE0FFF1FEC57F24FA591B491EC91AF
:101AD000ED2381E090E021F480E002C080E090E01E
:101AE000DF91CF9108951F93CF93DF93282F30E09C
:101AF000F901E257F24F8491F901EE5DFE4FD49166
:101B0000F901E05CFE4FC491CC23C9F0162F81117E
:101B10000E94F307EC2FF0E0EE0FFF1FEA5CFE4F90
:101B2000A591B4918FB7F894111105C09C91ED2F38
:101B3000E095E92302C0EC91ED2BEC938FBFDF9190
:101B4000CF911F910895CF93DF9390E0FC01EE5D5C
:101B5000FE4F2491FC01E05CFE4F8491882361F1EB
:101B600090E0880F991FFC01E85EFE4FC591D4916B
:101B7000FC01EA5CFE4FA591B491611109C09FB7C9
:101B8000F8948881209582238883EC912E230BC0C2
:101B9000623061F49FB7F8943881822F8095832357
:101BA0008883EC912E2B2C939FBF06C08FB7F8949F
:101BB000E8812E2B28838FBFDF91CF9108953FB707
:101BC000F8948091650590916605A0916705B091A4
:101BD000680526B5A89B05C02F3F19F00196A11DE9
:101BE000B11D3FBFBA2FA92F982F8827820F911DB3
:101BF000A11DB11DBC01CD0142E0660F771F881FFA
:101C0000991F4A95D1F708952FB7F894609161050F
:101C10007091620580916305909164052FBF0895CE
:101C20001F920F920FB60F9211242F933F938F9311
:101C30009F93AF93BF938091610590916205A091AE
:101C40006305B09164053091600523E0230F2D37C3
:101C500020F40196A11DB11D05C026E8230F0296B0
:101C6000A11DB11D209360058093610590936205CD
:101C7000A0936305B0936405809165059091660516
:101C8000A0916705B09168050196A11DB11D8093D3
:101C9000650590936605A0936705B0936805BF91AD
:101CA000AF919F918F913F912F910F900FBE0F9009
:101CB0001F9018958F929F92AF92BF92CF92DF9212
:101CC000EF92FF920F931F93CF93DF93EC018B0161
:101CD00088809980AA80BB80FB01C080D180E2808F
:101CE000F3802085318542855385C701B6010E9466
:101CF0003D209B01AC01C501B4010E94252387FF53
:101D000036C0288539854A855B85C501B4010E94A6
:101D10003D20A70196010E94DF20181644F58C8013
:101D20009D80AE80BF80F801C480D580E680F780BA
:101D30002485358546855785C701B6010E943D201B
:101D40009B01AC01C501B4010E94252387FF0FC090
:101D50002C853D854E855F85C501B4010E943D20DF
:101D6000C1E0A70196010E94DF2018160CF0C0E028
:101D70008C2FDF91CF911F910F91FF90EF90DF900B
:101D8000CF90BF90AF909F908F9008952F923F92E9
:101D90004F925F926F927F928F929F92AF92BF927B
:101DA000CF92DF92EF92FF920F931F93CF93DF9327
:101DB000CDB7DEB7A8970FB6F894DEBF0FBECDBF84
:101DC0004B015C0129A33AA34BA35CA31E0181E153
:101DD000280E311C80E1D1011D928A95E9F780E03F
:101DE00090E0A0E2B1E4898F9A8FAB8FBC8F80E046
:101DF00090E0A0E8B1E48D8F9E8FAF8FB8A3C09024
:101E00002C06D0902D06E0902E06F0902F068091A3
:101E1000140690911506A0911606B09117068DA391
:101E20009EA3AFA3B8A720E030E040E450E4C70190
:101E3000B6010E943D20A50194010E943D202DA1E4
:101E40003EA14FA158A50E943D20698B7A8B8B8BB8
:101E50009C8B409030065090310660903206709016
:101E6000330629A13AA14BA15CA1C301B2010E9492
:101E70003D206D8B7E8B8F8B988F0CE017E0F801E7
:101E80006591749180E090E00E942A2369837A83AF
:101E90008B839C83F80132966591749180E090E089
:101EA0000E942A236D837E838F839887F80134965E
:101EB0006591749180E090E00E942A2369877A8777
:101EC0008B879C87F80136966591749180E090E04D
:101ED0000E942A236D877E878F87988BBE016F5F54
:101EE0007F4FC1010E945A0E882309F441C120E0AE
:101EF00030E0A901C501B4010E942523882309F41B
:101F00008DC0609143057091440580914505909185
:101F100046050E94A920072E000C880B990B0E94F1
:101F20002C234B015C01609343057093440580931F
:101F3000450590934605C701B6010E94A920072ECA
:101F4000000C880B990B0E942C2360932C06709335
:101F50002D0680932E0690932F0640902C065090CD
:101F60002D0660902E0670902F0620E030E040E4B1
:101F700050E4C301B2010E943D202DA13EA14FA11A
:101F800058A50E943D2069A37AA38BA39CA320E0BF
:101F900030E0A901C501B4010E94DF201816A4F0A9
:101FA00020E030E0A901C501B4010E94252387FD8E
:101FB00004C0C12CD12C76010DC0C12CD12C30E82D
:101FC000E32E3FEBF32E06C0C12CD12C20E8E22EED
:101FD0002FE3F22EA701960169A17AA18BA19CA102
:101FE0000E943D20698B7A8B8B8B9C8BBE016F5F2F
:101FF0007F4FC1010E945A0E811107C0A7019601AF
:10200000C301B2010E943D20A0CF1092430510925F
:1020100044051092450510924605B1C020E030E01D
:10202000A90169A17AA18BA19CA10E9425238823E3
:1020300009F49EC060913F05709140058091410573
:10204000909142050E94A920072E000C880B990B45
:102050000E942C234B015C0160933F057093400567
:102060008093410590934205C301B2010E94A920CB
:10207000072E000C880B990B0E942C2360933006CE
:102080007093310680933206909333068091180640
:1020900090911906A0911A06B0911B068DA39EA3DC
:1020A000AFA3B8A74090300650903106609032063A
:1020B000709033062DA13EA14FA158A5C301B201D6
:1020C0000E943D2069A37AA38BA39CA320E030E06B
:1020D000A901C501B4010E94DF201816A4F020E078
:1020E00030E0A901C501B4010E94252387FD04C089
:1020F000C12CD12C76010DC0C12CD12C90E8E92E39
:102100009FEBF92E06C0C12CD12C80E8E82E8FE37E
:10211000F82EA701960169A17AA18BA19CA10E942A
:102120003D206D8B7E8B8F8B988FBE016F5F7F4FB5
:10213000CE0141960E945A0E81110FC0A70196014F
:10214000C301B2010E943D206093300670933106B6
:102150008093320690933306A5CF10923F051092DC
:102160004005109241051092420510923E0507C0AD
:10217000085F1F4F97E00438190709F080CEA89632
:102180000FB6F894DEBF0FBECDBFDF91CF911F9188
:102190000F91FF90EF90DF90CF90BF90AF909F9006
:1021A0008F907F906F905F904F903F902F90089509
:1021B00090915A069F3F21F490915B069F3F59F101
:1021C00028E030E040E8E0916106F091620650813D
:1021D00090916406909595239083E0915F06F0912D
:1021E000600690916306542F582319F05081952B67
:1021F00003C05081909595239083E0916106F09102
:102200006206508190916406952B908346952150EB
:102210003109C9F608958EBD00000DB407FEFDCF4B
:102220008EB50895CF92DF92EF92FF920F931F9396
:10223000CF93DF9300D000D000D0CDB7DEB785E0DC
:102240000E944A0D9A83898386E00E944A0D9C83EE
:102250008B8387E00E944A0D9E838D83ECE6F5E038
:1022600088E6C82E86E0D82E69E675E02BE636E0D3
:1022700085E696E08E010F5F1F4F41E050815523A8
:1022800019F01082D9014C93D6015C91552319F0B5
:102290001C92DC014C93D801ED90FD908D01DB0187
:1022A000EF2859F44C93D6011C92DC011C92D90101
:1022B0005C9151110CC040830AC01C921082D9015C
:1022C0001C92DC015C91511102C0D6014C933196F5
:1022D000BFEFCB1ADB0A6F5F7F4F2F5F3F4F019637
:1022E00055E0EF36F50751F626960FB6F894DEBFA7
:1022F0000FBECDBFDF91CF911F910F91FF90EF9057
:10230000DF90CF9008952F923F924F925F927F92ED
:102310008F929F92AF92BF92CF92DF92EF92FF92F5
:102320000F931F93CF93DF93CDB7DEB728970FB6E8
:10233000F894DEBF0FBECDBF6C011B012A0159010D
:10234000FC82EB82C801079697FD07969C0193E0FB
:10235000359527959A95E1F73A832983812C912C1D
:10236000E12CF12CEB81FC81EE16FF060CF042C053
:1023700018861F829701240D351D3E832D838F8182
:1023800098858017910774F58F81988587709927B4
:10239000892B11F0770C0EC0EF81F885F7FD379689
:1023A00083E0F595E7958A95E1F7E80DF91DEA0DCB
:1023B000FB1D749077FE10C0D601ED91FC91048056
:1023C000F581E02D21E030E04D815E816F817885DF
:1023D000620D731DC6010995EF81F8853196F88766
:1023E000EF83CDCF9FEFE91AF90AA981BA818A0E4E
:1023F0009B1EB8CF28960FB6F894DEBF0FBECDBF98
:10240000DF91CF911F910F91FF90EF90DF90CF90D0
:10241000BF90AF909F908F907F905F904F903F9034
:102420002F90089588EF91E0EEE0F1E0DF019C014C
:102430001D9221503040E1F7E0E4F6E01586148665
:10244000178616860895CF93C82F60E080915C06AA
:102450000E94730D80915E0618161CF460E00E94C5
:10246000730D8C2F0E94D81080915E06181624F4EC
:1024700061E0CF910C94730DCF910895EF92FF928C
:102480000F931F93CF938EE0E82E81E0F82EC0E0EB
:102490008C2F80640E94231280E80E94231261E046
:1024A00080915C060E94730D80915E0618161CF4E4
:1024B00060E00E94730D00E010E0F701E00FF11FF3
:1024C00080810E94D8100F5F1F4F04351105A9F7B6
:1024D00080915E0618161CF461E00E94730DCF5FB8
:1024E00084E5E80EF11CC63099F680E4CF911F9187
:1024F0000F91FF90EF900C942312009769F0FC016C
:1025000001900020E9F73197AF01481B590BBC013E
:1025100080E496E00C94FC0680E090E00895CF9370
:10252000DF930E947D12EC018AE395E00E947D1208
:102530008C0F9D1FDF91CF910895CF93DF93CDB77F
:10254000DEB7E0970FB6F894DEBF0FBECDBF78942C
:1025500084B5826084BD84B5816084BD85B58260A8
:1025600085BD85B5816085BD80916E008160809359
:102570006E001092810080918100826080938100C2
:1025800080918100816080938100809180008160D2
:10259000809380008091B10084608093B10080912D
:1025A000B00081608093B00080917A008460809355
:1025B0007A0080917A00826080937A0080917A001C
:1025C000816080937A0080917A00806880937A009D
:1025D0001092C100E0917F05F091800582E0808338
:1025E000E0917B05F0917C051082E0917D05F091F2
:1025F0007E058FEC808310928705E0918305F09132
:10260000840586E08083E0918105F09182058081D8
:1026100080618083E0918105F091820580818860EE
:102620008083E0918105F0918205808180688083BC
:10263000E0918105F091820580818F7D808380917A
:102640005A068F3F31F490915B069F3F11F40C9432
:10265000F61E61E00E94A30D61E080915B060E947E
:10266000A30D80915B06082E000C990BFC01E05C29
:10267000FE4FE491F0E0EE0FFF1FEA5CFE4F259164
:1026800034913093620620936106FC01EE5DFE4FAB
:10269000E491E093640680915A06082E000C990B91
:1026A000FC01E05CFE4FE491F0E0EE0FFF1FEA5CFE
:1026B000FE4F259134913093600620935F06FC0114
:1026C000EE5DFE4FE491E093630661E080915C066D
:1026D0000E94A30D80915D0618161CF461E00E9413
:1026E000A30D80915E0618161CF461E00E94A30DF4
:1026F00080915D0618167CF560E00E94730D0E94C3
:10270000DF0D4B015C01B4EFCB2EDD24D394E12C23
:10271000F12C0E94DF0DDC01CB0188199909AA096F
:10272000BB09883E9340A105B10558F021E0C21ACB
:10273000D108E108F10838EE830E33E0931EA11CA6
:10274000B11CC114D104E104F10419F761E08091D6
:102750005D060E94730D81E20E94231284E10E94B3
:10276000231288EA0E94231280E20E9423128CE046
:102770000E9423120E943E1281E20E94231282EBE9
:102780000E94231280E20E94231260E087E00E94F0
:10279000A30D61E087E00E94730D60E086E00E9477
:1027A000A30D61E086E00E94730D60E085E00E9469
:1027B000A30D61E085E00E94730D84E690E09093A4
:1027C0003B0680933A0686E090E090933D06809326
:1027D0003C0680E496E090933F0680933E0684E5B5
:1027E00091E09093350680933406CE0143969AA7E4
:1027F00089A780910C0190910D018636910509F40D
:10280000E7C1A0F48436910519F18536910511F0E0
:102810000C94F21E1CA61BA6812C912CA12CB12C71
:10282000C12CD12C66246394712CD8C088369105B4
:1028300009F425C308F496C28936910511F00C9469
:10284000F21EBB24B39445E6C42ED12C0C94EA1E90
:102850000E94121281E08093540681E090E09093F0
:1028600053068093520690935106809350068091B0
:102870004A0690914B0697FD0196959587958C0198
:102880000C5011096091480670914906072E000C02
:10289000880B990B0E942C2320E030E04CE952E495
:1028A0000E943C2020E030E040E05FE30E948B2368
:1028B0000E94A92070934D0660934C0610934F061A
:1028C00000934E068CE794E00E947D1280914A06A8
:1028D00090914B0697FD0196959587958C01045034
:1028E00011096091480670914906072E000C880B6B
:1028F000990B0E942C2320E030E040E452E40E9437
:102900003C2020E030E040E05FE30E948B230E9407
:10291000A92070934D0660934C0610934F060093C8
:102920004E068AE894E00E947D120E943E120E94A8
:10293000040E60935C0570935D0580935E05909333
:102940005F05009158051091590520915A05309165
:102950005B051B012C01201A310A420A530A45EC7F
:10296000241649E034064104510410F40C94F21E7C
:10297000609358057093590580935A0590935B05B1
:102980000E94121285E690E090930D0180930C0155
:102990000C94F21E0E94040E60935C0570935D051A
:1029A00080935E0590935F0500915805109159053D
:1029B00020915A0530915B051B012C01201A310A28
:1029C000420A530A920181010C3411052105310597
:1029D00070F443E0A416B10409F4DFC080910C0147
:1029E00090910D0185369105A9F20C94F21E609329
:1029F00058057093590580935A0590935B050E9482
:102A00001211A114B10421F580916E05882351F0B3
:102A10002FEFC21AD20A33E0C316D10471F4C12CCD
:102A2000D12C0BC080916C05882339F041E0C41A89
:102A3000D10818F4E2E0CE2ED12C80916D058823C8
:102A400039F0A3E0B0E0BCA7ABA7AA24A394B12CB3
:102A50001A8219821C821B821E821D8244E050E071
:102A600063E974E0CE0101960E94BA0CB1E0CB1686
:102A7000D10489F0E2E0CE16D104D1F068E974E027
:102A8000CE0101960E94DB0C212C312C60E9462EF0
:102A900062E4562E19C065EA74E0CE0101960E94E8
:102AA000DB0C212C312C54E8452E52E4552E0CC061
:102AB00061EB74E0CE0101960E94DB0C212C312CDD
:102AC0004CE9442E42E4542E0E94121238E1E32EC7
:102AD000F12C04E510E024E036E040E050E060E056
:102AE00070E080E496E00E948311F1E0F0935406D8
:102AF00021E0A216B10449F410925106109250063A
:102B0000B0925306A092520608C07092530660928B
:102B1000520670925106609250066091480670917C
:102B20004906072E000C880B990B0E942C23A2014A
:102B300091010E943C2020E030E040E05FE30E94F1
:102B40008B230E94A92070934D0660934C0680E26F
:102B500090E090934F0680934E064D815E8169818F
:102B60007A8180E496E00E94FC060E943E12A11445
:102B7000B10471F02BA43CA42814390430F42FEFD5
:102B8000A21AB20A812C912C03C03FEF831A930A38
:102B900089819A810E9479211CCFC114D10439F412
:102BA00087E690E090930D0180930C0117CF91E0A0
:102BB000C916D10439F4A6E6B0E0B0930D01A09394
:102BC0000C010CCFA12CB12C22E0C22ED12C06CFAF
:102BD00000E010E077247394EE24E394F12CA8E055
:102BE000CA2ED12CB5E6AB2EB12C80E2882E912CCA
:102BF00080910C0190910D018636910511F00C9495
:102C0000F21E0E94040E60935C0570935D05809334
:102C10005E0590935F0520915805309159054091CC
:102C20005A0550915B051B012C01221A330A440AF4
:102C3000550AA20191012C34310541055105C0F21C
:102C4000609358057093590580935A0590935B05DE
:102C50000E94121180916E05811108C080916D054E
:102C6000811104C080916C05882311F00F5F1F4F04
:102C70000E94121270925406F0925306E09252068D
:102C8000F0925106E0925006609148067091490614
:102C9000072E000C880B990B0E942C2320E030E0BB
:102CA00040E452E40E943C2020E030E040E05FE35A
:102CB0000E948B230E94A92070934D0660934C06BE
:102CC00010924F0610924E060230110524F48FEB3D
:102CD00094E00E947D1210924D0610924C06D09204
:102CE0004F06C0924E060115110549F488EC94E098
:102CF0000E948F1284ED94E00E948F1230C0013048
:102D0000110549F58AEF94E00E948F126091480600
:102D100070914906072E000C880B990B0E942C23FA
:102D200020E030E040E752E40E943C2020E030E028
:102D300040E05FE30E948B230E94A92070934D0620
:102D400060934C0690924F0680924E068BE195E080
:102D50000E947D1204C0B0920D01A0920C010E944D
:102D60003E1246CFBB24B39468E6C62ED12C809188
:102D70000C0190910D018736910511F00C94F21E13
:102D80000E94121200914A0610914B0620914806AB
:102D900030914906EE24E394F12C40E050E060E0ED
:102DA00070E080E496E00E94240BB09254061092EA
:102DB00051061092500681E090E090935306809364
:102DC000520680914A0690914B0697FD0196959583
:102DD00087958C010350110960914806709149064E
:102DE000072E000C880B990B0E942C2320E030E06A
:102DF00048E252E40E943C2020E030E040E05FE303
:102E00000E948B230E94A92070934D0660934C066C
:102E100010934F0600934E0686E295E00E947D12C5
:102E20000E943E120E94040E60935C0570935D0543
:102E300080935E0590935F050091580510915905A8
:102E400020915A0530915B052B013C01401A510A33
:102E5000620A730A4BEC441648E05406610471049C
:102E600008F485CF609358057093590580935A05EF
:102E700090935B05D0920D01C0920C0178CF109217
:102E8000500510924F0583E090E090930B018093E2
:102E90000A0181E090E09093030180930201109277
:102EA0002C0610922D0610922E0610922F0660917D
:102EB0004A0670914B0668517109072E000C880B69
:102EC000990B0E942C2360933006709331068093F7
:102ED00032069093330610923F05109240051092EF
:102EE000410510924205109243051092440510923C
:102EF0004505109246051092140610921506109280
:102F000016061092170610921806109219061092C3
:102F10001A0610921B068FEF9FEF90934E05809339
:102F20004D0510923E0522242394312C80910C01F2
:102F300090910D018836910509F054C70E94040E46
:102F400060935C0570935D0580935E0590935F05CB
:102F5000009158051091590520915A0530915B0553
:102F60002B013C01401A510A620A730A9301820143
:102F70000C34110521053105C8F260935805709392
:102F8000590580935A0590935B050E941211909108
:102F90006B0580916905992369F020916A052223C8
:102FA00049F0882339F045E6642E712C70920D01AA
:102FB00060920C01B0906D0520914F053091500545
:102FC0002330310509F495C310924305109244054E
:102FD0001092450510924605992339F0811125C0BC
:102FE000309203012092020108C08823F1F08FEF94
:102FF0009FEF909303018093020160910201709111
:103000000301072E000C880B990B0E942C2320E053
:1030100030E040E450E40E948B23609343057093BA
:103020004405809345059093460560914305709152
:103030004405809145059091460520E030E0A901C6
:103040000E94C60EC0904305D0904405E09045050F
:10305000F0904605A701960160912406709125061F
:1030600080912606909127060E943D2060932406B9
:1030700070932506809326069093270680914D0530
:1030800090914E058F3F2FEF920709F055C0409069
:103090002C0650902D0660902E0670902F066091A1
:1030A00048067091490677FF02C06F5F7F4F7595A4
:1030B00067956A507109072E000C880B990B0E94C6
:1030C0002C239B01AC01C301B2010E94DF20181622
:1030D0002CF410924E0510924D050EC0A7019601DA
:1030E000C301B2010E943D2060932C0670932D060F
:1030F00080932E0690932F0620E030E0A901609186
:103100002C0670912D0680912E0690912F060E941C
:10311000252387FF64C010922C0610922D06109272
:103120002E0610922F06109243051092440510921D
:1031300045051092460553C0019709F050C04090D4
:103140002C0650902D0660902E0670902F06009150
:10315000480610914906B80117FF02C06F5F7F4F04
:10316000759567956A507109072E000C880B990BAD
:103170000E942C239B01AC01C301B2010E942523B4
:1031800087FF05C010924E0510924D050EC0A70195
:103190009601C301B2010E943D2060932C067093FA
:1031A0002D0680932E0690932F06B801110F880BE1
:1031B000990B0E942C239B01AC0160912C0670910D
:1031C0002D0680912E0690912F060E94DF20181662
:1031D00034F485E690E090930D0180930C0180918A
:1031E0004D0590914E05892B09F0A7C0409014061B
:1031F00050901506609016067090170620E030E09B
:10320000A901C301B2010E94DF20E0904806F090BE
:10321000490600913A0610913B0687FD15C0B8019A
:1032200093E0660F771F9A95E1F76E197F0980E0AA
:1032300090E00E942A239B01AC01C301B2010E94CD
:10324000252318160CF013C6B80183E0660F771F0C
:103250008A95E1F76E197F0980E090E00E942A23A9
:103260006B017C019B01AC01609114067091150605
:1032700080911606909117060E94DF20181634F5EB
:1032800030924E0520924D05C0921406D09215063C
:10329000E0921606F09217062091430530914405FE
:1032A000409145055091460560912C0670912D0680
:1032B00080912E0690912F060E943D2060932C064F
:1032C00070932D0680932E0690932F0620E030E019
:1032D000A9016091140670911506809116069091CF
:1032E00017060E94252387FF28C08FEF9FEF90933A
:1032F0004E0580934D052091430530914405409142
:1033000045055091460560912C0670912D068091DF
:103310002E0690912F060E943D2060932C067093FC
:103320002D0680932E0690932F061092140610926D
:103330001506109216061092170680E1A9A5BAA5E7
:103340001D928A95E9F7412C512C10E2612E11E46F
:10335000712E4B8E5C8E6D8E7E8E612C712C00E8F2
:10336000802E01E4902E6F8E78A289A29AA22091DD
:103370002C0630912D0640912E0650912F0660911B
:1033800014067091150680911606909117060E94FA
:103390003D2020E030E040E450E40E943D206B8B73
:1033A0007C8B8D8B9E8B2091300630913106409125
:1033B000320650913306609118067091190680917B
:1033C0001A0690911B060E943D2020E030E040E864
:1033D0005FE30E943D206F8B788F898F9A8F0CE07E
:1033E00017E0F8016591749180E090E00E942A2333
:1033F00069837A838B839C83F801329665917491FB
:1034000080E090E00E942A236D837E838F839887DB
:10341000F80134966591749180E090E00E942A232F
:1034200069877A878B879C87F801369665917491B6
:1034300080E090E00E942A236D877E878F87988B9B
:10344000BE016F5F7F4FCE0143960E945A0E8823C4
:1034500019F010924C0522C0085F1F4F27E0043876
:10346000120709F0BECF2AE939E949E15FE360912B
:103470003F057091400580914105909142050E9461
:103480003D2060933F0570934005809341059093E4
:10349000420581E080933E0580934C05C0903F0536
:1034A000D0904005E0904105F090420520E030E0EA
:1034B000A901C701B6010E942523882309F4F1C49C
:1034C000A701960160E070E0CB010E94C60EBB2010
:1034D000E9F080913E05811119C020E030E040E81C
:1034E00050E460913F0570914005809141059091B5
:1034F00042050E943C2060933F05709340058093F5
:1035000041059093420581E080933E05C0903F05C0
:10351000D0904005E0904105F090420520913006A2
:10352000309131064091320650913306C701B60101
:103530000E943D204B015C01609330067093310680
:103540008093320690933306209128063091290605
:1035500040912A0650912B06C701B6010E943D20DA
:103560002B013C01609328067093290680932A065C
:1035700090932B0620E030E0A901C701B6010E941C
:10358000252381113CC080914C05811138C0809168
:1035900002019091030190930101809300018091B9
:1035A000140690911506A0911606B0911706809307
:1035B0000C0690930D06A0930E06B0930F06409252
:1035C00010065092110660921206709213068091B6
:1035D0002C0690912D06A0912E06B0912F06809377
:1035E0001C0690931D06A0931E06B0931F068092A2
:1035F000200690922106A0922206B09223062091E6
:1036000018063091190640911A0650911B06C50103
:10361000B4010E943D204B015C012091380630919D
:10362000390680913C0690913D06289FB001299F64
:10363000700D389F700D112480E090E00E942A23C5
:103640009B01AC01C501B4010E94DF20181664F48F
:1036500080914F0590915005039731F083E090E001
:103660009093500580934F0500914F0510915005A0
:103670000330110509F406C120E030E0A901609192
:1036800043057091440580914505909146050E943F
:10369000252320E030E0A90181110EC0C701B60149
:1036A0000E942523811117C0012B09F4EBC0109251
:1036B000500510924F0519C0C701B6010E9425237D
:1036C000811109C00130110509F4DCC030925005A8
:1036D00020924F050AC00230110509F4D3C082E0E0
:1036E00090E09093500580934F0581E080935705BB
:1036F000C9C08091480590914905A0914A05B091B3
:103700004B050196A11DB11D8E309105A105B10596
:103710004CF48093480590934905A0934A05B093D3
:103720004B05B0C0109248051092490510924A0509
:1037300010924B0580910A0190910B010197909393
:103740000B0180930A01181619060CF095C020E0B1
:1037500030E040E05EE360911C0670911D068091B0
:103760001E0690911F060E948B2320E030E040E06F
:1037700051E40E948B230E94A920072E000C880B85
:10378000990B0E942C236B017C0160932C06709393
:103790002D0680932E0690932F0620E030E040E027
:1037A0005EE360912006709121068091220690913F
:1037B00023060E948B2320E030E040E051E40E9489
:1037C0008B230E94A920072E000C880B990B0E94C6
:1037D0002C236093300670933106809332069093C9
:1037E0003306C0922406D0922506E0922606F09277
:1037F000270620E030E040E05EE360910C06709127
:103800000D0680910E0690910F060E948B2320E0FA
:1038100030E040E051E40E948B230E94A920072E53
:10382000000C880B990B0E942C2360931406709354
:10383000150680931606909317061092180610929C
:10384000190610921A0610921B061092500510923B
:103850004F0510923F0510924005109241051092BD
:1038600042051092430510924405109245051092AE
:10387000460510923E0506C0A9E6B0E0B0930D01E2
:10388000A0930C010E941212609118067091190603
:1038900080911A0690911B060E94A9206B017C0161
:1038A0006091140670911506809116069091170686
:1038B0000E94A9204B015C01209136063091370609
:1038C000CB01B9010E9422206DA77EA73601E091AD
:1038D0003806F0913906C601BF010E9422202B0153
:1038E00000913E0610913F06D80118968D919C914B
:1038F0001997880D991D820F931FB9010E942220EC
:103900007CA76BA7D8011A968D919C911B978C0D63
:103910009D1DBF010E9422206B019194819491080A
:103920004C145D040CF057C0ADA4BEA4EBA5FCA5DF
:10393000AE16BF060CF04BC080913A0690913B0644
:10394000489EF001499EF00D589EF00D1124EA0D9D
:10395000FB1DEE0FFF1F8091340690913506E80F96
:10396000F91F85919491009771F1E0903806F090DD
:1039700039064E9CA0014F9C500D5E9C500D1124A9
:10398000460D571D0091360610913706A09EB001D6
:10399000A19E700DB09E700D1124680D791D0297C7
:1039A000823A910580F4880F991FFC01E05FFC4F7B
:1039B000208131812115310531F080913E069091B1
:1039C0003F060E948311BFEFAB1ABB0AAFCFFFEFD8
:1039D0004F1A5F0AA5CF8091570500914F051091AE
:1039E00050058823C1F1109256051092550510928A
:1039F0005105109252051092530510925405C801BA
:103A00008D7F892B69F410920601109207011092A4
:103A1000080110920901309205012092040119C099
:103A200001301105B1F4FDEC4F2EFCEC5F2EFCE4EF
:103A30006F2EFFE37F2E40920601509207016092A5
:103A400008017092090184E090E090930501809351
:103A5000040110925705E0900401F090050122E066
:103A6000E216F1040CF440C020E030E046E952E4F4
:103A70006091060170910701809108019091090100
:103A80000E948B232091510530915205409153059E
:103A9000509154050E943D2060935105709352054A
:103AA000809353059093540520E030E046E952E4BA
:103AB0000E94DF201816C4F4809155059091560598
:103AC00001969093560580935505109251051092DA
:103AD000520510925305109254058E159F0524F03F
:103AE00010925605109255050115110541F480916B
:103AF000020190910301019709F03FC041C00230DB
:103B0000110549F480910201909103010197D9F1C7
:103B100024E438E03DC001301105C1F520910201D7
:103B20003091030180915505909156052130310562
:103B300091F48130910521F12CF4892B39F524EE93
:103B400037E026C08230910519F00397C9F01EC0F6
:103B500024EC37E01DC08130910579F02CF4892BDD
:103B6000A9F424E837E014C08230910519F00397D6
:103B700021F00CC024EA37E00BC024E638E008C08E
:103B800024E238E005C024E038E002C020E030E064
:103B90006091300670913106809132069091330623
:103BA0002FA738AB0E94A9204B015C0160912C0625
:103BB00070912D0680912E0690912F060E94A920CB
:103BC000E0E1EE2EF12C00E110E02FA538A9A401D0
:103BD00080E496E00E94831180910A0190910B018C
:103BE0001CA21BA21EA21DA218A61FA24AE0BE0173
:103BF0006F5F7F4F0E94F022BE016F5F7F4FCE014B
:103C000083960E94DB0C1A8219821C821B821E8200
:103C10001D8241E050E06EE275E0CE0101960E9407
:103C2000BA0C8FA198A5EBA0FCA00D811E81E11418
:103C3000F10409F431C10097A9F0080F191FB80168
:103C4000CE0101960E94810C882309F425C12981A7
:103C50003A818D819E81B701820F931F0E94E922D4
:103C60001E830D831C8A1B8A1E8A1D8A188E1F8A3A
:103C700069817A816115710531F04D815E81CE01D6
:103C800043960E94BA0C89819A810E94792181E031
:103C9000809354063092510620925006109253069B
:103CA0001092520610924D0610924C0610924F063A
:103CB00010924E064F89588D6B897C8980E496E07E
:103CC0000E94FC068B899C890E9479218BA19CA172
:103CD0000E9479210E943E1229C90E94121200916D
:103CE0004A0610914B062091480630914906EE2471
:103CF000E394F12C40E050E060E070E080E496E076
:103D00000E94240BB0925406109251061092500655
:103D100081E090E0909353068093520680914A068A
:103D200090914B0697FD0196959587958C010350D0
:103D300011096091480670914906072E000C880B06
:103D4000990B0E942C2320E030E048E552E40E94C9
:103D50003C2020E030E040E05FE30E948B230E94A3
:103D6000A92070934D0660934C0610934F06009364
:103D70004E0680E395E00E947D120E943E120E9452
:103D8000040E60935C0570935D0580935E059093CF
:103D90005F05009158051091590520915A05309101
:103DA0005B051B012C01201A310A420A530A49EB18
:103DB00024164BE034064104510460F0609358052A
:103DC0007093590580935A0590935B05D0920D012D
:103DD000C0920C0180910C0190910D0189369105E2
:103DE00009F47BCF0E94E9070C94F9131FB7F894EC
:103DF00080914705811127C0EAE4F1E08491ECE26B
:103E0000F1E09491E82FF0E0EE0FFF1FE85EFE4F27
:103E1000A591B491EC91E92321F461E08AE00E943C
:103E2000730D61E08AE00E94A30D8CB580618CBDAA
:103E30008CB580648CBD61E08DE00E94A30D61E0D3
:103E40008BE00E94A30D809147058F5F809347050B
:103E50001FBF8CB58C7F8CBD8DB58E7F8DBD8CB515
:103E6000837F8CBD8CB58F7D8CBD0C9465132091A8
:103E70004305309144054091450550914605C301E5
:103E8000B2010E943D206093140670931506809342
:103E9000160690931706D8C9CE0101960E94A80C69
:103EA000E1CEB11016CB2091300630913106409111
:103EB000320650913306C701B6010E943D204B01E6
:103EC0005C016093300670933106809332069093C4
:103ED0003306209128063091290640912A065091F8
:103EE0002B06C701B6010E943D202B013C016093C7
:103EF00028067093290680932A0690932B0643CBBD
:103F0000EFE6F5E01382128288EE93E0A0E0B0E0E5
:103F100084839583A683B78388E594E09183808327
:103F200085EC90E09587848784EC90E0978786877E
:103F300080EC90E0918B808B81EC90E0938B828B76
:103F400082EC90E0958B848B86EC90E0978B868B4F
:103F5000118E128E138E148EE0E4F6E0138212821C
:103F600024E530E03583248380E390E097838683E3
:103F70003187208793878287158A1586148617864E
:103F8000168681E0848B2FEF3FEF338B228B318BB2
:103F9000208B868B178A118E108E88E694E0918391
:103FA000808389E0828F88E0838F8AE0848F8CE031
:103FB000858F8BE0868FE4E3F6E081E090E09783E5
:103FC00086839187808788E090E0938382839583BE
:103FD000848311821082ECE2F6E010821182128258
:103FE000138280E090E0A0ECB1E484839583A68303
:103FF000B783E4E2F6E01082118212821382848396
:104000009583A683B783ECE1F6E0108211821282D9
:10401000138284839583A683B783E4E1F6E010825C
:104020001182128213821482158216821782ECE0AA
:10403000F6E0108211821282138214821582168297
:1040400017820895AA1BBB1B51E107C0AA1FBB1F03
:10405000A617B70710F0A61BB70B881F991F5A9514
:10406000A9F780959095BC01CD010895EE0FFF1F33
:104070000590F491E02D09945058BB27AA270E947F
:1040800054200C940F240E94012438F00E9408242C
:1040900020F039F49F3F19F426F40C94FE230EF41B
:1040A000E095E7FB0C94F823E92F0E94202458F3B5
:1040B000BA17620773078407950720F079F4A6F50D
:1040C0000C9442240EF4E0950B2EBA2FA02D0B0178
:1040D000B90190010C01CA01A0011124FF27591B4D
:1040E00099F0593F50F4503E68F11A16F040A22F53
:1040F000232F342F4427585FF3CF469537952795C4
:10410000A795F0405395C9F77EF41F16BA0B620BC2
:10411000730B840BBAF09150A1F0FF0FBB1F661F09
:10412000771F881FC2F70EC0BA0F621F731F841F4C
:1041300048F4879577956795B795F7959E3F08F072
:10414000B0CF9395880F08F09927EE0F9795879534
:1041500008950E94B0206894B1110C9443240895EE
:104160000E94282488F09F5798F0B92F9927B751BB
:10417000B0F0E1F0660F771F881F991F1AF0BA950B
:10418000C9F714C0B13091F00E944224B1E0089503
:104190000C944224672F782F8827B85F39F0B93FF5
:1041A000CCF3869577956795B395D9F73EF49095BE
:1041B0008095709561957F4F8F4F9F4F08950E9416
:1041C000672308F48FEF0895CF93DF938230910532
:1041D00010F482E090E0E0917006F091710620E02A
:1041E00030E0C0E0D0E0309711F1408151814817B4
:1041F0005907C0F04817590761F4828193812097CD
:1042000019F09B838A832BC090937106809370066C
:1042100026C02115310519F04217530718F49A01E9
:10422000BE01DF01EF010280F381E02DDCCF21151B
:10423000310509F1281B390B2430310590F4129611
:104240008D919C9113976115710521F0FB0193836A
:10425000828304C09093710680937006FD013296AC
:1042600044C0FD01E20FF31F819391932250310965
:104270002D933C933AC020916E0630916F06232B0C
:1042800041F4209108033091090330936F06209385
:104290006E0620910603309107032115310541F484
:1042A0002DB73EB740910A0350910B03241B350BE9
:1042B000E0916E06F0916F06E217F307A0F42E1B53
:1042C0003F0B2817390778F0AC014E5F5F4F24177A
:1042D000350748F04E0F5F1F50936F0640936E06F0
:1042E0008193919302C0E0E0F0E0CF01DF91CF91A4
:1042F00008950F931F93CF93DF93009709F48CC019
:10430000FC0132971382128200917006109171069F
:104310000115110581F420813181820F931F2091B5
:104320006E0630916F062817390779F5F0936F06FE
:10433000E0936E0671C0D80140E050E0AE17BF07B1
:1043400050F412962D913C911397AD012115310532
:1043500009F1D901F3CF9D01DA0133832283608112
:104360007181860F971F8217930769F4EC012881EA
:104370003981260F371F2E5F3F4F318320838A817B
:104380009B8193838283452B29F4F0937106E093FC
:10439000700642C01396FC93EE931297ED0149917B
:1043A00059919E01240F351FE217F30771F48081A4
:1043B0009181840F951F029611969C938E93828112
:1043C000938113969C938E931297E0E0F0E0D801CE
:1043D00012968D919C911397009719F0F8018C011A
:1043E000F6CF8D919C9198012E5F3F4F820F931FC6
:1043F00020916E0630916F062817390769F43097BF
:1044000029F4109271061092700602C01382128273
:1044100010936F0600936E06DF91CF911F910F915D
:104420000895A0E0B0E0E7E1F2E20C944D24EC0145
:10443000009721F4CB010E94E420B8C0FC01E60FF4
:10444000F71F9C0122503109E217F30708F4ACC0B2
:10445000D9010D911C91119706171707B0F005307F
:10446000110508F49FC0C80104978617970708F440
:1044700099C002501109061B170B019311936D93FC
:104480007C93CF010E9479218DC05B01A01AB10AF3
:104490004C01800E911EA0917006B091710640E013
:1044A00050E0E12CF12C109709F44AC0A815B90589
:1044B000D1F56D907C901197630182E0C80ED11CFC
:1044C000CA14DB0480F1A3014A195B096A0182E086
:1044D000C80ED11C1296BC9012971396AC91B5E001
:1044E000CB16D10440F0B282A38351834083D9011B
:1044F0006D937C930AC00E5F1F4FC301800F911F05
:10450000F90191838083EB2DFA2FE114F10431F04E
:10451000D7011396FC93EE93129744C0F093710663
:10452000E09370063FC08D919C91119748175907F1
:1045300008F4AC017D0112960D90BC91A02DB3CF73
:1045400080916E0690916F0688159905E1F44617E3
:104550005707C8F48091060390910703009741F430
:104560008DB79EB740910A0350910B03841B950BA6
:10457000E817F907C8F4F0936F06E0936E06F901A7
:10458000718360830FC0CB010E94E4207C010097FF
:1045900059F0A801BE010E94E022CE010E947921BB
:1045A000C70104C0CE0102C080E090E0CDB7DEB705
:1045B000EEE00C94692481E090E0F8940C9480245F
:1045C000FB01DC0102C001900D9241505040D8F730
:1045D0000895FB01DC0101900D920020E1F70895A0
:1045E000BB274A3031F4992322F4BDE2909581959E
:1045F0009F4F0C94FC22BB27FB015527AA27880F4D
:10460000991FAA1FA41710F0A41B83955051B9F746
:10461000A05DAA3308F0A95DA193009779F7B111C5
:10462000B1931192CB010C941523DC01FC01672F8F
:1046300071917723E1F7329704C07C916D93708379
:104640006291AE17BF07C8F308950E94672308F46C
:1046500081E00895E89409C097FB3EF49095809519
:10466000709561957F4F8F4F9F4F9923A9F0F92F38
:1046700096E9BB279395F695879577956795B795B6
:10468000F111F8CFFAF4BB0F11F460FF1BC06F5F9C
:104690007F4F8F4F9F4F16C0882311F096E911C0AE
:1046A000772321F09EE8872F762F05C0662371F0CF
:1046B00096E8862F70E060E02AF09A95660F771FE3
:1046C000881FDAF7880F9695879597F90895990FBF
:1046D0000008550FAA0BE0E8FEEF16161706E807CC
:1046E000F907C0F012161306E407F50798F0621BED
:1046F000730B840B950B39F40A2661F0232B242BC2
:10470000252B21F408950A2609F4A140A6958FEFE0
:10471000811D811D08950E949E230C940F240E94E8
:10472000012438F00E94082420F0952311F00C9405
:10473000F8230C94FE2311240C9443240E9420247B
:1047400070F3959FC1F3950F50E0551F629FF001E4
:10475000729FBB27F00DB11D639FAA27F00DB11DFD
:10476000AA1F649F6627B00DA11D661F829F222786
:10477000B00DA11D621F739FB00DA11D621F839F0D
:10478000A00D611D221F749F3327A00D611D231FE3
:10479000849F600D211D822F762F6A2F11249F5731
:1047A00050409AF0F1F088234AF0EE0FFF1FBB1F34
:1047B000661F771F881F91505040A9F79E3F5105F3
:1047C00080F00C94F8230C9443245F3FE4F3983E6C
:1047D000D4F3869577956795B795F795E7959F5F9D
:1047E000C1F7FE2B880F911D9695879597F908952F
:1047F00097F99F6780E870E060E008959FEF80EC94
:10480000089500240A941616170618060906089536
:1048100000240A9412161306140605060895092E9C
:104820000394000C11F4882352F0BB0F40F4BF2B0B
:1048300011F460FF04C06F5F7F4F8F4F9F4F08954B
:1048400057FD9058440F551F59F05F3F71F0479541
:10485000880F97FB991F61F09F3F79F08795089526
:10486000121613061406551FF2CF4695F1DF08C045
:10487000161617061806991FF1CF86957105610562
:1048800008940895E894BB2766277727CB0197F90A
:1048900008952F923F924F925F926F927F928F92E4
:1048A0009F92AF92BF92CF92DF92EF92FF920F93BF
:1048B0001F93CF93DF93CDB7DEB7CA1BDB0B0FB6C9
:1048C000F894DEBF0FBECDBF09942A883988488886
:1048D0005F846E847D848C849B84AA84B984C8841C
:1048E000DF80EE80FD800C811B81AA81B981CE0F13
:1048F000D11D0FB6F894DEBF0FBECDBFED010895F8
:04490000F894FFCF59
:104904000100010004000000803F03006400000077
:104914000000000000000000000000000000000093
:104924000000000000000000000000000000000083
:1049340000000000C0E0F0F8FCFCFEFFFCE000001A
:104944000000000000000000000000000000000063
:104954000000000000000000000000000000000053
:104964000000000000000000000000000000000043
:10497400000000F8F8F8F8F8F8F8F8F8F8F8F8F0A3
:10498400F0E0E0C080C0FCFFFFFFFF7F3F7FFFFF40
:10499400FFFFFF0000000000000000000000000016
:1049A4000000000000000000000000000000000003
:1049B40000000000000000000000000000000000F3
:1049C40000000000000000000F1F3F7FFFFFFFFFFB
:1049D400FFFFFFFFE7C7C7878F9F9FFFFFFFC1C090
:1049E400E0FCFFFFFFFFFFFCFCFCFCFEFEFEFCFC0A
:1049F400F8F8F0E0C0C00000000000000000000073
:104A040000000000000000000000000000000000A2
:104A14000000000000000000000000000000008012
:104A2400C0E0F1FBFFFFFFFFFF7F1F0F0F87E7FFD2
:104A3400FFFF1F1F3FF9F8F8F8F8F8F8FDFFFFFF34
:104A4400FFFFFFFFFFFF7F3F0F0701000000000093
:104A54000000000000000000000000000000000052
:104A64000000000000000000000000000000000042
:104A740000F0FEFFFFFFFFFFFFFFFFFFFFFE7E3F93
:104A84003F0F1FFFFFFFFCF0E0F1FFFFFFFFFFFC04
:104A9400F00101010101010101000000000000001A
:104AA4000000000000000000000000000000000002
:104AB40000000000000000000000000000000000F2
:104AC40000000000000303030303030303010101C7
:104AD4000100000000000000030F1F3F7F7FFFFF65
:104AE400FFFF7F7F1F0300000000000000000000A4
:104AF40000000000000000000000000000000000B2
:104B04000000000000000000720680000000404029
:104B14001001080100010000000000000000000076
:104B24000000F80000000000F00000000000000099
:104B34000000000000000000000000000000000071
:104B44000000000000000000000000000000000061
:104B54000000000000000000000000000000000051
:104B64000000000000000000000000000000000041
:104B740000000000000000000000E800E000000069
:104B84000000000000000000000000000000000021
:104B940000000000000000000000D800D000000069
:104BA40000000000C800C000B800B000A800000069
:104BB40000000000000000000000000000000000F1
:104BC40000000000000000000000000000000000E1
:104BD4000000000000000000A00098000000000099
:104BE40000000000000000000000000000000000C1
:104BF4000000000000000000900088000000000099
:104C040000000000000000000000000000000000A0
:104C14000000000000000000000000000000000090
:104C24000000000000000000000000000000800000
:104C340078000000000000000000000000000000F8
:104C44000000000000000000000000000000A800B8
:104C540070006800000000008007FC064907270771
:104C64003B07C707000000002F0AFC061C08D50BF1
:104C74006F0B590B860B240B060B8808526567696A
:104C840020616E6420546F62690070726573656E92
:104C940074730074657374003C5354415254204738
:104CA400414D453E003C2043524544495453203E27
:104CB400003C20455849542047414D45203E00437F
:104CC4005245444954533A00437265617465642003
:104CD40062793A00546F6269617320556C7269633A
:104CE4006820616E6420526567696E616C646F2030
:104CF40064612053696C76612E005772697474651F
:104D04006E20696E204320207769746820417264A4
:104D140075696E6F2020556E6F2E004465632C20DC
:104D2400323031342E004C4556454C203100780049
:0E4D340047414D45204F564552000D0A0000E4
:00000001FF
