:100000000C945D000C9485000C9485000C94850084
:100010000C9485000C9485000C9485000C9485004C
:100020000C9485000C9485000C9485000C9485003C
:100030000C9485000C9485000C9485000C9485002C
:100040000C942A030C9485000C9485000C94850074
:100050000C9485000C9485000C9485000C9485000C
:100060000C9485000C94850000000008000201003B
:100070000003040700000000000000000000000072
:10008000250028002B0000000000240027002A0083
:10009000040404040404040402020202020203032E
:1000A0000303030301020408102040800102040836
:1000B00010200102040810201C0411241FBECFEFE1
:1000C000D8E0DEBFCDBF11E0A0E0B1E0E2EEF8E0A5
:1000D00002C005900D92A234B107D9F721E0A2E445
:1000E000B1E001C01D92A336B207E1F710E0CDE503
:1000F000D0E004C02197FE010E946404CC35D107F2
:10010000C9F70E9474030C946F040C94000090E0F3
:10011000FC01EC55FF4F2491FC01E057FF4F849107
:10012000882399F090E0880F991FFC01EA57FF4F50
:10013000A591B491FC01E458FF4F859194918FB73C
:10014000F894EC91E22BEC938FBF089590E0FC01C2
:10015000E859FF4F2491FC01EC55FF4F3491FC010D
:10016000E057FF4FE491EE2309F43CC0222339F11C
:10017000233091F038F42130A9F0223001F584B514
:100180008F7D12C0273091F02830A1F02430B9F4CF
:10019000809180008F7D03C0809180008F77809355
:1001A00080000DC084B58F7784BD09C08091B000F8
:1001B0008F7703C08091B0008F7D8093B000F0E016
:1001C000EE0FFF1FE458FF4FA591B4919FB7F8942D
:1001D000611104C08C913095382302C0EC913E2B04
:1001E0003C939FBF08953FB7F89480914701909149
:1001F0004801A0914901B0914A0126B5A89B05C0CC
:100200002F3F19F00196A11DB11D3FBFBA2FA92F95
:10021000982F8827820F911DA11DB11DBC01CD0112
:1002200042E0660F771F881F991F4A95D1F70895FE
:100230008F929F92AF92BF92CF92DF92EF92FF92F6
:100240006B017C010E94F3004B015C01C114D104DD
:10025000E104F104F1F00E94F300DC01CB01881904
:100260009909AA09BB09883E9340A105B10570F31D
:1002700021E0C21AD108E108F10888EE880E83E077
:10028000981EA11CB11CC114D104E104F10419F79A
:10029000DDCFFF90EF90DF90CF90BF90AF909F9019
:1002A0008F900895CF92DF92EF92FF920F931F935A
:1002B000CF93DF936C017A018B01C0E0D0E0CE15C3
:1002C000DF0581F0D8016D918D01D601ED91FC9192
:1002D0000190F081E02DC6010995892B11F021963E
:1002E000EECF7E01C701DF91CF911F910F91FF905B
:1002F000EF90DF90CF900895CF93DF93EC0160E013
:100300008E810E94A60061E08E810E94A60060E0BE
:100310008E810E94A6008BE891E00197F1F7DF91B2
:10032000CF910895CF92DF92EF92FF920F931F9398
:10033000CF93DF936C017C0187E0E80EF11CC0E0F5
:10034000D0E0062F10E0B8010C2E02C0759567951D
:100350000A94E2F76170F70181917F010E94A60083
:100360002196C430D10579F7C601DF91CF911F9155
:100370000F91FF90EF90DF90CF900C947C01CF9283
:10038000DF92EF92FF920F931F93CF93DF93EC01D5
:10039000F62E642F8C810E94A6008D818F3F19F06C
:1003A00060E00E94A6008F850F2D10E084FF25C01D
:1003B0006E0187E0C80ED11CE12CF12CB8010E2C87
:1003C00002C0759567950A94E2F76170F601819114
:1003D0006F010E94A600FFEFEF1AFF0A88E0E816FF
:1003E000F10461F7CE01DF91CF911F910F91FF9042
:1003F000EF90DF90CF900C947C01B80184E075956C
:1004000067958A95E1F7CE010E9492016F2DCE018A
:10041000DF91CF911F910F91FF90EF90DF90CF90E0
:100420000C94920140E0682F8BE491E00C94BF01A2
:10043000CF93DF93823028F090915A019860909387
:100440005A0180935E0110925F0180E48093600105
:1004500080E18093610180E58093620180914F018A
:100460000E948700809150018F3F11F00E94870009
:10047000809151010E948700CBE4D1E09E012B5472
:10048000314080915A0184FD03C084E090E002C0B5
:1004900088E090E021962817390724F48E810E9485
:1004A0008700ECCF8BE39DE00197F1F760E080914E
:1004B0004F010E94A60060E0809151010E94A600B9
:1004C000809150018F3F19F060E00E94A60080915A
:1004D0005A0184FD20C063E08BE491E00E94920108
:1004E000CBE4D6E4CE010197F1F763E08BE491E031
:1004F0000E9492012197F1F763E08BE491E00E9462
:10050000920183E592E00197F1F762E08BE491E0DC
:100510000E94920115C080620E9412028BE496E450
:100520000197F1F780915A0180620E94120283E5DF
:1005300092E00197F1F780915A0180620E941202C5
:1005400080915A0180620E94120284E080935B01D4
:100550008CE00E94120281E00E9412028BE39FE174
:100560000197F1F782E080935C0186E0DF91CF9103
:100570000C941202843008F083E090915E01891798
:1005800010F08FEF890FE82FF0E0E55BFE4F8489D4
:1005900080680C94120241E00E94BF0181E090E06B
:1005A0000895089580E090E00895009769F0FC01B7
:1005B00001900020E9F73197AF01481B590BBC01AE
:1005C0008BE491E00C94520180E090E008958F92CA
:1005D0009F92AF92BF920F931F93CF93DF93CDB7AC
:1005E000DEB7A1970FB6F894DEBF0FBECDBF19A23C
:1005F000423008F44AE08E010F5D1F4F842E912C8B
:10060000A12CB12CA50194010E944204E62FB9014E
:10061000CA0101501109EA3014F4E05D01C0E95C3F
:10062000D801EC93232B242B252B61F7C8010E94C2
:10063000D502A1960FB6F894DEBF0FBECDBFDF91F5
:10064000CF911F910F91BF90AF909F908F90089581
:100650000E946A041F920F920FB60F9211242F93DB
:100660003F938F939F93AF93BF938091430190915A
:100670004401A0914501B09146013091420123E02F
:10068000230F2D3720F40196A11DB11D05C026E8CA
:10069000230F0296A11DB11D2093420180934301B7
:1006A00090934401A0934501B09346018091470186
:1006B00090914801A0914901B0914A010196A11D74
:1006C000B11D8093470190934801A0934901B093D5
:1006D0004A01BF91AF919F918F913F912F910F90C0
:1006E0000FBE0F901F901895789484B5826084BDDA
:1006F00084B5816084BD85B5826085BD85B5816026
:1007000085BD80916E00816080936E0010928100A3
:10071000809181008260809381008091810081605E
:10072000809381008091800081608093800080911F
:10073000B10084608093B1008091B00081608093AB
:10074000B00080917A00846080937A0080917A0072
:10075000826080937A0080917A00816080937A0031
:1007600080917A00806880937A001092C10082E0C4
:100770000E94180280E00E94BA028CE091E00E9480
:10078000D5024AE060E074E080E090E00E94E70279
:1007900060ED77E080E090E00E94180180E00E9428
:1007A000BA0288E191E00E94D502C12CD12C7601D9
:1007B00081E00E94BA02C6010E943A04C82F8BE26F
:1007C00091E00E94D5024AE0C701B6010E94E7020B
:1007D0008FE291E00E94D5026C2F70E080E090E003
:1007E0004AE00E94E70285E391E00E94D50264E6B8
:1007F00070E080E090E00E9418018FEFC81AD80ADC
:10080000E80AF80AC11484E0D806E104F10481F68C
:1008100080E00E94BA028AE391E00E94D502C0E023
:10082000D0E068EE73E080E090E00E94180120972D
:10083000C1F30E940000F5CFEBE4F1E013821282D5
:1008400084E091E0918380838CE084838FEF8583C3
:100850008BE0868385E0878384E0808783E08187DF
:1008600082E082871386148615861686178681E0B5
:100870000C941802F999FECF92BD81BDF89A992780
:1008800080B50895A1E21A2EAA1BBB1BFD010DC065
:10089000AA1FBB1FEE1FFF1FA217B307E407F50730
:1008A00020F0A21BB30BE40BF50B661F771F881F0C
:1008B000991F1A9469F760957095809590959B01A2
:1008C000AC01BD01CF010895EE0FFF1F0590F4911B
:1008D000E02D099481E090E0F8940C946F04F89472
:0208E000FFCF48
:1008E20000000000CB025201D202D1024545502045
:1008F20073697A65203D200052656164696E6720E4
:10090200454550524F4D2E2E2E0A0041443D0020A7
:1009120056616C3D002020200A00454E442E2E2EAA
:020922000A00C9
:00000001FF
