:100000000C945D000C9485000C9485000C94850084
:100010000C9485000C9485000C9485000C9485004C
:100020000C9485000C9485000C9485000C9485003C
:100030000C9485000C9485000C9485000C9485002C
:100040000C9419020C9485000C9489020C946302A0
:100050000C9485000C9485000C9485000C9485000C
:100060000C9485000C9485000000000024002700FB
:100070002A0000000000250028002B0004040404CE
:100080000404040402020202020203030303030342
:10009000010204081020408001020408102001021F
:1000A00004081020000000080002010000030407FB
:1000B00000000000000000000E0511241FBECFEF5D
:1000C000D8E0DEBFCDBF11E0A0E0B1E0E8E6FEE0A1
:1000D00002C005900D92AA33B107D9F721E0AAE337
:1000E000B1E001C01D92AE3EB207E1F710E0CDE5F0
:1000F000D0E004C02197FE010E942707CC35D1072C
:10010000C9F70E94BB020C9432070C940000EEEA7F
:10011000F0E09491EAE9F0E02491E6E8F0E0E4917F
:10012000EE2309F43CC0992339F1933091F038F46F
:100130009130A9F0923001F594B59F7D12C09730AF
:1001400091F09830A1F09430B9F4909180009F7DA7
:1001500003C0909180009F77909380000DC094B56C
:100160009F7794BD09C09091B0009F7703C0909194
:10017000B0009F7D9093B000F0E0EE0FFF1FEE58AF
:10018000FF4FA591B4919FB7F894811104C08C9151
:100190002095282302C0EC912E2B2C939FBF08950D
:1001A0003FB7F89480914D0190914E01A0914F017D
:1001B000B091500126B5A89B05C02F3F19F00196BC
:1001C000A11DB11D3FBFBA2FA92F982F8827820FDD
:1001D000911DA11DB11DBC01CD0142E0660F771F2D
:1001E000881F991F4A95D1F70895CF92DF92EF9219
:1001F000FF920F931F93CF93DF936C017A018B01D2
:10020000C0E0D0E0CE15DF0581F0D8016D918D0101
:10021000D601ED91FC910190F081E02DC601099588
:10022000892B11F02196EECF7E01C701DF91CF918E
:100230001F910F91FF90EF90DF90CF900895089558
:1002400080E090E00895FC01538D448D252F30E02F
:10025000842F90E0821B930B541710F0CF960895D3
:1002600001970895FC01918D828D981761F0828D20
:10027000DF01A80FB11D5D968C91928D9F5F9F73DA
:10028000928F90E008958FEF9FEF0895FC01918D7C
:10029000828D981731F0828DE80FF11D858D90E0E9
:1002A00008958FEF9FEF0895FC01918D228D892F86
:1002B00090E0805C9F4F821B91098F73992708956E
:1002C00081E591E00E94540121E0892B09F420E0AE
:1002D000822F0895FC01848DDF01A80FB11DA35A60
:1002E000BF4F2C91848D90E001968F739927848F56
:1002F000A689B7892C93A089B1898C918370806479
:100300008C93938D848D981306C00288F389E02D19
:1003100080818F7D80830895EF92FF920F931F93CA
:10032000CF93DF93EC0181E0888F9B8D8C8D9813A8
:1003300005C0E889F989808185FD26C0F62E0B8DE0
:1003400010E00F5F1F4F0F731127E02E8C8DE81206
:100350000CC00FB607FCFACFE889F989808185FFC8
:10036000F5CFCE010E946A01F1CF8B8DFE01E80F1F
:10037000F11DE35AFF4FF0829FB7F8940B8FEA8983
:10038000FB89808180620AC09FB7F894EE89FF895B
:100390006083E889F98980818370806480839FBF4E
:1003A00081E090E0DF91CF911F910F91FF90EF904E
:1003B0000895CF93DF93EC01888D8823C9F0EA89F3
:1003C000FB89808185FD05C0A889B9898C9186FD4E
:1003D0000FC00FB607FCF5CF808185FFF2CFA8894B
:1003E000B9898C9185FFEDCFCE010E946A01E7CFDC
:1003F000DF91CF91089580E090E0892B29F00E9451
:10040000600181110C9400000895009769F0FC01CF
:1004100001900020E9F73197AF01481B590BBC014F
:1004200081E591E00C94F50080E090E008950E9451
:100430002D071F920F920FB60F9211242F933F9307
:100440008F939F93AF93BF938091490190914A01FD
:10045000A0914B01B0914C013091480123E0230F52
:100460002D3720F40196A11DB11D05C026E8230FEC
:100470000296A11DB11D20934801809349019093DC
:100480004A01A0934B01B0934C0180914D01909192
:100490004E01A0914F01B09150010196A11DB11DD7
:1004A00080934D0190934E01A0934F01B093500162
:1004B000BF91AF919F918F913F912F910F900FBE60
:1004C0000F901F9018951F920F920FB60F92112444
:1004D0002F933F934F935F936F937F938F939F934C
:1004E000AF93BF93EF93FF9381E591E00E946A0180
:1004F000FF91EF91BF91AF919F918F917F916F91FC
:100500005F914F913F912F910F900FBE0F901F90D1
:1005100018951F920F920FB60F9211242F938F935D
:100520009F93EF93FF93E0916101F09162018081CD
:10053000E0916701F091680182FD12C09081809185
:100540006A018F5F8F7320916B01821751F0E091E8
:100550006A01F0E0EF5AFE4F958F80936A0101C067
:100560008081FF91EF919F918F912F910F900FBEFE
:100570000F901F901895CF93DF93CDB7DEB7A2975A
:100580000FB6F894DEBF0FBECDBF789484B58260FD
:1005900084BD84B5816084BD85B5826085BD85B527
:1005A000816085BD80916E00816080936E001092A5
:1005B0008100809181008260809381008091810020
:1005C00081608093810080918000816080938000B1
:1005D0008091B10084608093B1008091B00081600F
:1005E0008093B00080917A00846080937A0080913B
:1005F0007A00826080937A0080917A008160809393
:100600007A0080917A00806880937A001092C1000D
:10061000E0916101F091620182E08083E0915D01EF
:10062000F0915E011082E0915F01F09160018FEC2A
:10063000808310926901E0916501F091660186E086
:100640008083E0916301F091640180818061808307
:10065000E0916301F0916401808188608083E09182
:100660006301F0916401808180688083E09163017F
:10067000F091640180818F7D8083EAE9F0E024912C
:10068000E6E8F0E08491882399F090E0880F991FC4
:10069000FC01E859FF4FA591B491FC01EE58FF4FC2
:1006A000859194918FB7F894EC91E22BEC938FBFE6
:1006B000E9E9F0E02491E5E8F0E084918823C9F0CD
:1006C00090E0880F991FFC01E859FF4F4591549124
:1006D000FC01EE58FF4FA591B4919FB7F894FA0131
:1006E00080812095822380838C91E22FE823EC93F4
:1006F0009FBF2AE0822E912CA12CB12C80E00E9479
:10070000870083E090E00197F1F781E00E94870085
:1007100083E290E00197F1F780E00E948700109259
:100720004401109245011092460110924701109227
:10073000430110924201809142019091430101973F
:100740009093430180934201892B61F0199BF3CF71
:100750000E94D00060933E0170933F01809340015E
:1007600090934101809142019091430101979093B0
:10077000430180934201892BD1F01999F3CF0E9454
:10078000D00000913E0110913F0120914001309135
:100790004101601B710B820B930B0E94DC0560937F
:1007A000440170934501809346019093470120E0F6
:1007B00030E040E05FE36091440170914501809139
:1007C0004601909147010E94930624E037EE4CE0E9
:1007D0005DE30E94930660933A0170933B0180931E
:1007E0003C0190933D0182E191E00E940502C0909E
:1007F0003A01D0903B01E0903C01F0903D0120E0B7
:1008000030E048EC53E4C701B6010E948E0618168A
:100810001CF48DE191E03FC020E030E040E050E486
:10082000C701B6010E94A80587FF03C083E291E0DB
:1008300032C0A7019601C701B6010E9400078823B4
:1008400019F087E291E027C026013701E89477F894
:100850002FEF3FEF4FE75FE7C301B2010E940007B0
:1008600081110DC02FEF3FEF4FE75FE7C301B201EA
:100870000E94A80518161CF48BE291E00CC02FEF23
:100880003FEF4FE75FE4C701B6010E948E061816DE
:100890002CF48FE291E00E9405028EC02FEF3FEF13
:1008A0004FE75FECC701B6010E94A80587FDF1CFB5
:1008B00020E030E0A901C701B6010E94A80587FF2A
:1008C00009C06DE281E591E00E948C01F7FAF09495
:1008D000F7F8F0942AE037ED43EA5BE3C701B6018D
:1008E0000E943C052B013C010E94AD056B017C017F
:1008F0000E94DC059B01AC01C301B2010E943B05D3
:100900001B012C0119A28E010F5D1F4F0AA3712E2E
:10091000C701B601A50194010E94050769017A018A
:10092000605DF80162938F01232B242B252B81F727
:10093000CF010E9405026EE281E591E00E948C01E8
:1009400093E0F92EFA94FF20B9F120E030E040E284
:1009500051E4C201B1010E9493061B012C010E94C7
:10096000AD059B0140E050E019A20AA1172D662EAB
:10097000C32ED42EE52ECA01B901A50194010E940F
:100980000507605DF80162938F012115310541056E
:10099000510589F7CF010E940502662D7C2D8D2D12
:1009A0009E2D0E94DC059B01AC01C201B1010E9499
:1009B0003B051B012C01C6CF83E391E00E94050299
:1009C00087E391E00E9405020E94D0002B013C01C8
:1009D00088EEC82E83E0D82EE12CF12C0E94D000A6
:1009E000DC01CB0184199509A609B709883E93401B
:1009F000A105B10598F3F1E0CF1AD108E108F1089B
:100A000028EE420E23E0521E611C711CC114D10459
:100A1000E104F10419F70E94FB0170CEE1E5F1E079
:100A20001382128288EE93E0A0E0B0E08483958385
:100A3000A683B78384E091E09183808385EC90E086
:100A40009587848784EC90E09787868780EC90E098
:100A5000918B808B81EC90E0938B828B82EC90E089
:100A6000958B848B86EC90E0978B868B118E128E03
:100A7000138E148E08955058BB27AA270E94530541
:100A80000C9454060E94460638F00E944D0620F051
:100A900039F49F3F19F426F40C9443060EF4E095C4
:100AA000E7FB0C943D06E92F0E94650658F3BA1740
:100AB000620773078407950720F079F4A6F50C9474
:100AC00087060EF4E0950B2EBA2FA02D0B01B9016D
:100AD00090010C01CA01A0011124FF27591B99F0B4
:100AE000593F50F4503E68F11A16F040A22F232FC0
:100AF000342F4427585FF3CF469537952795A79510
:100B0000F0405395C9F77EF41F16BA0B620B730BB6
:100B1000840BBAF09150A1F0FF0FBB1F661F771F27
:100B2000881FC2F70EC0BA0F621F731F841F48F4DC
:100B3000879577956795B795F7959E3F08F0B0CF65
:100B40009395880F08F09927EE0F9795879508954C
:100B50000E94190608F481E008950E946D0688F04D
:100B60009F5798F0B92F9927B751B0F0E1F0660F71
:100B7000771F881F991F1AF0BA95C9F714C0B130B2
:100B800091F00E948706B1E008950C948706672FC4
:100B9000782F8827B85F39F0B93FCCF386957795E1
:100BA0006795B395D9F73EF49095809570956195CA
:100BB0007F4F8F4F9F4F0895E89409C097FB3EF4F5
:100BC00090958095709561957F4F8F4F9F4F99239A
:100BD000A9F0F92F96E9BB279395F6958795779518
:100BE0006795B795F111F8CFFAF4BB0F11F460FFD8
:100BF0001BC06F5F7F4F8F4F9F4F16C0882311F030
:100C000096E911C0772321F09EE8872F762F05C043
:100C1000662371F096E8862F70E060E02AF09A95DE
:100C2000660F771F881FDAF7880F9695879597F9D3
:100C30000895990F0008550FAA0BE0E8FEEF16166D
:100C40001706E807F907C0F012161306E407F507C0
:100C500098F0621B730B840B950B39F40A2661F034
:100C6000232B242B252B21F408950A2609F4A140D7
:100C7000A6958FEF811D811D089597F99F6780E8E4
:100C800070E060E008959FEF80EC089500240A94DE
:100C90001616170618060906089500240A94121657
:100CA0001306140605060895092E0394000C11F48A
:100CB000882352F0BB0F40F4BF2B11F460FF04C037
:100CC0006F5F7F4F8F4F9F4F089557FD9058440F90
:100CD000551F59F05F3F71F04795880F97FB991F9B
:100CE00061F09F3F79F08795089512161306140658
:100CF000551FF2CF4695F1DF08C0161617061806E5
:100D0000991FF1CF86957105610508940895E894BF
:100D1000BB2766277727CB0197F908950E9419060C
:100D200008F48FEF08950E94A6060C9454060E94C2
:100D3000460638F00E944D0620F0952311F00C94E1
:100D40003D060C94430611240C9488060E94650607
:100D500070F3959FC1F3950F50E0551F629FF0010E
:100D6000729FBB27F00DB11D639FAA27F00DB11D27
:100D7000AA1F649F6627B00DA11D661F829F2227B0
:100D8000B00DA11D621F739FB00DA11D621F839F37
:100D9000A00D611D221F749F3327A00D611D231F0D
:100DA000849F600D211D822F762F6A2F11249F575B
:100DB00050409AF0F1F088234AF0EE0FFF1FBB1F5E
:100DC000661F771F881F91505040A9F79E3F51051D
:100DD00080F00C943D060C9488065F3FE4F3983E47
:100DE000D4F3869577956795B795F795E7959F5FC7
:100DF000C1F7FE2B880F911D9695879597F9089559
:100E00000E941906880B990B0895A1E21A2EAA1BBD
:100E1000BB1BFD010DC0AA1FBB1FEE1FFF1FA217AA
:100E2000B307E407F50720F0A21BB30BE40BF50BA7
:100E3000661F771F881F991F1A9469F76095709530
:100E4000809590959B01AC01BD01CF010895EE0FF7
:100E5000FF1F0590F491E02D099481E090E0F89453
:080E60000C943207F894FFCF57
:100E6800000000008C01F5002301D9015401320172
:100E7800460144697374616E63653A20003E20340C
:100E88003030003C2032006E616E00696E66006F83
:0A0E980076660020636D000D0A006D
:00000001FF
