:100000000C9462000C948A000C948A000C948A0070
:100010000C948A000C948A000C948A000C948A0038
:100020000C948A000C948A000C948A000C948A0028
:100030000C948A000C948A000C948A000C948A0018
:100040000C9497020C948A000C9465020C943F0265
:100050000C948A000C948A000C948A000C948A00F8
:100060000C948A000C948A000000000024002700F1
:100070002A0000000000250028002B0000000000DE
:1000800023002600290004040404040404040202DA
:100090000202020203030303030301020408102007
:1000A0004080010204081020010204081020000012
:1000B0000008000201000003040700000000000027
:1000C0000000F80311241FBECFEFD8E0DEBFCDBF84
:1000D00011E0A0E0B1E0E8EAF8E002C005900D927E
:1000E000AE31B107D9F721E0AEE1B1E001C01D9218
:1000F000A53CB207E1F710E0C2E6D0E004C02197CA
:10010000FE010E944704C136D107C9F70E94E102EF
:100110000C9452040C940000CF92DF92EF92FF9265
:100120000F931F93CF93DF936C017A018B01C0E093
:10013000D0E0CE15DF0589F0D8016D918D01D60193
:10014000ED91FC910190F081E02DC6010995892B7C
:1001500011F47E0102C02196ECCFC701DF91CF914F
:100160001F910F91FF90EF90DF90CF900895089529
:1001700080E090E00895FC01538D448D252F30E000
:10018000842F90E0821B930B541710F0CF960895A4
:1001900001970895FC01918D828D981761F0828DF1
:1001A000DF01A80FB11D5D968C91928D9F5F9F73AB
:1001B000928F90E008958FEF9FEF0895FC01918D4D
:1001C000828D981731F0828DE80FF11D858D90E0BA
:1001D00008958FEF9FEF0895FC01918D228D892F57
:1001E00090E0805C9F4F821B91098F73992708953F
:1001F00088E291E00E94EC0021E0892B09F420E0E4
:10020000822F0895FC01848DDF01A80FB11DA35A30
:10021000BF4F2C91848D90E001968F739927848F26
:10022000A689B7892C93A089B1898C9180648C931D
:10023000938D848D981306C00288F389E02D808108
:100240008F7D80830895EF92FF920F931F93CF933A
:10025000DF93EC0181E0888F9B8D8C8D981305C016
:10026000E889F989808185FD24C0F62E0B8D10E088
:100270000F5F1F4F0F731127E02E8C8DE8120CC0FB
:100280000FB607FCFACFE889F989808185FFF5CFA1
:10029000CE010E940201F1CF8B8DFE01E80FF11D0E
:1002A000E35AFF4FF0820B8FEA89FB8980818062DD
:1002B00007C0EE89FF896083E889F98980818064BD
:1002C000808381E090E0DF91CF911F910F91FF90AB
:1002D000EF900895CF93DF93EC01888D8823C9F0C8
:1002E000EA89FB89808185FD05C0A889B9898C913F
:1002F00086FD0FC00FB607FCF5CF808185FFF2CFDA
:10030000A889B9898C9185FFEDCFCE010E940201A9
:10031000E7CFDF91CF91089580E090E0892B29F01D
:100320000E94F80081110C9400000895833081F040
:1003300028F4813099F08230A1F008958730A9F037
:100340008830B9F08430D1F4809180008F7D03C073
:10035000809180008F7780938000089584B58F7797
:1003600002C084B58F7D84BD08958091B0008F77E1
:1003700003C08091B0008F7D8093B00008951F93DB
:10038000CF93DF93282F30E0F901E255FF4F84919E
:10039000F901E656FF4FD491F901EA57FF4FC49196
:1003A000CC23C9F0162F81110E949601EC2FF0E0AA
:1003B000EE0FFF1FEE58FF4FA591B4918FB7F89441
:1003C000111105C09C91ED2FE095E92302C0EC913D
:1003D000ED2BEC938FBFDF91CF911F910895CF93B9
:1003E000DF9390E0FC01E656FF4F2491FC01EA57B1
:1003F000FF4F8491882361F190E0880F991FFC01E1
:10040000E859FF4FC591D491FC01EE58FF4FA591DB
:10041000B491611109C09FB7F89488812095822317
:100420008883EC912E230BC0623061F49FB7F8945F
:100430003881822F809583238883EC912E2B2C93F7
:100440009FBF06C08FB7F894E8812E2B28838FBFFB
:10045000DF91CF910895009769F0FC010190002091
:10046000E9F73197AF01481B590BBC0188E291E0D5
:100470000C948C0080E090E008950E944D041F923F
:100480000F920FB60F9211242F933F934F935F93C8
:100490006F937F938F939F93AF93BF93EF93FF934C
:1004A00088E291E00E940201FF91EF91BF91AF912C
:1004B0009F918F917F916F915F914F913F912F917C
:1004C0000F900FBE0F901F9018951F920F920FB6AE
:1004D0000F9211242F938F939F93EF93FF93E091AB
:1004E0003801F09139018081E0913E01F0913F01A6
:1004F00082FD12C09081809141018F5F8F732091A6
:100500004201821751F0E0914101F0E0E85DFE4FB9
:10051000958F8093410101C08081FF91EF919F9160
:100520008F912F910F900FBE0F901F9018951F92D3
:100530000F920FB60F9211242F933F938F939F9397
:10054000AF93BF938091230190912401A091250145
:10055000B09126013091220123E0230F2D3720F4A2
:100560000196A11DB11D05C026E8230F0296A11D0D
:10057000B11D209322018093230190932401A09325
:100580002501B093260180911E0190911F01A09139
:100590002001B09121010196A11DB11D80931E0182
:1005A00090931F01A0932001B0932101BF91AF91BF
:1005B0009F918F913F912F910F900FBE0F901F90A1
:1005C0001895CF93DF93CDB7DEB7A1970FB6F89408
:1005D000DEBF0FBECDBF789484B5826084BD84B584
:1005E000816084BD85B5826085BD85B5816085BD2E
:1005F00080916E00816080936E00109281008091E6
:10060000810082608093810080918100816080936D
:100610008100809180008160809380008091B10092
:1006200084608093B1008091B00081608093B000BD
:1006300080917A00846080937A0080917A00826051
:1006400080937A0080917A00816080937A00809113
:100650007A00806880937A001092C100E09138019E
:10066000F091390182E08083E0913801F091390105
:100670001082E0913401F09135011082E091360151
:10068000F091370180E1808310924001E0913C01BC
:10069000F0913D0186E08083E0913A01F0913B01C9
:1006A000808180618083E0913A01F0913B018081FB
:1006B00088608083E0913A01F0913B0180818068FD
:1006C0008083E0913A01F0913B0180818F7D8083AE
:1006D00061E08BE00E94EF0161E08AE00E94EF019F
:1006E00060E089E00E94EF0160E08AE00E94BF01C3
:1006F00060E08BE00E94BF0197EBE92E90E0F92EBD
:1007000023EAC22E20E0D22E3FE8A32E30E0B32E03
:100710004AE0442E512C612C712C61E08BE00E9448
:10072000BF0107E010E0912CF7018491F6013490AD
:10073000F5018490882091F081110E949601E82DA6
:10074000F0E0EE0FFF1FE458FF4FA591B4918C919C
:10075000382231E009F430E0832F02C080E090E0DD
:10076000002E01C0880F0A94EAF7982A0150110957
:1007700061E08AE00E94BF0160E08AE00E94BF0160
:100780000F3FFFEF1F0781F660E08BE00E94BF0183
:1007900080912701981629F19092270182E191E03A
:1007A0000E942B022091270130E040E050E019A286
:1007B0008E010F5D1F4FCA01B901A30192010E9472
:1007C0002504605DF80162938F0121153105410513
:1007D000510589F7CF010E942B028AE191E00E9426
:1007E0002B028BE99FE00197F1F70E948C0195CFD6
:1007F000E8E2F1E01382128288EE93E0A0E0B0E03C
:1008000084839583A683B78384E091E0918380837A
:1008100085EC90E09587848784EC90E097878687C5
:1008200080EC90E0918B808B81EC90E0938B828BBD
:1008300082EC90E0958B848B86EC90E0978B868B96
:10084000118E128E138E148E0895A1E21A2EAA1BF9
:10085000BB1BFD010DC0AA1FBB1FEE1FFF1FA21770
:10086000B307E407F50720F0A21BB30BE40BF50B6D
:10087000661F771F881F991F1A9469F760957095F6
:10088000809590959B01AC01BD01CF010895EE0FBD
:10089000FF1F0590F491E02D099481E090E0F89419
:0808A0000C945204F894FFCF00
:1008A8000000000023018C00BB006A01EC00CA00B4
:0E08B800DE0056616C75653A20000D0A0000E6
:00000001FF
