:020000040000FA
:060000008A110A12052816
:1000080009007E2221226D22DD30F2000130F3004A
:100018009430F7000330F8007123DD30B10001306F
:10002800B20046230130F400942171210330F4001A
:100038009421DD30F2000130F300A430F7000330E2
:10004800F8007123DD30B1000130B20046230130E1
:10005800A900A7012E23DD30F2000130F300AF30F4
:10006800F7000330F8007123DD30B1000130B20031
:1000780046230330F40094217121A901A7012E23FE
:10008800DD30F2000130F300BA30F7000330F80039
:100098007123DD30B1000130B20046230130A900E0
:1000A800A7012E230A30A8009B220330F4009421D4
:1000B80071210D30A8009B22A901A7012E23DD3054
:1000C800F2000130F300C430F7000330F800712368
:1000D800DD30B1000130B20046230330F400942132
:1000E8007121A901A7012E23DD30F2000130F300B0
:1000F800CF30F7000330F8007123DD30B100013054
:10010800B20046230130A900A7012E230930A80018
:100118009B220330F40094217121A901A7012E2309
:10012800DD30F2000130F300D830F7000330F8007A
:100138007123DD30B1000130B20046230E30A80033
:100148009B220330F4009421A901A7012E23DD305E
:10015800F2000130F300E230F7000330F8007123B9
:10016800DD30B1000130B20046230130A900A701FB
:100178002E230A30A8009B220930A8009B220330B6
:10018800F4009421A901A7012E23DD30F2000130EB
:10019800F300F230F7000330F8007123DD30B100CE
:1001A8000130B20046230130A900A7012E230D30EB
:1001B800A8009B220E30A8009B220330F400942153
:1001C8007121A9010430A7002E23DD30F20001308F
:1001D800F3000330F7000430F8007123DD30B1007C
:1001E8000130B20046230130A9000430A7002E23B5
:1001F800DD30F2000130F3000C30F7000430F80075
:100208007123DD30B1000130B2004623F430F20032
:100218000130F30086210A30B4000B30A8009B227D
:10022800F430F2000130F30086210C30A8009B2244
:10023800F430F2000130F3008621B40B112971214A
:10024800A901A7012E23DD30F2000130F30014309C
:10025800F7000430F8007123DD30B1000130B2003E
:1002680046230130A900A7012E23DD30F20001301A
:10027800F3002530F7000430F8007123DD30B100B9
:100288000130B20046230230F40094210B30A8005C
:100298009B22AA0190220530F40094210130AA0083
:1002A80090227121A901A7012E230C30A8009B22BE
:1002B800DD30F2000130F3002F30F7000430F80091
:1002C8007123DD30B1000130B20046230330F40061
:1002D800942119286F2963006F29B0100130A600F6
:1002E800DF220430F200F30186218030A600DF22ED
:1002F8000C30F5007F290C30F000F00B8129F50B4C
:100308007F290800F30A6C30F1000B30F000F00B85
:100318008B29F10B8929F20B8729F30B8729080010
:10032800E830F2000330F3008621F40B942908002A
:10033800F529831603138711831203138711A42940
:10034800A5290830B600A21FAD2983160313071686
:10035800B329831603130712831203130712831298
:100368000313A20D83160313871583120313871D26
:10037800B929BE29BF2983160313871183120313D2
:100388008711C629C729B60BA7290230F000F00B40
:10039800CB290000831603130716D229D329871502
:1003A80083120313871DD429071EDD29A001A1018B
:1003B800E129FF30A000FF30A10083160313871145
:1003C800831203138711E829E929831603130712F7
:1003D8008312031307120230F000F00BF12900001A
:1003E80008008316031307168715FA29FB29071235
:1003F800831203130712002A012A83160313871195
:1004080083120313871108008316031387118312BD
:10041800031387118316031307128312031307129A
:10042800152A162A8316031387151A2A1B2A071654
:100438001D2A1E2A831203130800831603130716A6
:10044800871583120313A30108000F30F200F3018C
:1004580086210330A600DF220530F200F301862151
:100468000330A600DF220130F200F30186210330B9
:10047800A600DF220130F200F30186210330A60036
:10048800DF220130F200F30186210230A600DF22CC
:100498000130F200F30186212830A600DF22013066
:1004A800F200F30186210C30A600DF220130F200B1
:1004B800F30186210130A600DF220F30F200F3019C
:1004C80086210630A600DF220130F200F3018621E2
:1004D800712921220130AB000230F200F30186219C
:1004E8000230B5004E30AC002922B50B762A0C300C
:1004F800AD000800831603139F13831203131F1004
:10050800831603139F111F159F141F1083120313C3
:100518008501860187010800AA080319AB012A038F
:10052800031D982A0130AB00B010A601DF2AB010D5
:100538002803031DA22A0C302D04AA000C3028021F
:10054800031DA92A0C302D04AA00A808031DAF2AF0
:100558000B302D05AA000B302802031DB62A0B30DC
:100568002D05AA000A302802031DBD2A0A302D04D1
:10057800AA000D302802031DC42A0D302D05AA003B
:1005880009302802031DCB2A09302D04AA0009309E
:100598002802031DD22A09302D04AA000E30280291
:1005A800031DD92A0E302D05AA002A08A600DF222D
:1005B8002A08AD000800B01CE32A2514E42A2510F7
:1005C800A510A5112B18A5159C212C08A2009D216A
:1005D800A513A61BA5172513261B2517A512A61AB2
:1005E800A5162512261A251625112508A2009D21D3
:1005F80025152508A2009D2125112508A2009D2169
:10060800A513A619A517251326192517A512A61887
:10061800A51625122618251625112508A2009D21A4
:1006280025152508A2009D2125112508A2009D2138
:1006380008220C30AD000D30F000F00B212B1030EB
:10064800260203182D2B2608073C03182D2B2608F5
:10065800AD000800B0102908013C0318372B023000
:10066800A9021430A7072908F5004030F9006523CE
:1006780027087007B70080303704A600DF2205304E
:10068800F5007F2931088400831332188317000886
:10069800AE00AE0803190800B014B30101302E02F1
:1006A800031C642BB30A3308310784008313321800
:1006B80083170008A600DF222E083302031C562BDE
:1006C8000800F00175087918F0070310F90C0310F9
:1006D800F50DF908031D662B0800720884008313C2
:1006E800731883178D23F5008000F207842B720896
:1006F80084008313731883178D23F500F607F20718
:10070800F508031908008D23840A8000F50B872B50
:10071800080078088A007708F70A0319F80A82009F
:100728000F344734723465346134743420344334BC
:100738006F34773420344234613473346934633429
:100748000A345334543441345234543420345434F5
:100758004534533454340A344434493453345034CB
:100768004C344134593420344F344E3409344334F2
:100778007534723473346F34723420344F344E34D9
:100788000A3443347534723473346F347234203419
:100798004F3446344634083446344C3441345334A8
:1007A800483420344F344E34093446344C344134C0
:1007B8005334483420344F34463446340F344334A9
:1007C8005534523453345234203426342034463489
:1007D8004C345334483420344F344E34103443347A
:1007E8005534523453345234203426342034463469
:1007F8004C345334483420344F3446344634083467
:1008080046346C3461347334683469346E34673414
:10081800073444346934733470346C346134793453
:10082800103444344934533450344C3441345934FA
:100838002034263420344234413443344B344C344D
:100848002E34093446344F3452342034353420346D
:10085800533445344334083445344E344434203416
:08086800543445345334543478
:02400E007A3FF7
:00000001FF
