:020000040000FA
:0400000006EF00F017
:020008001000E6
:10000C00F5EC05F0CCEC05F093802A6B020E236F17
:10001C0081B012D02353D8B40ED063DA220E1C6FE9
:10002C001E6B960E2B6F050E2C6F2DD8EE0E026EDE
:10003C00020E036E1AD8236B81A013D02305D8B4FB
:10004C000ED04FDA140E1C6F1E6BD20E2B6F070ED8
:10005C002C6F19D8EE0E026E020E036E06D8010E2E
:10006C00236FD6D700D00300FED7032AE30E016E10
:10007C00060E006E002EFED7012EFAD7022EF6D7F2
:10008C00032EF4D71200010E316F326B2BC005F02A
:10009C002CC006F0960E096E050E0A6E57EC06F093
:1000AC0000A010D031C007F032C008F06EDA276F14
:1000BC00312BD8B4322B31C007F032C008F065DADE
:1000CC00266F69D02BC005F02CC006F0D20E096E3D
:1000DC00070E0A6E57EC06F000A010D031C007F0E6
:1000EC0032C008F070DB276F312BD8B4322B31C003
:1000FC0007F032C008F067DB266F4DD02BC005F03F
:10010C002CC006F0B40E096E0A0E0A6E57EC06F0FF
:10011C0000A00ED031C007F05AEC05F0276F312B40
:10012C00D8B4322B31C007F05AEC05F0266F33D01F
:10013C002BC005F02CC006F0D20E096E0A0E0A6E0A
:10014C0057EC06F000A00ED031C007F069EC05F0BA
:10015C00276F312BD8B4322B31C007F069EC05F086
:10016C00266F19D02BC005F02CC006F0F00E096ECE
:10017C000A0E0A6E57EC06F000A00DD031C007F045
:10018C0078EC05F0276F312BD8B4322B31C007F047
:10019C0078EC05F0266F1CC028F0030E316F326B23
:1001AC0026C005F0080E096E73EC06F005C034F09D
:1001BC001EC005F0080E096E73EC06F000C02FF09F
:1001CC002FC005F0096A52EC06F000C029F0345338
:1001DC00D8B4DCD0226934052F6F096A2FC005F022
:1001EC0060EC06F000B0D2D0222B22511E251D6FE0
:1001FC00356927052F6F096A2FC005F060EC06F0F2
:10020C0000B0B6D0352B2BC005F02CC006F0960EE6
:10021C00096E050E0A6E57EC06F000A007D031C02F
:10022C0007F032C008F0B1D9336F48D02BC005F0BD
:10023C002CC006F0D20E096E070E0A6E57EC06F0B3
:10024C0000A007D031C007F032C008F0BCDA336F21
:10025C0035D02BC005F02CC006F0B40E096E0A0E7A
:10026C000A6E57EC06F000A006D031C007F05AEC2D
:10027C0005F0336F23D02BC005F02CC006F0D20E46
:10028C00096E0A0E0A6E57EC06F000A006D031C0BB
:10029C0007F069EC05F0336F11D02BC005F02CC0C2
:1002AC0006F0F00E096E0A0E0A6E57EC06F000A06E
:1002BC0005D031C007F078EC05F0336F312BD8B492
:1002CC00322B2A51335DD8B449D02929D8A424D053
:1002DC0035511C251B6F1BBD02D08B828B901BAD27
:1002EC0004D08B80400E1B5F8B921DC005F0080E56
:1002FC00096E73EC06F005C00DF08D90B80E0D1163
:10030C00246F87EC05F0400E1B11246FFADB8D80F7
:10031C0033C024F0F6DB22D00B690B2B33B10DD09C
:10032C0035511C251B6F1E510B251D6F0EC012F075
:10033C000FC013F006EC06F00CD035511C251B6FCA
:10034C001E510B251D6F18C012F019C013F006ECCE
:10035C0006F03333070E0B5DD8A0DFD727052F6FC0
:10036C0035C005F02FC009F060EC06F000B04AD79C
:10037C0028C01CF0080E1E2734052F6F22C005F074
:10038C002FC009F060EC06F000B02ED726C005F0A7
:10039C00080E096E73EC06F000C025F02553D8B496
:1003AC009DD0356927052F6F096A2FC005F060ECC9
:1003BC0006F000B093D0352B2BC005F02CC006F006
:1003CC00960E096E050E0A6E57EC06F000A007D0CB
:1003DC0031C007F032C008F0D8D8336F45D02BC0ED
:1003EC0005F02CC006F0D20E096E070E0A6E57EC03
:1003FC0006F000A007D031C007F032C008F0E3D9F6
:10040C00336F32D02BC005F02CC006F0B40E096E41
:10041C000A0E0A6E57EC06F000A005D031C007F0AA
:10042C0043DB336F21D02BC005F02CC006F0D20E6D
:10043C00096E0A0E0A6E57EC06F000A005D031C00A
:10044C0007F041DB336F10D02BC005F02CC006F049
:10045C00F00E096E0A0E0A6E57EC06F000A004D0DE
:10046C0031C007F03FDB336F312BD8B4322B0B6923
:10047C0025052F6F096A2FC005F060EC06F000B05F
:10048C0024D00B2B33B10CD035511C251B6F1E51B6
:10049C000B251D6F0EC012F00FC013F0B1DB0BD08B
:1004AC0035511C251B6F1E510B251D6F18C012F0EA
:1004BC0019C013F0A5DB333325052F6F0BC005F0E6
:1004CC002FC009F0F7DB00B0DCD727052F6F35C044
:1004DC0005F02FC009F0EEDB00B06DD78B908B923E
:1004EC001200206B216B8B808B921F6B1F2B0D6965
:1004FC000D2B8D90B80E0D11246F03DB0C690C2B9A
:10050C008D90400E0C11246FFCDA8D80246BF9DA7F
:10051C003F0E0C5DD8A0F3D7070E0D5DD8A0E8D721
:10052C008B908B82020E1F5DD8A0E0D78B908B92A4
:10053C001200958E958C958A9588958695849582D2
:10054C0095808D828D840F0E006E002EFED71A9F23
:10055C0083BE1A8F1A9D83BC1A8D1A9B83BA1A8B71
:10056C001A9983B81A891A9783B61A871A9583B47D
:10057C001A851A9383B21A831A9183B01A818D94B7
:10058C000F0E006E002EFED7120007C005F008C03B
:10059C0006F0E30E096E010E0A6E91DB00A0000C52
:1005AC000750C20FF66E050ED8B0010F0824F76E77
:1005BC000800F5501200E23C400000000000000072
:1005CC00000000000000000000000000000000001F
:1005DC0000000000000000000000000080E000C0EF
:1005EC0000000000000000000000000000000000FF
:1005FC00000000000040C0B060C08000000000009F
:10060C0000000000000000000000000000000000DE
:10061C000000000000C070DE731C07010000000029
:10062C0000000000000000000000000000000000BE
:10063C00000000010103060D1B3EEC1810101018F1
:10064C001808080C0C0C040404060602020203032E
:10065C000101030F1C70E08000000000000000008E
:10066C00000000000000000000000000000000007E
:10067C00000000000000FF0000000000000000006F
:10068C00000000000000000000000000000000005E
:10069C0000000001070E3870C08000000000000050
:1006AC00000000000000000000000000000000003E
:1006BC000000FF000000000000000000000000002F
:1006CC00000000000000000000000000000000001E
:1006DC0000000080C063361C000000000000000019
:1006EC000000000000000000000000000000070CEB
:1006FC000818103030206040C0C08080000000001E
:10070C00000000000000000080C070381C0E0301C7
:10071C0000000000000000000000000000000000CD
:10072C000000000000000000C020C000000000001D
:10073C0000000000000000010103030206040CECA1
:10074C00080C06030100002000000000000000005F
:10075C00000000000000000000000000000000008D
:10076C0000C038161110111638C000FF020101012B
:10077C00FE00007E818181817E0000FF42818181AB
:10078C007E0000FF00007F80808040FF0000FF02A1
:10079C00010101FE02010101FE0007C005F008C0C5
:1007AC0006F0010E096E0A6A8ADA00A0000C0750E6
:1007BC00D00FF66E070ED8B0010F0824F76E0800A4
:1007CC00F5501200010007C005F008C006F0890EB4
:1007DC00096E020E0A6E73DA00A0000C0750FE0FB1
:1007EC00F66E070ED8B0010F0824F76E0800F5500E
:1007FC001200A2543F0000000000000000000000A6
:10080C0000000000000000000000000000000000DC
:10081C0000000000000000000000000000000000CC
:10082C0000000000000000000000000000000000BC
:10083C000000000000002060C08080C0E0E0E0F01C
:10084C00B8DEC080000000000000000000000000C6
:10085C000080C0E0F0F8F8F8F8F8F8F8F0F0F0F0F4
:10086C00F0E0E0E0E0E0E0E0E0E0E0E0E0E0E0E06C
:10087C00E0E0E0F0F0F0F0F0F8F8F8F8FCFCFCFC4C
:10088C00FCFCFCFCFEFEFEFEFEFEFEFEFFFFFFFF80
:10089C00FFFFFFFFFFFFFFF1C08000000000000022
:1008AC00000000F8FEFFFFFFFFFFFFFFFFFFFFFF51
:1008BC00FFFFFFFFFFFFFFFFFFFFFFFFFFFFFFFF3C
:1008CC00FFFFFFFFFFFFFFFFFFFFFFFFFFFFFFFF2C
:1008DC00FFFFFFFFFFFFFFFFFFFFFFFFFFFFFFFF1C
:1008EC00FFFFFFFFFFFFFFFFFF7F3F3F3F3F1E0C60
:1008FC00000000000000E0FF073FFFFFFFFFFFFFCD
:10090C00FFFFFFFFFFFFFFFFFFFFFFFFFFFFFFFFEB
:10091C00FFFFFFFFFFFFFFFFFFFFFFFFFFFFFFFFDB
:10092C00FFFFFFFFFFFFFFFFFFFFFFFFFFFFFFFFCB
:10093C00FFFFFF3F3F3F19000000000000000000D8
:10094C00000000000000000080FCFFFF0000010F11
:10095C00FFFFFFFFFFFFFFFFFFFFFFFFFFFF7FFF1B
:10096C00FFFFFFFFFFFFFFFFFFFFFFFFFFFFFFFF8B
:10097C007F7F7FFFFFFFFFFFFFFFFFFFFFFFFF7F7B
:10098C003F1F0F07030100000000000000000000E3
:10099C00000000000000000000000080FFFFFF1FAF
:1009AC000000F0FCFFFFFFFFFFFFFF0F1F0F070F03
:1009BC00010000000001010101010101010101011F
:1009CC0001000000000000FFFF3F0F03002FFFFF9E
:1009DC00FF7F01000000000000000000000000008C
:1009EC0000000000000000000000000000000000FB
:1009FC0003030100000000FFFFFF0701071FFFFFBB
:100A0C00F0C08000000000000000000000000000AA
:100A1C00000000000000000000141F1F1F10000049
:100A2C000000FFFFFFC0800000000000000000007D
:100A3C0000000000000000000000000000000000AA
:100A4C00000000000000000000000C3F7F7F7800D9
:100A5C000000030307030300000000000000000077
:100A6C00000000000000000000000000000000007A
:100A7C0000000000000000010101010007C005F0AA
:100A8C0008C006F0010E096E0A6A19D900A0000C04
:100A9C000750B20FF66E0A0ED8B0010F0824F76E8D
:100AAC000800F55012000200040E0760000C0750FD
:100ABC00CE0FF66E0A0ED8B0010FF76E0800F55087
:100ACC001200030100FF040E0760000C0750EC0F2E
:100ADC00F66E0A0ED8B0010FF76E0800F550120032
:100AEC00030100FF040E0760000C07500A0FF66E9E
:100AFC000B0ED8B0010FF76E0800F5501200030171
:100B0C0000FF2D9184B02D812D9382B22D8382B064
:100B1C008B928D900EDD1ABFFDD78D902DB18D80EF
:100B2C008B922DB38B828D929590959295949596F0
:100B3C009598959A959C959E8C9E24BF8C8E8C9C9A
:100B4C0024BD8C8C8C9A24BB8C8A8C9824B98C8870
:100B5C008C9624B78C868C9424B58C848C9224B37C
:100B6C008C828C9024B18C80010E006E002EFED7EE
:100B7C0000008D84010E006E002EFED700008D94B7
:100B8C00010E006E002EFED7000012009690969279
:100B9C0096949490949294948B94010E026E036AA2
:100BAC003BEC00F08B84010E026E036A3BEC00F010
:100BBC008B808B828D903F0E246FA3DFC00E246F31
:100BCC00A0DF8B908B920E6B0F6B010E186F196B55
:100BDC00060E176F156B010E166F83DC12000000EA
:100BEC00E06AF86AC09EC290C186C184C182C1808D
:100BFC00070EB46E806A816A826A836A846A120004
:100C0C001BBD02D08B828B901BAD04D08B80400E11
:100C1C001B5F8B921DC005F0080E096E5ED805C0D7
:100C2C000DF08D90B80E0D11246F6BDF8D90400E72
:100C3C001B11246F66DF8D807CDC1AC014F08D8054
:100C4C0078DC1AC014F0070E1D15106F12B104D009
:100C5C00FE0E116FD88003D0010E116FD89010C00A
:100C6C002EF02E53D8B403D011372E2FFDD712B13E
:100C7C0004D014511115146F03D014511111146FA9
:100C8C008D90400E1B11246F3CDF8D8014C024F01E
:100C9C0038DF8B908B921200006809500562006A55
:100CAC001200006A0950056212000A500662120016
:100CBC0000681200006809500560006A1200006AA2
:100CCC0006500A5CD8A012000A50065C04E30950D6
:100CDC00055CD8B01200001E12000952D8B41200E4
:100CEC00006A080E046ED890053600360950005E76
:100CFC000580D8B003D0059009500026042EF3D7F8
:020D0C001200D3
:020000040030CA
:04000000000B1F1EB4
:02000500038175
:060008000FC00FE00F40E5
:00000001FF
