:100000000C945D000C9485000C9485000C94850084
:100010000C9485000C9485000C9485000C9485004C
:100020000C9485000C9485000C9485000C9485003C
:100030000C9485000C9485000C9485000C9485002C
:100040000C94EB010C9485000C945B020C9435022B
:100050000C9485000C9485000C9485000C9485000C
:100060000C9485000C94850000000008000201003B
:100070000003040700000000000000000000000072
:10008000250028002B0000000000240027002A0083
:10009000040404040404040402020202020203032E
:1000A0000303030301020408102040800102040836
:1000B00010200102040810206F0311241FBECFEF8F
:1000C000D8E0DEBFCDBF21E0A4E2B1E001C01D92C7
:1000D000AC3CB207E1F711E0A0E0B1E0E4EDF7E0FD
:1000E00002C005900D92A432B107D9F710E0CDE51A
:1000F000D0E004C02197FE010E949C03CC35D107BB
:10010000C9F70E948D020C94E8030C94000090E063
:10011000FC01EC55FF4F2491FC01E057FF4F849107
:10012000882399F090E0880F991FFC01EA57FF4F50
:10013000A591B491FC01E458FF4F859194918FB73C
:10014000F894EC91E22BEC938FBF0895CF92DF925D
:10015000EF92FF920F931F93CF93DF936C017A017D
:100160008B01C0E0D0E0CE15DF0589F0D8016D919C
:100170008D01D601ED91FC910190F081E02DC60139
:100180000995892B11F47E0102C02196ECCFC7019D
:10019000DF91CF911F910F91FF90EF90DF90CF9063
:1001A0000895FC01918D828D981761F0828DDF0199
:1001B000A80FB11D5D968C91928D9F5F9F73928F5A
:1001C00090E008958FEF9FEF0895FC01918D828D4F
:1001D000981731F0828DE80FF11D858D90E008951C
:1001E0008FEF9FEF0895FC01918D228D892F90E074
:1001F000805C9F4F821B91098F739927089586E237
:1002000091E00E94F30021E0892B09F420E0822F85
:100210000895FC01848DDF01A80FB11DA35ABF4FC3
:100220002C91848D90E001968F739927848FA689F5
:10023000B7892C93A089B1898C9180648C93938D1C
:10024000848D981306C00288F389E02D80818F7D0C
:1002500080830895EF92FF920F931F93CF93DF93C4
:10026000EC0181E0888F9B8D8C8D981305C0E88907
:10027000F989808185FD24C0F62E0B8D10E00F5F7B
:100280001F4F0F731127E02E8C8DE8120CC00FB694
:1002900007FCFACFE889F989808185FFF5CFCE0187
:1002A0000E940901F1CF8B8DFE01E80FF11DE35A89
:1002B000FF4FF0820B8FEA89FB898081806207C043
:1002C000EE89FF896083E889F98980818064808371
:1002D00081E090E0DF91CF911F910F91FF90EF901F
:1002E0000895CF93DF93EC01888D8823C9F0EA89C4
:1002F000FB89808185FD05C0A889B9898C9186FD1F
:100300000FC00FB607FCF5CF808185FFF2CFA8891B
:10031000B9898C9185FFEDCFCE010E940901E7CF0D
:10032000DF91CF91089580E090E0892B29F00E9421
:10033000FF0081110C940000089590E0FC01E85941
:10034000FF4F3491FC01EC55FF4F2491FC01E05725
:10035000FF4FE491EE2309F43BC0332339F13330EE
:1003600091F038F43130A9F0323001F584B58F7D49
:1003700012C0373091F03830A1F03430B9F48091A8
:1003800080008F7D03C0809180008F7780938000F4
:100390000DC084B58F7784BD09C08091B0008F7780
:1003A00003C08091B0008F7D8093B000F0E0EE0F2D
:1003B000FF1FE458FF4FA591B4918FB7F894EC91CB
:1003C000611103C020952E2301C02E2B2C938FBFCB
:1003D00008950E94A2031F920F920FB60F9211244C
:1003E0002F933F938F939F93AF93BF938091C801B7
:1003F0009091C901A091CA01B091CB013091C70180
:1004000023E0230F2D3720F40196A11DB11D05C057
:1004100026E8230F0296A11DB11D2093C7018093EA
:10042000C8019093C901A093CA01B093CB018091F8
:10043000C3019091C401A091C501B091C60101967C
:10044000A11DB11D8093C3019093C401A093C50168
:10045000B093C601BF91AF919F918F913F912F9122
:100460000F900FBE0F901F9018951F920F920FB60E
:100470000F9211242F933F934F935F936F937F932A
:100480008F939F93AF93BF93EF93FF9386E291E097
:100490000E940901FF91EF91BF91AF919F918F91C0
:1004A0007F916F915F914F913F912F910F900FBE70
:1004B0000F901F9018951F920F920FB60F92112454
:1004C0002F938F939F93EF93FF93E0913601F091D9
:1004D00037018081E0913C01F0913D0182FD12C025
:1004E000908180913F018F5F8F732091400182172F
:1004F00051F0E0913F01F0E0EA5DFE4F958F80936F
:100500003F0101C08081FF91EF919F918F912F91C9
:100510000F900FBE0F901F901895789484B582604D
:1005200084BD84B5816084BD85B5826085BD85B597
:10053000816085BD80916E00816080936E00109215
:100540008100809181008260809381008091810090
:100550008160809381008091800081608093800021
:100560008091B10084608093B1008091B00081607F
:100570008093B00080917A00846080937A008091AB
:100580007A00826080937A0080917A008160809303
:100590007A0080917A00806880937A001092C1007E
:1005A000E0913601F091370182E08083E0913201E1
:1005B000F09133011082E0913401F09135018FEC1C
:1005C000808310923E01E0913A01F0913B0186E078
:1005D0008083E0913801F0913901808180618083CE
:1005E000E0913801F0913901808188608083E09149
:1005F0003801F0913901808180688083E091380171
:10060000F091390180818F7D8083C4E1D1E08881C0
:1006100022960E94870081E0C432D807C1F78AE0A1
:100620000E9487008BE00E9487008CE00E94870078
:10063000C12CD12C7601CA9486E291E00E94F3008D
:10064000892B09F449C086E291E00E94D10090E034
:10065000A0E0B0E0BC01CD0123E0660F771F881F4A
:10066000991F2A95D1F7A70196010E94A703590166
:10067000C0912401D09125017C2EEAE07E0E61E03C
:10068000872D0E949D0134E1832E31E0932E00E0FE
:1006900010E00A151B0514F461E001C060E0F401EC
:1006A00080810E949D010F5F1F4FF2E08F0E911C11
:1006B0000830110571F760E0872D0E949D01219699
:1006C000C330D1052CF4D0932501C093240104C07C
:1006D00010922501109224010E949301ADCFE6E211
:1006E000F1E01382128288EE93E0A0E0B0E0848310
:1006F0009583A683B78388E091E09183808385EC1E
:1007000090E09587848784EC90E09787868780ECDB
:1007100090E0918B808B81EC90E0938B828B82ECCC
:1007200090E0958B848B86EC90E0978B868B118E76
:10073000128E138E148E0895EE0FFF1F0590F49104
:10074000E02D099481E090E0F8940C94E803052EE4
:1007500097FB1EF400940E94BE0357FD07D00E9431
:10076000C60307FC03D04EF40C94BE03509540958D
:10077000309521953F4F4F4F5F4F0895909580954D
:10078000709561957F4F8F4F9F4F0895A1E21A2E6C
:10079000AA1BBB1BFD010DC0AA1FBB1FEE1FFF1F25
:1007A000A217B307E407F50720F0A21BB30BE40B75
:1007B000F50B661F771F881F991F1A9469F76095BC
:1007C0007095809590959B01AC01BD01CF01089576
:0407D000F894FFCFCB
:1007D40001000000000000002A01A600F300D1007F
:1007E400E500710102000300040005000600070093
:0407F40008000900F0
:00000001FF
