:020000040000FA
:040000008A11052834
:100008000900F1218C2160210130F400842159304C
:10001800F2000130F3000330F7000330F800E0226B
:100028005930A9000130AA00B5220130A300A1016E
:100038009D225930F2000130F3000E30F7000330F2
:10004800F800E0225930A9000130AA00B522033097
:10005800F40084216021A301A1019D225930F200FE
:100068000130F3001930F7000330F800E02259306E
:10007800A9000130AA00B5220130A300A1019D22E8
:100088000A30A20000220330F400842160210D30E0
:10009800A2000022A301A1019D225930F2000130E3
:1000A800F3002330F7000330F800E0225930A900AC
:1000B8000130AA00B5220330F40084216021A30195
:1000C800A1019D225930F2000130F3002E30F700D3
:1000D8000330F800E0225930A9000130AA00B52207
:1000E8000130A300A1019D220A30A200002209309C
:1000F800A20000220330F40084216021A301A101A1
:100108009D225930F2000130F3003730F7000330F8
:10011800F800E0225930A9000130AA00B5220130C8
:10012800A300A1019D220E30A20000220330F4009A
:100138008421A301A1019D225930F2000130F3006E
:100148004130F7000330F800E0225930A9000130AF
:10015800AA00B5220130A300A1019D220A30A20005
:1001680000220930A20000220330F4008421A301F8
:10017800A1019D225930F2000130F3005130F700FF
:100188000330F800E0225930A9000130AA00B52256
:100198000130A300A1019D220D30A20000220E30E3
:1001A800A20000220330F40084216021A30104305E
:1001B800A1009D225930F2000130F3006230F700AF
:1001C8000330F800E0225930A9000130AA00B52216
:1001D8000130A3000430A1009D225930F200013003
:1001E800F3006B30F7000330F800E0225930A90023
:1001F8000130AA00B522F430F2000130F300762174
:100208000A30AC000B30A2000022F430F2000130BA
:10021800F30076210C30A2000022F430F200013005
:10022800F3007621AC0B06296021A301A1019D22D0
:100238005930F2000130F3007330F7000330F80052
:10024800E0225930A9000130AA00B5220130A300EC
:10025800A1019D225930F2000130F3007F30F700F0
:100268000330F800E0225930A9000130AA00B52275
:100278000230F40084210B30A20000220530F40083
:1002880084216021A301A1019D220C30A20000223B
:100298005930F2000130F3008930F7000330F800DC
:1002A800E0225930A9000130AA00B5220330F40039
:1002B8008421072863005E2986130130A0004422A8
:1002C8000430F200F30176218030A00044220C3083
:1002D800F5006E290F30F000F00B70290000F50BC7
:1002E8006E290800F30AE330F1000630F000F00B45
:1002F8007B29F10B7929F20B7729F30B7729080071
:10030800E830F2000330F3007621F40B842908006A
:1003180083160313861387130A30F200F30183123E
:10032800031376219522A4080319962986138316A8
:10033800031307138711071287120F30F200F30116
:1003480083120313762107178715071287120330C4
:10035800F000F00BAD2987170330F000F00BB2293D
:1003680087130530F200F30176210330AD008717BB
:100378000330F000F00BBE2987130130F100F001C3
:10038800F00BC429F10BC3294C30F000F00BCA293B
:10039800AD0BBB290530F200F30176210713871551
:1003A800071287120330F000F00BD82987170330A3
:1003B800F000F00BDD2987135330F000F00BE22931
:1003C8002830A00044220630A00044220C30A000AF
:1003D800442260210C30A600080000009F131F1063
:1003E800831203179E019F019A1399138312031313
:1003F800850186018701080086132203031D072A49
:100408000C302604A5000C302202031D0E2A0C30E5
:100418002604A500A208031D142A0B302605A500F2
:100428000B302202031D1B2A0B302605A5000A30BB
:100438002202031D222A0A302604A5000D302202BA
:10044800031D292A0D302605A50009302202031DA7
:10045800302A09302604A50009302202031D372A54
:1004680009302604A5000E302202031D3E2A0E3054
:100478002605A5002508A00044222508A600080096
:1004880083160313071387110712871283120313A6
:100498000713871107128712A01B8716201B071640
:1004A800A01A8715201A07170130F000F00B5A2AF6
:1004B800000087170330F000F00B602A8713033021
:1004C800F000F00B652A0713871107128712A0198D
:1004D800871620190716A018871520180717013046
:1004E800F000F00B752A000087170330F000F00BBE
:1004F8007B2A87130330F000F00B802A871207123B
:10050800871107138530F000F00B882A103020027D
:100518000318942A2008073C0318942A2008A600E8
:1005280008000A30F200F3017621FF30A400080029
:10053800080086132308013C0318A62A0230A302E8
:100548001430A1072308F5004030F900D42221080F
:100558007007AE0080302E04A00044220530F5005C
:100568006E292908840083132A1883170008A70016
:10057800A708031908008617AB0101302702031CDE
:10058800D32AAB0A2B082907840083132A18831758
:100598000008A000442227082B02031CC52A0800D3
:1005A800F00175087918F0070310F90C0310F50D20
:1005B800F908031DD52A08007208840083137318EC
:1005C8008317FC22F5008000F207F32A72088400E2
:1005D800831373188317FC22F500F607F207F50852
:1005E80003190800FC22840A8000F50BF62A08008B
:1005F80078088A007708F70A0319F80A82000A348B
:1006080053345434413452345434203454344534FB
:10061800533454340A3444344934533450344C3405
:100628004134593420344F344E340934433475340A
:10063800723473346F34723420344F344E340A3485
:1006480043347534723473346F34723420344F3415
:1006580046344634083446344C34413453344834F0
:1006680020344F344E34093446344C3441345334F6
:10067800483420344F34463446340F3443345534E8
:1006880052345334523420342634203446344C34D3
:100698005334483420344F344E34103443345534B2
:1006A80052345334523420342634203446344C34B3
:1006B8005334483420344F344634463408344634AE
:1006C8006C3461347334683469346E346734073495
:1006D80044346934733470346C34613479340B3491
:1006E80044344934533450344C344134593420342C
:1006F8004F3446344634093446344F345234203467
:1007080035342034533445344334083445344E3476
:0C071800443420345434453453345434F9
:02400E00D23F9F
:00000001FF
